{
  "_format": "hh-sol-artifact-1",
  "contractName": "Withdraw",
  "sourceName": "contracts/contracts/05-Withdraw/Withdraw.sol",
  "abi": [
    {
      "anonymous": false,
      "inputs": [
        {
          "indexed": true,
          "internalType": "bytes32",
          "name": "role",
          "type": "bytes32"
        },
        {
          "indexed": true,
          "internalType": "bytes32",
          "name": "previousAdminRole",
          "type": "bytes32"
        },
        {
          "indexed": true,
          "internalType": "bytes32",
          "name": "newAdminRole",
          "type": "bytes32"
        }
      ],
      "name": "RoleAdminChanged",
      "type": "event"
    },
    {
      "anonymous": false,
      "inputs": [
        {
          "indexed": true,
          "internalType": "bytes32",
          "name": "role",
          "type": "bytes32"
        },
        {
          "indexed": true,
          "internalType": "address",
          "name": "account",
          "type": "address"
        },
        {
          "indexed": true,
          "internalType": "address",
          "name": "sender",
          "type": "address"
        }
      ],
      "name": "RoleGranted",
      "type": "event"
    },
    {
      "anonymous": false,
      "inputs": [
        {
          "indexed": true,
          "internalType": "bytes32",
          "name": "role",
          "type": "bytes32"
        },
        {
          "indexed": true,
          "internalType": "address",
          "name": "account",
          "type": "address"
        },
        {
          "indexed": true,
          "internalType": "address",
          "name": "sender",
          "type": "address"
        }
      ],
      "name": "RoleRevoked",
      "type": "event"
    },
    {
      "anonymous": false,
      "inputs": [
        {
          "indexed": false,
          "internalType": "uint256",
          "name": "id",
          "type": "uint256"
        },
        {
          "indexed": true,
          "internalType": "uint256",
          "name": "member",
          "type": "uint256"
        }
      ],
      "name": "WithdrawPollCreated",
      "type": "event"
    },
    {
      "inputs": [],
      "name": "getProposeWithdrawPollDuration",
      "outputs": [
        {
          "internalType": "uint256",
          "name": "",
          "type": "uint256"
        }
      ],
      "stateMutability": "view",
      "type": "function"
    },
    {
      "inputs": [
        {
          "internalType": "uint256",
          "name": "_amount",
          "type": "uint256"
        },
        {
          "internalType": "address",
          "name": "_beneficiary",
          "type": "address"
        }
      ],
      "name": "proposeWithdraw",
      "outputs": [],
      "stateMutability": "nonpayable",
      "type": "function"
    },
    {
      "inputs": [
        {
          "internalType": "uint256",
          "name": "_duration",
          "type": "uint256"
        }
      ],
      "name": "setProposeWithdrawPollDuration",
      "outputs": [],
      "stateMutability": "nonpayable",
      "type": "function"
    }
  ],
  "bytecode": "0x608060405234801561001057600080fd5b5061081c806100206000396000f3fe608060405234801561001057600080fd5b50600436106100415760003560e01c8063d19f01a214610046578063f0854aac14610062578063f14ad3a91461007e575b600080fd5b610060600480360381019061005b9190610632565b61009c565b005b61007c6004803603810190610077919061065b565b610152565b005b610086610204565b6040516100939190610706565b60405180910390f35b6100cd7f241ecf16d79d0f8dbfb92cbc07fe17840425976cf0667f022fe9877caa831b086100c8610217565b61028c565b61013f576040517f08c379a000000000000000000000000000000000000000000000000000000000815260040180806020018281038252600b8152602001807f4e4f545f4d414e4147455200000000000000000000000000000000000000000081525060200191505060405180910390fd5b806101486102cc565b6000018190555050565b61016261015d610217565b6102f9565b6101a1576040517f08c379a0000000000000000000000000000000000000000000000000000000008152600401610198906106e6565b60405180910390fd5b6101aa816102f9565b6101e9576040517f08c379a00000000000000000000000000000000000000000000000000000000081526004016101e0906106e6565b60405180910390fd5b6101ff826101f56102cc565b600001548361035d565b505050565b600061020e6102cc565b60000154905090565b600060606000368080601f016020809104026020016040519081016040528093929190818152602001838380828437600081840152601f19601f820116905080830192505050505050509050600080369050905073ffffffffffffffffffffffffffffffffffffffff81830151169250505090565b600080610297610468565b90506102c38382600001600087815260200190815260200160002060000161049590919063ffffffff16565b91505092915050565b6000807fa86131b0e9c214bb6e027183ea39a379ec2404b3693e933e1a0cd73b647fc98e90508091505090565b60006103257f829b824e2329e205435d941c9f13baf578548505283d29261236d8e6596d46368361028c565b8061035657506103557f241ecf16d79d0f8dbfb92cbc07fe17840425976cf0667f022fe9877caa831b088361028c565b5b9050919050565b6000806103686104c5565b905060018160000154018160000181905550600061038982600001546104f2565b905081600001548160000181905550428160010181905550844201816002018190555060006103bb8360000154610509565b90508681600101819055506103ce610520565b60010160008673ffffffffffffffffffffffffffffffffffffffff1673ffffffffffffffffffffffffffffffffffffffff16815260200190815260200160002054816000018190555080600001547f91aa418bfd26049fe46510fca1b7593f8348efbf8e8e29a3844bb16584ff1448846000015460405161044f9190610706565b60405180910390a2816000015493505050509392505050565b6000807f6282190449f76f72a9f692e4d8619a03764b7253394788948e36a7a57ba4a00e90508091505090565b60006104bd836000018373ffffffffffffffffffffffffffffffffffffffff1660001b61054d565b905092915050565b6000807fe9264b9da64504fcbd8e41f0f0eb90a5e885b3fe366dad83c81095d9285d25e190508091505090565b6000806104fe83610570565b905080915050919050565b600080610515836105bc565b905080915050919050565b6000807faa97fdeef5de5607974189e6a2429d502dcc32b43d658c3c065d5ca083ee1fab90508091505090565b600080836001016000848152602001908152602001600020541415905092915050565b6000816040516020018080602001838152602001828103825260238152602001806107c46023913960400192505050604051602081830303815290604052805190602001209050919050565b60008160405160200180806020018381526020018281038252602781526020018061079d6027913960400192505050604051602081830303815290604052805190602001209050919050565b6000813590506106178161076e565b92915050565b60008135905061062c81610785565b92915050565b60006020828403121561064457600080fd5b60006106528482850161061d565b91505092915050565b6000806040838503121561066e57600080fd5b600061067c8582860161061d565b925050602061068d85828601610608565b9150509250929050565b60006106a4600a83610721565b91507f4e4f545f4d454d424552000000000000000000000000000000000000000000006000830152602082019050919050565b6106e081610764565b82525050565b600060208201905081810360008301526106ff81610697565b9050919050565b600060208201905061071b60008301846106d7565b92915050565b600082825260208201905092915050565b600061073d82610744565b9050919050565b600073ffffffffffffffffffffffffffffffffffffffff82169050919050565b6000819050919050565b61077781610732565b811461078257600080fd5b50565b61078e81610764565b811461079957600080fd5b5056fe6469616d6f6e642e636f6e74726163742e6173736574706f6f6c2e7769746864726177706f6c6c6469616d6f6e642e636f6e74726163742e6173736574706f6f6c2e62617365706f6c6ca2646970667358221220be1b614496bd61d01180b9f453324f51705a3cc38d7a65ea471c233481cb79ae64736f6c63430007040033",
  "linkReferences": {},
  "deployedLinkReferences": {}
}