{
  "_format": "hh-sol-artifact-1",
  "contractName": "Imports",
  "sourceName": "contracts/contracts/Import.sol",
  "abi": [
    {
      "inputs": [],
      "name": "diamond",
      "outputs": [
        {
          "internalType": "contract Diamond",
          "name": "",
          "type": "address"
        }
      ],
      "stateMutability": "view",
      "type": "function"
    },
    {
      "inputs": [],
      "name": "diamondCutFacet",
      "outputs": [
        {
          "internalType": "contract DiamondCutFacet",
          "name": "",
          "type": "address"
        }
      ],
      "stateMutability": "view",
      "type": "function"
    },
    {
      "inputs": [],
      "name": "diamondLoupeFacet",
      "outputs": [
        {
          "internalType": "contract DiamondLoupeFacet",
          "name": "",
          "type": "address"
        }
      ],
      "stateMutability": "view",
      "type": "function"
    },
    {
      "inputs": [],
      "name": "ownershipFacet",
      "outputs": [
        {
          "internalType": "contract OwnershipFacet",
          "name": "",
          "type": "address"
        }
      ],
      "stateMutability": "view",
      "type": "function"
    }
  ],
  "bytecode": "0x608060405234801561001057600080fd5b506101ed806100206000396000f3fe608060405234801561001057600080fd5b506004361061004c5760003560e01c80630c53b2bd14610051578063a051e9b314610085578063befddd1c146100b9578063f0b7db4e146100ed575b600080fd5b610059610121565b604051808273ffffffffffffffffffffffffffffffffffffffff16815260200191505060405180910390f35b61008d610147565b604051808273ffffffffffffffffffffffffffffffffffffffff16815260200191505060405180910390f35b6100c161016b565b604051808273ffffffffffffffffffffffffffffffffffffffff16815260200191505060405180910390f35b6100f5610191565b604051808273ffffffffffffffffffffffffffffffffffffffff16815260200191505060405180910390f35b600260009054906101000a900473ffffffffffffffffffffffffffffffffffffffff1681565b60008054906101000a900473ffffffffffffffffffffffffffffffffffffffff1681565b600160009054906101000a900473ffffffffffffffffffffffffffffffffffffffff1681565b600360009054906101000a900473ffffffffffffffffffffffffffffffffffffffff168156fea26469706673582212207b117fb649ee03ab674a34781289548bac0ae1cf8b250f583ff406d127ae0f4d64736f6c63430007040033",
  "linkReferences": {},
  "deployedLinkReferences": {}
}