{
  "_format": "hh-sol-artifact-1",
  "contractName": "Imports",
  "sourceName": "contracts/contracts/Import.sol",
  "abi": [
    {
      "inputs": [],
      "name": "diamond",
      "outputs": [
        {
          "internalType": "contract Diamond",
          "name": "",
          "type": "address"
        }
      ],
      "stateMutability": "view",
      "type": "function"
    },
    {
      "inputs": [],
      "name": "diamondCutFacet",
      "outputs": [
        {
          "internalType": "contract DiamondCutFacet",
          "name": "",
          "type": "address"
        }
      ],
      "stateMutability": "view",
      "type": "function"
    },
    {
      "inputs": [],
      "name": "diamondLoupeFacet",
      "outputs": [
        {
          "internalType": "contract DiamondLoupeFacet",
          "name": "",
          "type": "address"
        }
      ],
      "stateMutability": "view",
      "type": "function"
    },
    {
      "inputs": [],
      "name": "ownershipFacet",
      "outputs": [
        {
          "internalType": "contract OwnershipFacet",
          "name": "",
          "type": "address"
        }
      ],
      "stateMutability": "view",
      "type": "function"
    }
  ],
  "bytecode": "0x608060405234801561001057600080fd5b5060f18061001f6000396000f3fe6080604052348015600f57600080fd5b506004361060465760003560e01c80630c53b2bd14604b578063a051e9b314606d578063befddd1c146073578063f0b7db4e146079575b600080fd5b6051607f565b604080516001600160a01b039092168252519081900360200190f35b6051608e565b6051609d565b605160ac565b6002546001600160a01b031681565b6000546001600160a01b031681565b6001546001600160a01b031681565b6003546001600160a01b03168156fea264697066735822122019e4a9e5ec3a1bc594f50322e05f03cb0a327d01e1edc0284149243da02879f864736f6c63430007040033",
  "linkReferences": {},
  "deployedLinkReferences": {}
}