{
  "_format": "hh-sol-artifact-1",
  "contractName": "PoolRegistry",
  "sourceName": "contracts/contracts/PoolRegistry.sol",
  "abi": [
    {
      "inputs": [
        {
          "internalType": "address",
          "name": "_feeCollector",
          "type": "address"
        },
        {
          "internalType": "uint256",
          "name": "_feePercentage",
          "type": "uint256"
        }
      ],
      "stateMutability": "nonpayable",
      "type": "constructor"
    },
    {
      "anonymous": false,
      "inputs": [
        {
          "indexed": true,
          "internalType": "address",
          "name": "previousOwner",
          "type": "address"
        },
        {
          "indexed": true,
          "internalType": "address",
          "name": "newOwner",
          "type": "address"
        }
      ],
      "name": "OwnershipTransferred",
      "type": "event"
    },
    {
      "inputs": [],
      "name": "feeCollector",
      "outputs": [
        {
          "internalType": "address",
          "name": "",
          "type": "address"
        }
      ],
      "stateMutability": "view",
      "type": "function"
    },
    {
      "inputs": [],
      "name": "feePercentage",
      "outputs": [
        {
          "internalType": "uint256",
          "name": "",
          "type": "uint256"
        }
      ],
      "stateMutability": "view",
      "type": "function"
    },
    {
      "inputs": [],
      "name": "owner",
      "outputs": [
        {
          "internalType": "address",
          "name": "",
          "type": "address"
        }
      ],
      "stateMutability": "view",
      "type": "function"
    },
    {
      "inputs": [],
      "name": "renounceOwnership",
      "outputs": [],
      "stateMutability": "nonpayable",
      "type": "function"
    },
    {
      "inputs": [
        {
          "internalType": "address",
          "name": "_feeCollector",
          "type": "address"
        }
      ],
      "name": "setFeeCollector",
      "outputs": [],
      "stateMutability": "nonpayable",
      "type": "function"
    },
    {
      "inputs": [
        {
          "internalType": "uint256",
          "name": "_feePercentage",
          "type": "uint256"
        }
      ],
      "name": "setFeePercentage",
      "outputs": [],
      "stateMutability": "nonpayable",
      "type": "function"
    },
    {
      "inputs": [
        {
          "internalType": "address",
          "name": "newOwner",
          "type": "address"
        }
      ],
      "name": "transferOwnership",
      "outputs": [],
      "stateMutability": "nonpayable",
      "type": "function"
    }
  ],
  "bytecode": "0x608060405234801561001057600080fd5b50604051610a4e380380610a4e83398181016040528101906100329190610161565b600061004261012f60201b60201c565b9050806000806101000a81548173ffffffffffffffffffffffffffffffffffffffff021916908373ffffffffffffffffffffffffffffffffffffffff1602179055508073ffffffffffffffffffffffffffffffffffffffff16600073ffffffffffffffffffffffffffffffffffffffff167f8be0079c531659141344cd1fd0a4f28419497f9722a3daafe3b4186f6b6457e060405160405180910390a35081600160006101000a81548173ffffffffffffffffffffffffffffffffffffffff021916908373ffffffffffffffffffffffffffffffffffffffff160217905550806002819055505050610207565b600033905090565b600081519050610146816101d9565b92915050565b60008151905061015b816101f0565b92915050565b6000806040838503121561017457600080fd5b600061018285828601610137565b92505060206101938582860161014c565b9150509250929050565b60006101a8826101af565b9050919050565b600073ffffffffffffffffffffffffffffffffffffffff82169050919050565b6000819050919050565b6101e28161019d565b81146101ed57600080fd5b50565b6101f9816101cf565b811461020457600080fd5b50565b610838806102166000396000f3fe608060405234801561001057600080fd5b506004361061007d5760003560e01c8063a42dce801161005b578063a42dce80146100c8578063ae06c1b7146100e4578063c415b95c14610100578063f2fde38b1461011e5761007d565b8063715018a6146100825780638da5cb5b1461008c578063a001ecdd146100aa575b600080fd5b61008a61013a565b005b6100946102a7565b6040516100a1919061073c565b60405180910390f35b6100b26102d0565b6040516100bf9190610757565b60405180910390f35b6100e260048036038101906100dd91906106cc565b6102d6565b005b6100fe60048036038101906100f991906106f5565b6103c9565b005b610108610482565b604051610115919061073c565b60405180910390f35b610138600480360381019061013391906106cc565b6104a8565b005b61014261069a565b73ffffffffffffffffffffffffffffffffffffffff166101606102a7565b73ffffffffffffffffffffffffffffffffffffffff16146101e9576040517f08c379a00000000000000000000000000000000000000000000000000000000081526004018080602001828103825260208152602001807f4f776e61626c653a2063616c6c6572206973206e6f7420746865206f776e657281525060200191505060405180910390fd5b600073ffffffffffffffffffffffffffffffffffffffff1660008054906101000a900473ffffffffffffffffffffffffffffffffffffffff1673ffffffffffffffffffffffffffffffffffffffff167f8be0079c531659141344cd1fd0a4f28419497f9722a3daafe3b4186f6b6457e060405160405180910390a360008060006101000a81548173ffffffffffffffffffffffffffffffffffffffff021916908373ffffffffffffffffffffffffffffffffffffffff160217905550565b60008060009054906101000a900473ffffffffffffffffffffffffffffffffffffffff16905090565b60025481565b6102de61069a565b73ffffffffffffffffffffffffffffffffffffffff166102fc6102a7565b73ffffffffffffffffffffffffffffffffffffffff1614610385576040517f08c379a00000000000000000000000000000000000000000000000000000000081526004018080602001828103825260208152602001807f4f776e61626c653a2063616c6c6572206973206e6f7420746865206f776e657281525060200191505060405180910390fd5b80600160006101000a81548173ffffffffffffffffffffffffffffffffffffffff021916908373ffffffffffffffffffffffffffffffffffffffff16021790555050565b6103d161069a565b73ffffffffffffffffffffffffffffffffffffffff166103ef6102a7565b73ffffffffffffffffffffffffffffffffffffffff1614610478576040517f08c379a00000000000000000000000000000000000000000000000000000000081526004018080602001828103825260208152602001807f4f776e61626c653a2063616c6c6572206973206e6f7420746865206f776e657281525060200191505060405180910390fd5b8060028190555050565b600160009054906101000a900473ffffffffffffffffffffffffffffffffffffffff1681565b6104b061069a565b73ffffffffffffffffffffffffffffffffffffffff166104ce6102a7565b73ffffffffffffffffffffffffffffffffffffffff1614610557576040517f08c379a00000000000000000000000000000000000000000000000000000000081526004018080602001828103825260208152602001807f4f776e61626c653a2063616c6c6572206973206e6f7420746865206f776e657281525060200191505060405180910390fd5b600073ffffffffffffffffffffffffffffffffffffffff168173ffffffffffffffffffffffffffffffffffffffff1614156105dd576040517f08c379a00000000000000000000000000000000000000000000000000000000081526004018080602001828103825260268152602001806107dd6026913960400191505060405180910390fd5b8073ffffffffffffffffffffffffffffffffffffffff1660008054906101000a900473ffffffffffffffffffffffffffffffffffffffff1673ffffffffffffffffffffffffffffffffffffffff167f8be0079c531659141344cd1fd0a4f28419497f9722a3daafe3b4186f6b6457e060405160405180910390a3806000806101000a81548173ffffffffffffffffffffffffffffffffffffffff021916908373ffffffffffffffffffffffffffffffffffffffff16021790555050565b600033905090565b6000813590506106b1816107ae565b92915050565b6000813590506106c6816107c5565b92915050565b6000602082840312156106de57600080fd5b60006106ec848285016106a2565b91505092915050565b60006020828403121561070757600080fd5b6000610715848285016106b7565b91505092915050565b61072781610772565b82525050565b610736816107a4565b82525050565b6000602082019050610751600083018461071e565b92915050565b600060208201905061076c600083018461072d565b92915050565b600061077d82610784565b9050919050565b600073ffffffffffffffffffffffffffffffffffffffff82169050919050565b6000819050919050565b6107b781610772565b81146107c257600080fd5b50565b6107ce816107a4565b81146107d957600080fd5b5056fe4f776e61626c653a206e6577206f776e657220697320746865207a65726f2061646472657373a2646970667358221220398b6152153028b60f1f3c420b22b4595716c0df67643cd40bf9065f7b5d480064736f6c63430007040033",
  "linkReferences": {},
  "deployedLinkReferences": {}
}