{
  "_format": "hh-sol-artifact-1",
  "contractName": "MemberAccess",
  "sourceName": "contracts/contracts/03-MemberAccess/MemberAccess.sol",
  "abi": [
    {
      "anonymous": false,
      "inputs": [
        {
          "indexed": true,
          "internalType": "uint256",
          "name": "memberID",
          "type": "uint256"
        },
        {
          "indexed": true,
          "internalType": "address",
          "name": "previousAddress",
          "type": "address"
        },
        {
          "indexed": true,
          "internalType": "address",
          "name": "newAddress",
          "type": "address"
        }
      ],
      "name": "MemberAddressChanged",
      "type": "event"
    },
    {
      "anonymous": false,
      "inputs": [
        {
          "indexed": true,
          "internalType": "bytes32",
          "name": "role",
          "type": "bytes32"
        },
        {
          "indexed": true,
          "internalType": "bytes32",
          "name": "previousAdminRole",
          "type": "bytes32"
        },
        {
          "indexed": true,
          "internalType": "bytes32",
          "name": "newAdminRole",
          "type": "bytes32"
        }
      ],
      "name": "RoleAdminChanged",
      "type": "event"
    },
    {
      "anonymous": false,
      "inputs": [
        {
          "indexed": true,
          "internalType": "bytes32",
          "name": "role",
          "type": "bytes32"
        },
        {
          "indexed": true,
          "internalType": "address",
          "name": "account",
          "type": "address"
        },
        {
          "indexed": true,
          "internalType": "address",
          "name": "sender",
          "type": "address"
        }
      ],
      "name": "RoleGranted",
      "type": "event"
    },
    {
      "anonymous": false,
      "inputs": [
        {
          "indexed": true,
          "internalType": "bytes32",
          "name": "role",
          "type": "bytes32"
        },
        {
          "indexed": true,
          "internalType": "address",
          "name": "account",
          "type": "address"
        },
        {
          "indexed": true,
          "internalType": "address",
          "name": "sender",
          "type": "address"
        }
      ],
      "name": "RoleRevoked",
      "type": "event"
    },
    {
      "inputs": [
        {
          "internalType": "address",
          "name": "_account",
          "type": "address"
        }
      ],
      "name": "addManager",
      "outputs": [],
      "stateMutability": "nonpayable",
      "type": "function"
    },
    {
      "inputs": [
        {
          "internalType": "address",
          "name": "_account",
          "type": "address"
        }
      ],
      "name": "addMember",
      "outputs": [],
      "stateMutability": "nonpayable",
      "type": "function"
    },
    {
      "inputs": [
        {
          "internalType": "uint256",
          "name": "_member",
          "type": "uint256"
        }
      ],
      "name": "getAddressByMember",
      "outputs": [
        {
          "internalType": "address",
          "name": "",
          "type": "address"
        }
      ],
      "stateMutability": "view",
      "type": "function"
    },
    {
      "inputs": [
        {
          "internalType": "address",
          "name": "_address",
          "type": "address"
        }
      ],
      "name": "getMemberByAddress",
      "outputs": [
        {
          "internalType": "uint256",
          "name": "",
          "type": "uint256"
        }
      ],
      "stateMutability": "view",
      "type": "function"
    },
    {
      "inputs": [],
      "name": "getOwner",
      "outputs": [
        {
          "internalType": "address",
          "name": "",
          "type": "address"
        }
      ],
      "stateMutability": "view",
      "type": "function"
    },
    {
      "inputs": [
        {
          "internalType": "address",
          "name": "_owner",
          "type": "address"
        }
      ],
      "name": "initializeRoles",
      "outputs": [],
      "stateMutability": "nonpayable",
      "type": "function"
    },
    {
      "inputs": [
        {
          "internalType": "address",
          "name": "_account",
          "type": "address"
        }
      ],
      "name": "isManager",
      "outputs": [
        {
          "internalType": "bool",
          "name": "",
          "type": "bool"
        }
      ],
      "stateMutability": "view",
      "type": "function"
    },
    {
      "inputs": [
        {
          "internalType": "address",
          "name": "_account",
          "type": "address"
        }
      ],
      "name": "isManagerRoleAdmin",
      "outputs": [
        {
          "internalType": "bool",
          "name": "",
          "type": "bool"
        }
      ],
      "stateMutability": "view",
      "type": "function"
    },
    {
      "inputs": [
        {
          "internalType": "address",
          "name": "_account",
          "type": "address"
        }
      ],
      "name": "isMember",
      "outputs": [
        {
          "internalType": "bool",
          "name": "",
          "type": "bool"
        }
      ],
      "stateMutability": "view",
      "type": "function"
    },
    {
      "inputs": [
        {
          "internalType": "address",
          "name": "_account",
          "type": "address"
        }
      ],
      "name": "isMemberRoleAdmin",
      "outputs": [
        {
          "internalType": "bool",
          "name": "",
          "type": "bool"
        }
      ],
      "stateMutability": "view",
      "type": "function"
    },
    {
      "inputs": [
        {
          "internalType": "address",
          "name": "_account",
          "type": "address"
        }
      ],
      "name": "removeManager",
      "outputs": [],
      "stateMutability": "nonpayable",
      "type": "function"
    },
    {
      "inputs": [
        {
          "internalType": "address",
          "name": "_account",
          "type": "address"
        }
      ],
      "name": "removeMember",
      "outputs": [],
      "stateMutability": "nonpayable",
      "type": "function"
    },
    {
      "inputs": [
        {
          "internalType": "address",
          "name": "_oldAddress",
          "type": "address"
        },
        {
          "internalType": "address",
          "name": "_newAddress",
          "type": "address"
        }
      ],
      "name": "upgradeAddress",
      "outputs": [],
      "stateMutability": "nonpayable",
      "type": "function"
    }
  ],
  "bytecode": "0x608060405234801561001057600080fd5b5061162f806100206000396000f3fe608060405234801561001057600080fd5b50600436106100cf5760003560e01c806384c7b5d21161008c578063a230c52411610066578063a230c5241461039c578063ac18de43146103f6578063ca6d56dc1461043a578063f3ae24151461047e576100cf565b806384c7b5d2146102b657806388ba031014610310578063893d20e814610368576100cf565b80630b1ca49a146100d457806327eef566146101185780632d06177a1461017c5780633dd9899f146101c057806354208a2f146102185780637f8057d51461025c575b600080fd5b610116600480360360208110156100ea57600080fd5b81019080803573ffffffffffffffffffffffffffffffffffffffff1690602001909291905050506104d8565b005b61017a6004803603604081101561012e57600080fd5b81019080803573ffffffffffffffffffffffffffffffffffffffff169060200190929190803573ffffffffffffffffffffffffffffffffffffffff1690602001909291905050506105c3565b005b6101be6004803603602081101561019257600080fd5b81019080803573ffffffffffffffffffffffffffffffffffffffff16906020019092919050505061097e565b005b610202600480360360208110156101d657600080fd5b81019080803573ffffffffffffffffffffffffffffffffffffffff169060200190929190505050610a72565b6040518082815260200191505060405180910390f35b61025a6004803603602081101561022e57600080fd5b81019080803573ffffffffffffffffffffffffffffffffffffffff169060200190929190505050610ac4565b005b61029e6004803603602081101561027257600080fd5b81019080803573ffffffffffffffffffffffffffffffffffffffff169060200190929190505050610bc4565b60405180821515815260200191505060405180910390f35b6102f8600480360360208110156102cc57600080fd5b81019080803573ffffffffffffffffffffffffffffffffffffffff169060200190929190505050610c16565b60405180821515815260200191505060405180910390f35b61033c6004803603602081101561032657600080fd5b8101908080359060200190929190505050610c68565b604051808273ffffffffffffffffffffffffffffffffffffffff16815260200191505060405180910390f35b610370610cae565b604051808273ffffffffffffffffffffffffffffffffffffffff16815260200191505060405180910390f35b6103de600480360360208110156103b257600080fd5b81019080803573ffffffffffffffffffffffffffffffffffffffff169060200190929190505050610cbd565b60405180821515815260200191505060405180910390f35b6104386004803603602081101561040c57600080fd5b81019080803573ffffffffffffffffffffffffffffffffffffffff169060200190929190505050610ccf565b005b61047c6004803603602081101561045057600080fd5b81019080803573ffffffffffffffffffffffffffffffffffffffff169060200190929190505050610e63565b005b6104c06004803603602081101561049457600080fd5b81019080803573ffffffffffffffffffffffffffffffffffffffff169060200190929190505050610f57565b60405180821515815260200191505060405180910390f35b6105097f241ecf16d79d0f8dbfb92cbc07fe17840425976cf0667f022fe9877caa831b08610504610f69565b610fde565b8061052457506105236000801b61051e610f69565b610fde565b5b610596576040517f08c379a00000000000000000000000000000000000000000000000000000000081526004018080602001828103825260068152602001807f414343455353000000000000000000000000000000000000000000000000000081525060200191505060405180910390fd5b6105c07f829b824e2329e205435d941c9f13baf578548505283d29261236d8e6596d46368261101e565b50565b6105cb610f69565b73ffffffffffffffffffffffffffffffffffffffff168273ffffffffffffffffffffffffffffffffffffffff161461066b576040517f08c379a000000000000000000000000000000000000000000000000000000000815260040180806020018281038252600e8152602001807f4f4c445f4e4f545f53454e44455200000000000000000000000000000000000081525060200191505060405180910390fd5b60006106756110c1565b905060008160010160008573ffffffffffffffffffffffffffffffffffffffff1673ffffffffffffffffffffffffffffffffffffffff1681526020019081526020016000205490506000811415610734576040517f08c379a000000000000000000000000000000000000000000000000000000000815260040180806020018281038252600a8152602001807f4e4f4e5f4d454d4245520000000000000000000000000000000000000000000081525060200191505060405180910390fd5b60008260010160008673ffffffffffffffffffffffffffffffffffffffff1673ffffffffffffffffffffffffffffffffffffffff16815260200190815260200160002081905550808260010160008573ffffffffffffffffffffffffffffffffffffffff1673ffffffffffffffffffffffffffffffffffffffff168152602001908152602001600020819055508282600201600083815260200190815260200160002060006101000a81548173ffffffffffffffffffffffffffffffffffffffff021916908373ffffffffffffffffffffffffffffffffffffffff16021790555061083f7f829b824e2329e205435d941c9f13baf578548505283d29261236d8e6596d463685610fde565b156108995761086e7f829b824e2329e205435d941c9f13baf578548505283d29261236d8e6596d46368561101e565b6108987f829b824e2329e205435d941c9f13baf578548505283d29261236d8e6596d4636846110ee565b5b6108c37f241ecf16d79d0f8dbfb92cbc07fe17840425976cf0667f022fe9877caa831b0885610fde565b1561091d576108f27f241ecf16d79d0f8dbfb92cbc07fe17840425976cf0667f022fe9877caa831b088561101e565b61091c7f241ecf16d79d0f8dbfb92cbc07fe17840425976cf0667f022fe9877caa831b08846110ee565b5b8273ffffffffffffffffffffffffffffffffffffffff168473ffffffffffffffffffffffffffffffffffffffff16827f8132c6c688b9e92e30d65e58365bf9ddec7ca7333f82e764d6a1c66d08d7f33660405160405180910390a450505050565b6109af7f241ecf16d79d0f8dbfb92cbc07fe17840425976cf0667f022fe9877caa831b086109aa610f69565b610fde565b806109ca57506109c96000801b6109c4610f69565b610fde565b5b610a3c576040517f08c379a00000000000000000000000000000000000000000000000000000000081526004018080602001828103825260068152602001807f414343455353000000000000000000000000000000000000000000000000000081525060200191505060405180910390fd5b610a4581611191565b610a6f7f241ecf16d79d0f8dbfb92cbc07fe17840425976cf0667f022fe9877caa831b08826110ee565b50565b6000610a7c6110c1565b60010160008373ffffffffffffffffffffffffffffffffffffffff1673ffffffffffffffffffffffffffffffffffffffff168152602001908152602001600020549050919050565b6000610ace6110c1565b6000015414610b45576040517f08c379a00000000000000000000000000000000000000000000000000000000081526004018080602001828103825260048152602001807f494e49540000000000000000000000000000000000000000000000000000000081525060200191505060405180910390fd5b6103e8610b506110c1565b60000181905550610b646000801b826112ad565b610b8e7f829b824e2329e205435d941c9f13baf578548505283d29261236d8e6596d4636826112ad565b610bb87f241ecf16d79d0f8dbfb92cbc07fe17840425976cf0667f022fe9877caa831b08826112ad565b610bc181611191565b50565b6000610c0f610bd16112bb565b60000160007f241ecf16d79d0f8dbfb92cbc07fe17840425976cf0667f022fe9877caa831b0881526020019081526020016000206002015483610fde565b9050919050565b6000610c61610c236112bb565b60000160007f829b824e2329e205435d941c9f13baf578548505283d29261236d8e6596d463681526020019081526020016000206002015483610fde565b9050919050565b6000610c726110c1565b600201600083815260200190815260200160002060009054906101000a900473ffffffffffffffffffffffffffffffffffffffff169050919050565b6000610cb86112e8565b905090565b6000610cc8826112f7565b9050919050565b610d007f241ecf16d79d0f8dbfb92cbc07fe17840425976cf0667f022fe9877caa831b08610cfb610f69565b610fde565b80610d1b5750610d1a6000801b610d15610f69565b610fde565b5b610d8d576040517f08c379a00000000000000000000000000000000000000000000000000000000081526004018080602001828103825260068152602001807f414343455353000000000000000000000000000000000000000000000000000081525060200191505060405180910390fd5b8073ffffffffffffffffffffffffffffffffffffffff16610dac610f69565b73ffffffffffffffffffffffffffffffffffffffff161415610e36576040517f08c379a000000000000000000000000000000000000000000000000000000000815260040180806020018281038252600b8152602001807f4f574e5f4143434f554e5400000000000000000000000000000000000000000081525060200191505060405180910390fd5b610e607f241ecf16d79d0f8dbfb92cbc07fe17840425976cf0667f022fe9877caa831b088261101e565b50565b610e947f241ecf16d79d0f8dbfb92cbc07fe17840425976cf0667f022fe9877caa831b08610e8f610f69565b610fde565b80610eaf5750610eae6000801b610ea9610f69565b610fde565b5b610f21576040517f08c379a00000000000000000000000000000000000000000000000000000000081526004018080602001828103825260068152602001807f414343455353000000000000000000000000000000000000000000000000000081525060200191505060405180910390fd5b610f2a81611191565b610f547f829b824e2329e205435d941c9f13baf578548505283d29261236d8e6596d4636826110ee565b50565b6000610f628261135b565b9050919050565b600060606000368080601f016020809104026020016040519081016040528093929190818152602001838380828437600081840152601f19601f820116905080830192505050505050509050600080369050905073ffffffffffffffffffffffffffffffffffffffff81830151169250505090565b600080610fe96112bb565b90506110158382600001600087815260200190815260200160002060000161138e90919063ffffffff16565b91505092915050565b60006110286112bb565b9050611054828260000160008681526020019081526020016000206000016113be90919063ffffffff16565b156110bc57611061610f69565b73ffffffffffffffffffffffffffffffffffffffff168273ffffffffffffffffffffffffffffffffffffffff16847ff6391f5c32d9c69d2a47ea670b442974b53935d1edc7fd64eb21e047a839171b60405160405180910390a45b505050565b6000807faa97fdeef5de5607974189e6a2429d502dcc32b43d658c3c065d5ca083ee1fab90508091505090565b60006110f86112bb565b9050611124828260000160008681526020019081526020016000206000016113ee90919063ffffffff16565b1561118c57611131610f69565b73ffffffffffffffffffffffffffffffffffffffff168273ffffffffffffffffffffffffffffffffffffffff16847f2f8788117e7eff1d82e926ec794901d17c78024a50270940304540a733656f0d60405160405180910390a45b505050565b600061119b6110c1565b905060008160010160008473ffffffffffffffffffffffffffffffffffffffff1673ffffffffffffffffffffffffffffffffffffffff168152602001908152602001600020549050600081146111f25750506112aa565b6001826000016000828254019250508190555081600001548260010160008573ffffffffffffffffffffffffffffffffffffffff1673ffffffffffffffffffffffffffffffffffffffff16815260200190815260200160002081905550828260020160008460000154815260200190815260200160002060006101000a81548173ffffffffffffffffffffffffffffffffffffffff021916908373ffffffffffffffffffffffffffffffffffffffff16021790555050505b50565b6112b782826110ee565b5050565b6000807f6282190449f76f72a9f692e4d8619a03764b7253394788948e36a7a57ba4a00e90508091505090565b60006112f261141e565b905090565b60006113237f829b824e2329e205435d941c9f13baf578548505283d29261236d8e6596d463683610fde565b8061135457506113537f241ecf16d79d0f8dbfb92cbc07fe17840425976cf0667f022fe9877caa831b0883610fde565b5b9050919050565b60006113877f241ecf16d79d0f8dbfb92cbc07fe17840425976cf0667f022fe9877caa831b0883610fde565b9050919050565b60006113b6836000018373ffffffffffffffffffffffffffffffffffffffff1660001b611451565b905092915050565b60006113e6836000018373ffffffffffffffffffffffffffffffffffffffff1660001b611474565b905092915050565b6000611416836000018373ffffffffffffffffffffffffffffffffffffffff1660001b61155c565b905092915050565b60006114286115cc565b60040160009054906101000a900473ffffffffffffffffffffffffffffffffffffffff16905090565b600080836001016000848152602001908152602001600020541415905092915050565b6000808360010160008481526020019081526020016000205490506000811461155057600060018203905060006001866000018054905003905060008660000182815481106114bf57fe5b90600052602060002001549050808760000184815481106114dc57fe5b906000526020600020018190555060018301876001016000838152602001908152602001600020819055508660000180548061151457fe5b60019003818190600052602060002001600090559055866001016000878152602001908152602001600020600090556001945050505050611556565b60009150505b92915050565b60006115688383611451565b6115c15782600001829080600181540180825580915050600190039060005260206000200160009091909190915055826000018054905083600101600084815260200190815260200160002081905550600190506115c6565b600090505b92915050565b6000807fc8fcad8db84d3cc18b4c41d551ea0ee66dd599cde068d998e57d5e09332c131c9050809150509056fea2646970667358221220d63a3b1c18d8c2dade801bc92cf48d42bd1512c5302a5bf4b46b83967f30700364736f6c63430007040033",
  "linkReferences": {},
  "deployedLinkReferences": {}
}