{
  "_format": "hh-sol-artifact-1",
  "contractName": "MemberAccess",
  "sourceName": "contracts/contracts/03-MemberAccess/MemberAccess.sol",
  "abi": [
    {
      "anonymous": false,
      "inputs": [
        {
          "indexed": true,
          "internalType": "uint256",
          "name": "memberID",
          "type": "uint256"
        },
        {
          "indexed": true,
          "internalType": "address",
          "name": "previousAddress",
          "type": "address"
        },
        {
          "indexed": true,
          "internalType": "address",
          "name": "newAddress",
          "type": "address"
        }
      ],
      "name": "MemberAddressChanged",
      "type": "event"
    },
    {
      "anonymous": false,
      "inputs": [
        {
          "indexed": true,
          "internalType": "bytes32",
          "name": "role",
          "type": "bytes32"
        },
        {
          "indexed": true,
          "internalType": "bytes32",
          "name": "previousAdminRole",
          "type": "bytes32"
        },
        {
          "indexed": true,
          "internalType": "bytes32",
          "name": "newAdminRole",
          "type": "bytes32"
        }
      ],
      "name": "RoleAdminChanged",
      "type": "event"
    },
    {
      "anonymous": false,
      "inputs": [
        {
          "indexed": true,
          "internalType": "bytes32",
          "name": "role",
          "type": "bytes32"
        },
        {
          "indexed": true,
          "internalType": "address",
          "name": "account",
          "type": "address"
        },
        {
          "indexed": true,
          "internalType": "address",
          "name": "sender",
          "type": "address"
        }
      ],
      "name": "RoleGranted",
      "type": "event"
    },
    {
      "anonymous": false,
      "inputs": [
        {
          "indexed": true,
          "internalType": "bytes32",
          "name": "role",
          "type": "bytes32"
        },
        {
          "indexed": true,
          "internalType": "address",
          "name": "account",
          "type": "address"
        },
        {
          "indexed": true,
          "internalType": "address",
          "name": "sender",
          "type": "address"
        }
      ],
      "name": "RoleRevoked",
      "type": "event"
    },
    {
      "inputs": [
        {
          "internalType": "address",
          "name": "_account",
          "type": "address"
        }
      ],
      "name": "addManager",
      "outputs": [],
      "stateMutability": "nonpayable",
      "type": "function"
    },
    {
      "inputs": [
        {
          "internalType": "address",
          "name": "_account",
          "type": "address"
        }
      ],
      "name": "addMember",
      "outputs": [],
      "stateMutability": "nonpayable",
      "type": "function"
    },
    {
      "inputs": [
        {
          "internalType": "uint256",
          "name": "_member",
          "type": "uint256"
        }
      ],
      "name": "getAddressByMember",
      "outputs": [
        {
          "internalType": "address",
          "name": "",
          "type": "address"
        }
      ],
      "stateMutability": "view",
      "type": "function"
    },
    {
      "inputs": [
        {
          "internalType": "address",
          "name": "_address",
          "type": "address"
        }
      ],
      "name": "getMemberByAddress",
      "outputs": [
        {
          "internalType": "uint256",
          "name": "",
          "type": "uint256"
        }
      ],
      "stateMutability": "view",
      "type": "function"
    },
    {
      "inputs": [],
      "name": "getOwner",
      "outputs": [
        {
          "internalType": "address",
          "name": "",
          "type": "address"
        }
      ],
      "stateMutability": "view",
      "type": "function"
    },
    {
      "inputs": [
        {
          "internalType": "address",
          "name": "_owner",
          "type": "address"
        }
      ],
      "name": "initializeRoles",
      "outputs": [],
      "stateMutability": "nonpayable",
      "type": "function"
    },
    {
      "inputs": [
        {
          "internalType": "address",
          "name": "_account",
          "type": "address"
        }
      ],
      "name": "isManager",
      "outputs": [
        {
          "internalType": "bool",
          "name": "",
          "type": "bool"
        }
      ],
      "stateMutability": "view",
      "type": "function"
    },
    {
      "inputs": [
        {
          "internalType": "address",
          "name": "_account",
          "type": "address"
        }
      ],
      "name": "isManagerRoleAdmin",
      "outputs": [
        {
          "internalType": "bool",
          "name": "",
          "type": "bool"
        }
      ],
      "stateMutability": "view",
      "type": "function"
    },
    {
      "inputs": [
        {
          "internalType": "address",
          "name": "_account",
          "type": "address"
        }
      ],
      "name": "isMember",
      "outputs": [
        {
          "internalType": "bool",
          "name": "",
          "type": "bool"
        }
      ],
      "stateMutability": "view",
      "type": "function"
    },
    {
      "inputs": [
        {
          "internalType": "address",
          "name": "_account",
          "type": "address"
        }
      ],
      "name": "isMemberRoleAdmin",
      "outputs": [
        {
          "internalType": "bool",
          "name": "",
          "type": "bool"
        }
      ],
      "stateMutability": "view",
      "type": "function"
    },
    {
      "inputs": [
        {
          "internalType": "address",
          "name": "_account",
          "type": "address"
        }
      ],
      "name": "removeManager",
      "outputs": [],
      "stateMutability": "nonpayable",
      "type": "function"
    },
    {
      "inputs": [
        {
          "internalType": "address",
          "name": "_account",
          "type": "address"
        }
      ],
      "name": "removeMember",
      "outputs": [],
      "stateMutability": "nonpayable",
      "type": "function"
    },
    {
      "inputs": [
        {
          "internalType": "address",
          "name": "_oldAddress",
          "type": "address"
        },
        {
          "internalType": "address",
          "name": "_newAddress",
          "type": "address"
        }
      ],
      "name": "upgradeAddress",
      "outputs": [],
      "stateMutability": "nonpayable",
      "type": "function"
    }
  ],
  "bytecode": "0x608060405234801561001057600080fd5b506112b6806100206000396000f3fe608060405234801561001057600080fd5b50600436106100cf5760003560e01c806384c7b5d21161008c578063a230c52411610066578063a230c5241461039c578063ac18de43146103f6578063ca6d56dc1461043a578063f3ae24151461047e576100cf565b806384c7b5d2146102b657806388ba031014610310578063893d20e814610368576100cf565b80630b1ca49a146100d457806327eef566146101185780632d06177a1461017c5780633dd9899f146101c057806354208a2f146102185780637f8057d51461025c575b600080fd5b610116600480360360208110156100ea57600080fd5b81019080803573ffffffffffffffffffffffffffffffffffffffff1690602001909291905050506104d8565b005b61017a6004803603604081101561012e57600080fd5b81019080803573ffffffffffffffffffffffffffffffffffffffff169060200190929190803573ffffffffffffffffffffffffffffffffffffffff169060200190929190505050610505565b005b6101be6004803603602081101561019257600080fd5b81019080803573ffffffffffffffffffffffffffffffffffffffff1690602001909291905050506108c0565b005b610202600480360360208110156101d657600080fd5b81019080803573ffffffffffffffffffffffffffffffffffffffff1690602001909291905050506108f6565b6040518082815260200191505060405180910390f35b61025a6004803603602081101561022e57600080fd5b81019080803573ffffffffffffffffffffffffffffffffffffffff169060200190929190505050610948565b005b61029e6004803603602081101561027257600080fd5b81019080803573ffffffffffffffffffffffffffffffffffffffff1690602001909291905050506109c7565b60405180821515815260200191505060405180910390f35b6102f8600480360360208110156102cc57600080fd5b81019080803573ffffffffffffffffffffffffffffffffffffffff169060200190929190505050610a19565b60405180821515815260200191505060405180910390f35b61033c6004803603602081101561032657600080fd5b8101908080359060200190929190505050610a6b565b604051808273ffffffffffffffffffffffffffffffffffffffff16815260200191505060405180910390f35b610370610ab1565b604051808273ffffffffffffffffffffffffffffffffffffffff16815260200191505060405180910390f35b6103de600480360360208110156103b257600080fd5b81019080803573ffffffffffffffffffffffffffffffffffffffff169060200190929190505050610ac0565b60405180821515815260200191505060405180910390f35b6104386004803603602081101561040c57600080fd5b81019080803573ffffffffffffffffffffffffffffffffffffffff169060200190929190505050610ad2565b005b61047c6004803603602081101561045057600080fd5b81019080803573ffffffffffffffffffffffffffffffffffffffff169060200190929190505050610ba8565b005b6104c06004803603602081101561049457600080fd5b81019080803573ffffffffffffffffffffffffffffffffffffffff169060200190929190505050610bde565b60405180821515815260200191505060405180910390f35b6105027f829b824e2329e205435d941c9f13baf578548505283d29261236d8e6596d463682610bf0565b50565b61050d610c93565b73ffffffffffffffffffffffffffffffffffffffff168273ffffffffffffffffffffffffffffffffffffffff16146105ad576040517f08c379a000000000000000000000000000000000000000000000000000000000815260040180806020018281038252600e8152602001807f4f4c445f4e4f545f53454e44455200000000000000000000000000000000000081525060200191505060405180910390fd5b60006105b7610d08565b905060008160010160008573ffffffffffffffffffffffffffffffffffffffff1673ffffffffffffffffffffffffffffffffffffffff1681526020019081526020016000205490506000811415610676576040517f08c379a000000000000000000000000000000000000000000000000000000000815260040180806020018281038252600a8152602001807f4e4f4e5f4d454d4245520000000000000000000000000000000000000000000081525060200191505060405180910390fd5b60008260010160008673ffffffffffffffffffffffffffffffffffffffff1673ffffffffffffffffffffffffffffffffffffffff16815260200190815260200160002081905550808260010160008573ffffffffffffffffffffffffffffffffffffffff1673ffffffffffffffffffffffffffffffffffffffff168152602001908152602001600020819055508282600201600083815260200190815260200160002060006101000a81548173ffffffffffffffffffffffffffffffffffffffff021916908373ffffffffffffffffffffffffffffffffffffffff1602179055506107817f829b824e2329e205435d941c9f13baf578548505283d29261236d8e6596d463685610d35565b156107db576107b07f829b824e2329e205435d941c9f13baf578548505283d29261236d8e6596d463685610bf0565b6107da7f829b824e2329e205435d941c9f13baf578548505283d29261236d8e6596d463684610d75565b5b6108057f241ecf16d79d0f8dbfb92cbc07fe17840425976cf0667f022fe9877caa831b0885610d35565b1561085f576108347f241ecf16d79d0f8dbfb92cbc07fe17840425976cf0667f022fe9877caa831b0885610bf0565b61085e7f241ecf16d79d0f8dbfb92cbc07fe17840425976cf0667f022fe9877caa831b0884610d75565b5b8273ffffffffffffffffffffffffffffffffffffffff168473ffffffffffffffffffffffffffffffffffffffff16827f8132c6c688b9e92e30d65e58365bf9ddec7ca7333f82e764d6a1c66d08d7f33660405160405180910390a450505050565b6108c981610e18565b6108f37f241ecf16d79d0f8dbfb92cbc07fe17840425976cf0667f022fe9877caa831b0882610d75565b50565b6000610900610d08565b60010160008373ffffffffffffffffffffffffffffffffffffffff1673ffffffffffffffffffffffffffffffffffffffff168152602001908152602001600020549050919050565b6103e8610953610d08565b6000018190555061096381610e18565b6109706000801b82610f34565b61099a7f829b824e2329e205435d941c9f13baf578548505283d29261236d8e6596d463682610f34565b6109c47f241ecf16d79d0f8dbfb92cbc07fe17840425976cf0667f022fe9877caa831b0882610f34565b50565b6000610a126109d4610f42565b60000160007f241ecf16d79d0f8dbfb92cbc07fe17840425976cf0667f022fe9877caa831b0881526020019081526020016000206002015483610d35565b9050919050565b6000610a64610a26610f42565b60000160007f829b824e2329e205435d941c9f13baf578548505283d29261236d8e6596d463681526020019081526020016000206002015483610d35565b9050919050565b6000610a75610d08565b600201600083815260200190815260200160002060009054906101000a900473ffffffffffffffffffffffffffffffffffffffff169050919050565b6000610abb610f6f565b905090565b6000610acb82610f7e565b9050919050565b8073ffffffffffffffffffffffffffffffffffffffff16610af1610c93565b73ffffffffffffffffffffffffffffffffffffffff161415610b7b576040517f08c379a000000000000000000000000000000000000000000000000000000000815260040180806020018281038252600b8152602001807f4f574e5f4143434f554e5400000000000000000000000000000000000000000081525060200191505060405180910390fd5b610ba57f241ecf16d79d0f8dbfb92cbc07fe17840425976cf0667f022fe9877caa831b0882610bf0565b50565b610bb181610e18565b610bdb7f829b824e2329e205435d941c9f13baf578548505283d29261236d8e6596d463682610d75565b50565b6000610be982610fe2565b9050919050565b6000610bfa610f42565b9050610c268282600001600086815260200190815260200160002060000161101590919063ffffffff16565b15610c8e57610c33610c93565b73ffffffffffffffffffffffffffffffffffffffff168273ffffffffffffffffffffffffffffffffffffffff16847ff6391f5c32d9c69d2a47ea670b442974b53935d1edc7fd64eb21e047a839171b60405160405180910390a45b505050565b600060606000368080601f016020809104026020016040519081016040528093929190818152602001838380828437600081840152601f19601f820116905080830192505050505050509050600080369050905073ffffffffffffffffffffffffffffffffffffffff81830151169250505090565b6000807faa97fdeef5de5607974189e6a2429d502dcc32b43d658c3c065d5ca083ee1fab90508091505090565b600080610d40610f42565b9050610d6c8382600001600087815260200190815260200160002060000161104590919063ffffffff16565b91505092915050565b6000610d7f610f42565b9050610dab8282600001600086815260200190815260200160002060000161107590919063ffffffff16565b15610e1357610db8610c93565b73ffffffffffffffffffffffffffffffffffffffff168273ffffffffffffffffffffffffffffffffffffffff16847f2f8788117e7eff1d82e926ec794901d17c78024a50270940304540a733656f0d60405160405180910390a45b505050565b6000610e22610d08565b905060008160010160008473ffffffffffffffffffffffffffffffffffffffff1673ffffffffffffffffffffffffffffffffffffffff16815260200190815260200160002054905060008114610e79575050610f31565b6001826000016000828254019250508190555081600001548260010160008573ffffffffffffffffffffffffffffffffffffffff1673ffffffffffffffffffffffffffffffffffffffff16815260200190815260200160002081905550828260020160008460000154815260200190815260200160002060006101000a81548173ffffffffffffffffffffffffffffffffffffffff021916908373ffffffffffffffffffffffffffffffffffffffff16021790555050505b50565b610f3e8282610d75565b5050565b6000807f6282190449f76f72a9f692e4d8619a03764b7253394788948e36a7a57ba4a00e90508091505090565b6000610f796110a5565b905090565b6000610faa7f829b824e2329e205435d941c9f13baf578548505283d29261236d8e6596d463683610d35565b80610fdb5750610fda7f241ecf16d79d0f8dbfb92cbc07fe17840425976cf0667f022fe9877caa831b0883610d35565b5b9050919050565b600061100e7f241ecf16d79d0f8dbfb92cbc07fe17840425976cf0667f022fe9877caa831b0883610d35565b9050919050565b600061103d836000018373ffffffffffffffffffffffffffffffffffffffff1660001b6110d8565b905092915050565b600061106d836000018373ffffffffffffffffffffffffffffffffffffffff1660001b6111c0565b905092915050565b600061109d836000018373ffffffffffffffffffffffffffffffffffffffff1660001b6111e3565b905092915050565b60006110af611253565b60040160009054906101000a900473ffffffffffffffffffffffffffffffffffffffff16905090565b600080836001016000848152602001908152602001600020549050600081146111b4576000600182039050600060018660000180549050039050600086600001828154811061112357fe5b906000526020600020015490508087600001848154811061114057fe5b906000526020600020018190555060018301876001016000838152602001908152602001600020819055508660000180548061117857fe5b600190038181906000526020600020016000905590558660010160008781526020019081526020016000206000905560019450505050506111ba565b60009150505b92915050565b600080836001016000848152602001908152602001600020541415905092915050565b60006111ef83836111c0565b61124857826000018290806001815401808255809150506001900390600052602060002001600090919091909150558260000180549050836001016000848152602001908152602001600020819055506001905061124d565b600090505b92915050565b6000807fc8fcad8db84d3cc18b4c41d551ea0ee66dd599cde068d998e57d5e09332c131c9050809150509056fea2646970667358221220a381f7507903d8b7677f719929c6d73af5b0d08d0ac504602a18e76a2f004bab64736f6c63430007040033",
  "linkReferences": {},
  "deployedLinkReferences": {}
}