{
  "_format": "hh-sol-artifact-1",
  "contractName": "AssetPoolFactory",
  "sourceName": "contracts/contracts/factories/AssetPoolFactory.sol",
  "abi": [
    {
      "inputs": [
        {
          "components": [
            {
              "internalType": "address",
              "name": "facetAddress",
              "type": "address"
            },
            {
              "internalType": "enum IDiamondCut.FacetCutAction",
              "name": "action",
              "type": "uint8"
            },
            {
              "internalType": "bytes4[]",
              "name": "functionSelectors",
              "type": "bytes4[]"
            }
          ],
          "internalType": "struct IDiamondCut.FacetCut[]",
          "name": "_facets",
          "type": "tuple[]"
        }
      ],
      "stateMutability": "nonpayable",
      "type": "constructor"
    },
    {
      "anonymous": false,
      "inputs": [
        {
          "indexed": false,
          "internalType": "address",
          "name": "assetPool",
          "type": "address"
        }
      ],
      "name": "AssetPoolDeployed",
      "type": "event"
    },
    {
      "anonymous": false,
      "inputs": [
        {
          "indexed": true,
          "internalType": "address",
          "name": "previousOwner",
          "type": "address"
        },
        {
          "indexed": true,
          "internalType": "address",
          "name": "newOwner",
          "type": "address"
        }
      ],
      "name": "OwnershipTransferred",
      "type": "event"
    },
    {
      "inputs": [
        {
          "internalType": "uint256",
          "name": "",
          "type": "uint256"
        }
      ],
      "name": "assetPools",
      "outputs": [
        {
          "internalType": "address",
          "name": "",
          "type": "address"
        }
      ],
      "stateMutability": "view",
      "type": "function"
    },
    {
      "inputs": [],
      "name": "defaultController",
      "outputs": [
        {
          "internalType": "address",
          "name": "",
          "type": "address"
        }
      ],
      "stateMutability": "view",
      "type": "function"
    },
    {
      "inputs": [
        {
          "internalType": "uint256",
          "name": "",
          "type": "uint256"
        }
      ],
      "name": "defaultCut",
      "outputs": [
        {
          "internalType": "address",
          "name": "facetAddress",
          "type": "address"
        },
        {
          "internalType": "enum IDiamondCut.FacetCutAction",
          "name": "action",
          "type": "uint8"
        }
      ],
      "stateMutability": "view",
      "type": "function"
    },
    {
      "inputs": [
        {
          "internalType": "address",
          "name": "_api",
          "type": "address"
        },
        {
          "internalType": "address",
          "name": "_owner",
          "type": "address"
        },
        {
          "internalType": "address",
          "name": "_token",
          "type": "address"
        }
      ],
      "name": "deployAssetPool",
      "outputs": [],
      "stateMutability": "nonpayable",
      "type": "function"
    },
    {
      "inputs": [
        {
          "internalType": "address",
          "name": "",
          "type": "address"
        }
      ],
      "name": "isAssetPool",
      "outputs": [
        {
          "internalType": "bool",
          "name": "",
          "type": "bool"
        }
      ],
      "stateMutability": "view",
      "type": "function"
    },
    {
      "inputs": [],
      "name": "owner",
      "outputs": [
        {
          "internalType": "address",
          "name": "",
          "type": "address"
        }
      ],
      "stateMutability": "view",
      "type": "function"
    },
    {
      "inputs": [],
      "name": "renounceOwnership",
      "outputs": [],
      "stateMutability": "nonpayable",
      "type": "function"
    },
    {
      "inputs": [
        {
          "internalType": "address",
          "name": "_controller",
          "type": "address"
        }
      ],
      "name": "setDefaultController",
      "outputs": [],
      "stateMutability": "nonpayable",
      "type": "function"
    },
    {
      "inputs": [
        {
          "internalType": "address",
          "name": "newOwner",
          "type": "address"
        }
      ],
      "name": "transferOwnership",
      "outputs": [],
      "stateMutability": "nonpayable",
      "type": "function"
    }
  ],
  "bytecode": "0x60806040523480156200001157600080fd5b5060405162005df038038062005df08339818101604052810190620000379190620004c9565b6000620000496200021d60201b60201c565b9050806000806101000a81548173ffffffffffffffffffffffffffffffffffffffff021916908373ffffffffffffffffffffffffffffffffffffffff1602179055508073ffffffffffffffffffffffffffffffffffffffff16600073ffffffffffffffffffffffffffffffffffffffff167f8be0079c531659141344cd1fd0a4f28419497f9722a3daafe3b4186f6b6457e060405160405180910390a35033600160006101000a81548173ffffffffffffffffffffffffffffffffffffffff021916908373ffffffffffffffffffffffffffffffffffffffff16021790555060005b8151811015620002155760048282815181106200014457fe5b6020026020010151908060018154018082558091505060019003906000526020600020906002020160009091909190915060008201518160000160006101000a81548173ffffffffffffffffffffffffffffffffffffffff021916908373ffffffffffffffffffffffffffffffffffffffff16021790555060208201518160000160146101000a81548160ff02191690836002811115620001e157fe5b021790555060408201518160010190805190602001906200020492919062000225565b50505080806001019150506200012b565b505062000647565b600033905090565b82805482825590600052602060002090600701600890048101928215620002c65791602002820160005b838211156200029257835183826101000a81548163ffffffff021916908360e01c021790555092602001926004016020816003010492830192600103026200024f565b8015620002c45782816101000a81549063ffffffff021916905560040160208160030104928301926001030262000292565b505b509050620002d59190620002d9565b5090565b5b80821115620002f4576000816000905550600101620002da565b5090565b600081519050620003098162000602565b92915050565b600082601f8301126200032157600080fd5b815162000338620003328262000542565b6200050e565b915081818352602084019350602081019050838560208402820111156200035e57600080fd5b60005b8381101562000392578162000377888262000419565b84526020840193506020830192505060018101905062000361565b5050505092915050565b600082601f830112620003ae57600080fd5b8151620003c5620003bf8262000571565b6200050e565b9150818183526020840193506020810190508360005b838110156200040f5781518601620003f4888262000447565b845260208401935060208301925050600181019050620003db565b5050505092915050565b6000815190506200042a816200061c565b92915050565b600081519050620004418162000636565b92915050565b6000606082840312156200045a57600080fd5b6200046660606200050e565b905060006200047884828501620002f8565b60008301525060206200048e8482850162000430565b602083015250604082015167ffffffffffffffff811115620004af57600080fd5b620004bd848285016200030f565b60408301525092915050565b600060208284031215620004dc57600080fd5b600082015167ffffffffffffffff811115620004f757600080fd5b62000505848285016200039c565b91505092915050565b6000604051905081810181811067ffffffffffffffff8211171562000538576200053762000600565b5b8060405250919050565b600067ffffffffffffffff82111562000560576200055f62000600565b5b602082029050602081019050919050565b600067ffffffffffffffff8211156200058f576200058e62000600565b5b602082029050602081019050919050565b6000620005ad82620005e0565b9050919050565b60007fffffffff0000000000000000000000000000000000000000000000000000000082169050919050565b600073ffffffffffffffffffffffffffffffffffffffff82169050919050565bfe5b6200060d81620005a0565b81146200061957600080fd5b50565b6200062781620005b4565b81146200063357600080fd5b50565b600381106200064457600080fd5b50565b61579980620006576000396000f3fe60806040523480156200001157600080fd5b5060043610620000a05760003560e01c80638da5cb5b116200006f5780638da5cb5b146200013d57806393e12e7a146200015f5780639933591c146200017f578063af2ee45614620001a1578063f2fde38b14620001d857620000a0565b80631a08afd314620000a557806328fb4dd214620000db57806355196bd91462000111578063715018a61462000131575b600080fd5b620000c36004803603810190620000bd919062000bde565b620001f8565b604051620000d291906200114e565b60405180910390f35b620000f96004803603810190620000f3919062000c60565b62000218565b604051620001089190620010b3565b60405180910390f35b6200012f600480360381019062000129919062000bde565b62000258565b005b6200013b62000367565b005b62000147620004f0565b604051620001569190620010b3565b60405180910390f35b6200017d600480360381019062000177919062000c0a565b62000519565b005b6200018962000902565b604051620001989190620010b3565b60405180910390f35b620001bf6004803603810190620001b9919062000c60565b62000928565b604051620001cf929190620010ed565b60405180910390f35b620001f66004803603810190620001f0919062000bde565b6200098a565b005b60036020528060005260406000206000915054906101000a900460ff1681565b600281815481106200022957600080fd5b906000526020600020016000915054906101000a900473ffffffffffffffffffffffffffffffffffffffff1681565b6200026262000b9a565b73ffffffffffffffffffffffffffffffffffffffff1660008054906101000a900473ffffffffffffffffffffffffffffffffffffffff1673ffffffffffffffffffffffffffffffffffffffff161462000323576040517f08c379a00000000000000000000000000000000000000000000000000000000081526004018080602001828103825260208152602001807f4f776e61626c653a2063616c6c6572206973206e6f7420746865206f776e657281525060200191505060405180910390fd5b80600160006101000a81548173ffffffffffffffffffffffffffffffffffffffff021916908373ffffffffffffffffffffffffffffffffffffffff16021790555050565b6200037162000b9a565b73ffffffffffffffffffffffffffffffffffffffff1660008054906101000a900473ffffffffffffffffffffffffffffffffffffffff1673ffffffffffffffffffffffffffffffffffffffff161462000432576040517f08c379a00000000000000000000000000000000000000000000000000000000081526004018080602001828103825260208152602001807f4f776e61626c653a2063616c6c6572206973206e6f7420746865206f776e657281525060200191505060405180910390fd5b600073ffffffffffffffffffffffffffffffffffffffff1660008054906101000a900473ffffffffffffffffffffffffffffffffffffffff1673ffffffffffffffffffffffffffffffffffffffff167f8be0079c531659141344cd1fd0a4f28419497f9722a3daafe3b4186f6b6457e060405160405180910390a360008060006101000a81548173ffffffffffffffffffffffffffffffffffffffff021916908373ffffffffffffffffffffffffffffffffffffffff160217905550565b60008060009054906101000a900473ffffffffffffffffffffffffffffffffffffffff16905090565b6200052362000b9a565b73ffffffffffffffffffffffffffffffffffffffff1660008054906101000a900473ffffffffffffffffffffffffffffffffffffffff1673ffffffffffffffffffffffffffffffffffffffff1614620005e4576040517f08c379a00000000000000000000000000000000000000000000000000000000081526004018080602001828103825260208152602001807f4f776e61626c653a2063616c6c6572206973206e6f7420746865206f776e657281525060200191505060405180910390fd5b6000600430604051620005f79062000ba2565b620006049291906200111a565b604051809103906000f08015801562000621573d6000803e3d6000fd5b50905060008190508073ffffffffffffffffffffffffffffffffffffffff1663df115cb2866040518263ffffffff1660e01b8152600401620006649190620010b3565b600060405180830381600087803b1580156200067f57600080fd5b505af115801562000694573d6000803e3d6000fd5b505050508073ffffffffffffffffffffffffffffffffffffffff16636c6ed9e2846040518263ffffffff1660e01b8152600401620006d39190620010b3565b600060405180830381600087803b158015620006ee57600080fd5b505af115801562000703573d6000803e3d6000fd5b505050508073ffffffffffffffffffffffffffffffffffffffff166354208a2f856040518263ffffffff1660e01b8152600401620007429190620010b3565b600060405180830381600087803b1580156200075d57600080fd5b505af115801562000772573d6000803e3d6000fd5b505050508073ffffffffffffffffffffffffffffffffffffffff1663f2fde38b600160009054906101000a900473ffffffffffffffffffffffffffffffffffffffff166040518263ffffffff1660e01b8152600401620007d39190620010b3565b600060405180830381600087803b158015620007ee57600080fd5b505af115801562000803573d6000803e3d6000fd5b505050506002829080600181540180825580915050600190039060005260206000200160009091909190916101000a81548173ffffffffffffffffffffffffffffffffffffffff021916908373ffffffffffffffffffffffffffffffffffffffff1602179055506001600360008473ffffffffffffffffffffffffffffffffffffffff1673ffffffffffffffffffffffffffffffffffffffff16815260200190815260200160002060006101000a81548160ff0219169083151502179055507fd4751d882ce3a4eab04fc8d1b33792536e48979816123dd418de92d5e67895d782604051620008f39190620010d0565b60405180910390a15050505050565b600160009054906101000a900473ffffffffffffffffffffffffffffffffffffffff1681565b600481815481106200093957600080fd5b90600052602060002090600202016000915090508060000160009054906101000a900473ffffffffffffffffffffffffffffffffffffffff16908060000160149054906101000a900460ff16905082565b6200099462000b9a565b73ffffffffffffffffffffffffffffffffffffffff1660008054906101000a900473ffffffffffffffffffffffffffffffffffffffff1673ffffffffffffffffffffffffffffffffffffffff161462000a55576040517f08c379a00000000000000000000000000000000000000000000000000000000081526004018080602001828103825260208152602001807f4f776e61626c653a2063616c6c6572206973206e6f7420746865206f776e657281525060200191505060405180910390fd5b600073ffffffffffffffffffffffffffffffffffffffff168173ffffffffffffffffffffffffffffffffffffffff16141562000add576040517f08c379a00000000000000000000000000000000000000000000000000000000081526004018080602001828103825260268152602001806200573e6026913960400191505060405180910390fd5b8073ffffffffffffffffffffffffffffffffffffffff1660008054906101000a900473ffffffffffffffffffffffffffffffffffffffff1673ffffffffffffffffffffffffffffffffffffffff167f8be0079c531659141344cd1fd0a4f28419497f9722a3daafe3b4186f6b6457e060405160405180910390a3806000806101000a81548173ffffffffffffffffffffffffffffffffffffffff021916908373ffffffffffffffffffffffffffffffffffffffff16021790555050565b600033905090565b61425980620014e583390190565b60008135905062000bc181620014b0565b92915050565b60008135905062000bd881620014ca565b92915050565b60006020828403121562000bf157600080fd5b600062000c018482850162000bb0565b91505092915050565b60008060006060848603121562000c2057600080fd5b600062000c308682870162000bb0565b935050602062000c438682870162000bb0565b925050604062000c568682870162000bb0565b9150509250925092565b60006020828403121562000c7357600080fd5b600062000c838482850162000bc7565b91505092915050565b600062000c9a838362001049565b905092915050565b62000cad81620012a6565b82525050565b62000cbe816200121b565b82525050565b62000ccf816200121b565b82525050565b600062000ce28262001195565b62000cee8185620011b8565b93508362000cfc846200116b565b600060011562000e0c575b8360016008038201101562000e0b57815462000d2e8862000d288362001314565b62001016565b60208801975062000d4a8862000d4483620013e6565b62001016565b60208801975062000d668862000d608362001404565b62001016565b60208801975062000d828862000d7c8362001332565b62001016565b60208801975062000d9e8862000d988362001350565b62001016565b60208801975062000dba8862000db4836200136e565b62001016565b60208801975062000dd68862000dd083620013aa565b62001016565b60208801975062000df28862000dec83620013c8565b62001016565b6020880197506001830192505060088101905062000d07565b5b60011562000f785781548482101562000e425762000e358862000e2f8362001314565b62001016565b6020880197506001820191505b8482101562000e6e5762000e618862000e5b83620013e6565b62001016565b6020880197506001820191505b8482101562000e9a5762000e8d8862000e878362001404565b62001016565b6020880197506001820191505b8482101562000ec65762000eb98862000eb38362001332565b62001016565b6020880197506001820191505b8482101562000ef25762000ee58862000edf8362001350565b62001016565b6020880197506001820191505b8482101562000f1e5762000f118862000f0b836200136e565b62001016565b6020880197506001820191505b8482101562000f4a5762000f3d8862000f3783620013aa565b62001016565b6020880197506001820191505b8482101562000f765762000f698862000f6383620013c8565b62001016565b6020880197506001820191505b505b8694505050505092915050565b600062000f9282620011a0565b62000f9e8185620011c9565b93508360208202850162000fb28562001180565b8060005b8581101562000ff35784840389528162000fd1858262000c8c565b945062000fde83620011ab565b925060208a0199505060018101905062000fb6565b50829750879550505050505092915050565b62001010816200122f565b82525050565b62001021816200123b565b82525050565b6200103281620012ba565b82525050565b6200104381620012ba565b82525050565b60006060830160008084015490506200106281620012f6565b62001071600087018262000cb3565b506200107d816200138c565b6200108c602087018262001027565b50600184018583036040870152620010a5838262000cd5565b925050819250505092915050565b6000602082019050620010ca600083018462000cc4565b92915050565b6000602082019050620010e7600083018462000ca2565b92915050565b600060408201905062001104600083018562000cc4565b62001113602083018462001038565b9392505050565b6000604082019050818103600083015262001136818562000f85565b905062001147602083018462000cc4565b9392505050565b600060208201905062001165600083018462001005565b92915050565b60008190508160005260206000209050919050565b60008190508160005260206000209050919050565b600081549050919050565b600081549050919050565b6000600282019050919050565b600082825260208201905092915050565b600082825260208201905092915050565b600073ffffffffffffffffffffffffffffffffffffffff82169050919050565b6000620012078262001424565b9050919050565b600060ff82169050919050565b600062001228826200127c565b9050919050565b60008115159050919050565b60007fffffffff0000000000000000000000000000000000000000000000000000000082169050919050565b6000819050620012778262001499565b919050565b600073ffffffffffffffffffffffffffffffffffffffff82169050919050565b6000819050919050565b6000620012b382620012ce565b9050919050565b6000620012c78262001267565b9050919050565b6000620012db82620012e2565b9050919050565b6000620012ef826200127c565b9050919050565b60006200130d620013078362001431565b620011da565b9050919050565b60006200132b620013258362001431565b620011fa565b9050919050565b60006200134962001343836200148c565b620011fa565b9050919050565b60006200136762001361836200143e565b620011fa565b9050919050565b6000620013856200137f836200144b565b620011fa565b9050919050565b6000620013a36200139d836200144b565b6200120e565b9050919050565b6000620013c1620013bb8362001458565b620011fa565b9050919050565b6000620013df620013d98362001465565b620011fa565b9050919050565b6000620013fd620013f78362001472565b620011fa565b9050919050565b60006200141b62001415836200147f565b620011fa565b9050919050565bfe5b60008160e01b9050919050565b60008160001c9050919050565b60008160801c9050919050565b60008160a01c9050919050565b60008160c01c9050919050565b60008160e01c9050919050565b60008160201c9050919050565b60008160401c9050919050565b60008160601c9050919050565b60038110620014ad57620014ac62001422565b5b50565b620014bb816200121b565b8114620014c757600080fd5b50565b620014d5816200129c565b8114620014e157600080fd5b5056fe608060405260405162004259380380620042598339818101604052810190620000299190620015f0565b6200008e8260008067ffffffffffffffff811180156200004857600080fd5b506040519080825280601f01601f1916602001820160405280156200007c5781602001600182028036833780820191505090505b50620002f660201b620001771760201c565b620000a481620004a060201b620002fb1760201c565b6000620000bb6200057f60201b620003d21760201c565b905060018160030160007f01ffc9a7000000000000000000000000000000000000000000000000000000007bffffffffffffffffffffffffffffffffffffffffffffffffffffffff19167bffffffffffffffffffffffffffffffffffffffffffffffffffffffff1916815260200190815260200160002060006101000a81548160ff02191690831515021790555060018160030160007f1f931c1c000000000000000000000000000000000000000000000000000000007bffffffffffffffffffffffffffffffffffffffffffffffffffffffff19167bffffffffffffffffffffffffffffffffffffffffffffffffffffffff1916815260200190815260200160002060006101000a81548160ff02191690831515021790555060018160030160007f48e2b093000000000000000000000000000000000000000000000000000000007bffffffffffffffffffffffffffffffffffffffffffffffffffffffff19167bffffffffffffffffffffffffffffffffffffffffffffffffffffffff1916815260200190815260200160002060006101000a81548160ff02191690831515021790555060018160030160007f7f5828d0000000000000000000000000000000000000000000000000000000007bffffffffffffffffffffffffffffffffffffffffffffffffffffffff19167bffffffffffffffffffffffffffffffffffffffffffffffffffffffff1916815260200190815260200160002060006101000a81548160ff02191690831515021790555050505062002341565b6000620003086200057f60201b60201c565b905060008160020160009054906101000a900461ffff1661ffff1690506000819050600080600883816200033857fe5b0611156200036457836001016000600884816200035157fe5b0481526020019081526020016000205490505b60005b8751811015620003e457620003ce83838a84815181106200038457fe5b6020026020010151600001518b85815181106200039d57fe5b6020026020010151602001518c8681518110620003b657fe5b602002602001015160400151620005ac60201b60201c565b8093508194505050808060010191505062000367565b508282146200040d57818460020160006101000a81548161ffff021916908361ffff1602179055505b6000600883816200041a57fe5b061115620004485780846001016000600885816200043457fe5b048152602001908152602001600020819055505b7f8faa70878671ccd212d20771b795c50af8fd3ff6cf27f4bde57e5d4de0aeb6738787876040516200047d9392919062001e81565b60405180910390a16200049786866200119a60201b60201c565b50505050505050565b6000620004b26200057f60201b60201c565b905060008160040160009054906101000a900473ffffffffffffffffffffffffffffffffffffffff169050828260040160006101000a81548173ffffffffffffffffffffffffffffffffffffffff021916908373ffffffffffffffffffffffffffffffffffffffff1602179055508273ffffffffffffffffffffffffffffffffffffffff168173ffffffffffffffffffffffffffffffffffffffff167f8be0079c531659141344cd1fd0a4f28419497f9722a3daafe3b4186f6b6457e060405160405180910390a3505050565b6000807fc8fcad8db84d3cc18b4c41d551ea0ee66dd599cde068d998e57d5e09332c131c90508091505090565b6000806000620005c16200057f60201b60201c565b905060008451116200060a576040517f08c379a0000000000000000000000000000000000000000000000000000000008152600401620006019062001f34565b60405180910390fd5b600060028111156200061857fe5b8560028111156200062557fe5b1415620008e557600073ffffffffffffffffffffffffffffffffffffffff168673ffffffffffffffffffffffffffffffffffffffff1614156200069f576040517f08c379a0000000000000000000000000000000000000000000000000000000008152600401620006969062001f9a565b60405180910390fd5b620006ca86604051806060016040528060248152602001620041e560249139620013ca60201b60201c565b60005b8451811015620008de576000858281518110620006e657fe5b602002602001015190506000836000016000837bffffffffffffffffffffffffffffffffffffffffffffffffffffffff19167bffffffffffffffffffffffffffffffffffffffffffffffffffffffff19168152602001908152602001600020549050600073ffffffffffffffffffffffffffffffffffffffff168160601c73ffffffffffffffffffffffffffffffffffffffff1614620007bd576040517f08c379a0000000000000000000000000000000000000000000000000000000008152600401620007b49062002022565b60405180910390fd5b8a60001b8960601b6bffffffffffffffffffffffff191617846000016000847bffffffffffffffffffffffffffffffffffffffffffffffffffffffff19167bffffffffffffffffffffffffffffffffffffffffffffffffffffffff19168152602001908152602001600020819055506000602060088d816200083b57fe5b0602905080837bffffffffffffffffffffffffffffffffffffffffffffffffffffffff1916901c817fffffffff0000000000000000000000000000000000000000000000000000000060001b901c198c16179a5060e0811415620008c5578a85600101600060088f81620008ab57fe5b048152602001908152602001600020819055506000801b9a505b8b806001019c50505050508080600101915050620006cd565b5062001189565b60016002811115620008f357fe5b8560028111156200090057fe5b141562000c1757600073ffffffffffffffffffffffffffffffffffffffff168673ffffffffffffffffffffffffffffffffffffffff1614156200097a576040517f08c379a0000000000000000000000000000000000000000000000000000000008152600401620009719062001fbc565b60405180910390fd5b620009a5866040518060600160405280602881526020016200423160289139620013ca60201b60201c565b60005b845181101562000c10576000858281518110620009c157fe5b602002602001015190506000836000016000837bffffffffffffffffffffffffffffffffffffffffffffffffffffffff19167bffffffffffffffffffffffffffffffffffffffffffffffffffffffff1916815260200190815260200160002054905060008160601c90503073ffffffffffffffffffffffffffffffffffffffff168173ffffffffffffffffffffffffffffffffffffffff16141562000a9d576040517f08c379a000000000000000000000000000000000000000000000000000000000815260040162000a949062002088565b60405180910390fd5b8973ffffffffffffffffffffffffffffffffffffffff168173ffffffffffffffffffffffffffffffffffffffff16141562000b0f576040517f08c379a000000000000000000000000000000000000000000000000000000000815260040162000b069062002044565b60405180910390fd5b600073ffffffffffffffffffffffffffffffffffffffff168173ffffffffffffffffffffffffffffffffffffffff16141562000b82576040517f08c379a000000000000000000000000000000000000000000000000000000000815260040162000b7990620020aa565b60405180910390fd5b8960601b6bffffffffffffffffffffffff19166bffffffffffffffffffffffff60001b831617856000016000857bffffffffffffffffffffffffffffffffffffffffffffffffffffffff19167bffffffffffffffffffffffffffffffffffffffffffffffffffffffff19168152602001908152602001600020819055505050508080600101915050620009a8565b5062001188565b60028081111562000c2457fe5b85600281111562000c3157fe5b14156200114a57600073ffffffffffffffffffffffffffffffffffffffff168673ffffffffffffffffffffffffffffffffffffffff161462000caa576040517f08c379a000000000000000000000000000000000000000000000000000000000815260040162000ca19062002066565b60405180910390fd5b60006008898162000cb757fe5b0490506000600160088b8162000cc957fe5b0603905060005b865181101562001136576000801b8a141562000d0c57828060019003935050836001016000848152602001908152602001600020549950600791505b6000806000808a858151811062000d1f57fe5b602002602001015190506000886000016000837bffffffffffffffffffffffffffffffffffffffffffffffffffffffff19167bffffffffffffffffffffffffffffffffffffffffffffffffffffffff19168152602001908152602001600020549050600073ffffffffffffffffffffffffffffffffffffffff168160601c73ffffffffffffffffffffffffffffffffffffffff16141562000df7576040517f08c379a000000000000000000000000000000000000000000000000000000000815260040162000dee9062001f56565b60405180910390fd5b3073ffffffffffffffffffffffffffffffffffffffff168160601c73ffffffffffffffffffffffffffffffffffffffff16141562000e6c576040517f08c379a000000000000000000000000000000000000000000000000000000000815260040162000e639062002000565b60405180910390fd5b602087028f901b9450817bffffffffffffffffffffffffffffffffffffffffffffffffffffffff1916857bffffffffffffffffffffffffffffffffffffffffffffffffffffffff19161462000f8957886000016000867bffffffffffffffffffffffffffffffffffffffffffffffffffffffff19167bffffffffffffffffffffffffffffffffffffffffffffffffffffffff19168152602001908152602001600020546bffffffffffffffffffffffff19166bffffffffffffffffffffffff60001b821617896000016000877bffffffffffffffffffffffffffffffffffffffffffffffffffffffff19167bffffffffffffffffffffffffffffffffffffffffffffffffffffffff19168152602001908152602001600020819055505b886000016000837bffffffffffffffffffffffffffffffffffffffffffffffffffffffff19167bffffffffffffffffffffffffffffffffffffffffffffffffffffffff191681526020019081526020016000206000905560008160001c61ffff1690506008818162000ff757fe5b0494506020600882816200100757fe5b06029350505050858214620010a157600087600101600084815260200190815260200160002054905081847bffffffffffffffffffffffffffffffffffffffffffffffffffffffff1916901c827fffffffff0000000000000000000000000000000000000000000000000000000060001b901c198216179050808860010160008581526020019081526020016000208190555050620010f2565b80837bffffffffffffffffffffffffffffffffffffffffffffffffffffffff1916901c817fffffffff0000000000000000000000000000000000000000000000000000000060001b901c198e16179c505b60008514156200111c57866001016000878152602001908152602001600020600090556000801b9c505b848060019003955050505050808060010191505062000cd0565b506001816008840201019950505062001187565b6040517f08c379a00000000000000000000000000000000000000000000000000000000081526004016200117e9062001f78565b60405180910390fd5b5b5b878792509250509550959350505050565b600073ffffffffffffffffffffffffffffffffffffffff168273ffffffffffffffffffffffffffffffffffffffff1614156200121d57600081511462001217576040517f08c379a00000000000000000000000000000000000000000000000000000000081526004016200120e9062001ef0565b60405180910390fd5b620013c6565b600081511162001264576040517f08c379a00000000000000000000000000000000000000000000000000000000081526004016200125b9062001fde565b60405180910390fd5b3073ffffffffffffffffffffffffffffffffffffffff168273ffffffffffffffffffffffffffffffffffffffff1614620012c457620012c3826040518060600160405280602881526020016200420960289139620013ca60201b60201c565b5b600060608373ffffffffffffffffffffffffffffffffffffffff1683604051620012ef919062001e68565b600060405180830381855af49150503d80600081146200132c576040519150601f19603f3d011682016040523d82523d6000602084013e62001331565b606091505b509150915081620013c3576000815111156200138657806040517f08c379a00000000000000000000000000000000000000000000000000000000081526004016200137d919062001ecc565b60405180910390fd5b6040517f08c379a0000000000000000000000000000000000000000000000000000000008152600401620013ba9062001f12565b60405180910390fd5b50505b5050565b6000823b905060008111829062001419576040517f08c379a000000000000000000000000000000000000000000000000000000000815260040162001410919062001ecc565b60405180910390fd5b50505050565b6000815190506200143081620022fc565b92915050565b600082601f8301126200144857600080fd5b81516200145f620014598262002100565b620020cc565b915081818352602084019350602081019050838560208402820111156200148557600080fd5b60005b83811015620014b957816200149e888262001540565b84526020840193506020830192505060018101905062001488565b5050505092915050565b600082601f830112620014d557600080fd5b8151620014ec620014e6826200212f565b620020cc565b9150818183526020840193506020810190508360005b838110156200153657815186016200151b88826200156e565b84526020840193506020830192505060018101905062001502565b5050505092915050565b600081519050620015518162002316565b92915050565b600081519050620015688162002330565b92915050565b6000606082840312156200158157600080fd5b6200158d6060620020cc565b905060006200159f848285016200141f565b6000830152506020620015b58482850162001557565b602083015250604082015167ffffffffffffffff811115620015d657600080fd5b620015e48482850162001436565b60408301525092915050565b600080604083850312156200160457600080fd5b600083015167ffffffffffffffff8111156200161f57600080fd5b6200162d85828601620014c3565b925050602062001640858286016200141f565b9150509250929050565b600062001658838362001787565b60208301905092915050565b600062001672838362001e12565b905092915050565b620016858162002213565b82525050565b620016968162002213565b82525050565b6000620016a9826200217e565b620016b58185620021c4565b9350620016c2836200215e565b8060005b83811015620016f9578151620016dd88826200164a565b9750620016ea83620021aa565b925050600181019050620016c6565b5085935050505092915050565b6000620017138262002189565b6200171f8185620021d5565b93508360208202850162001733856200216e565b8060005b8581101562001775578484038952815162001753858262001664565b94506200176083620021b7565b925060208a0199505060018101905062001737565b50829750879550505050505092915050565b620017928162002227565b82525050565b6000620017a58262002194565b620017b18185620021e6565b9350620017c38185602086016200229c565b620017ce81620022d4565b840191505092915050565b6000620017e68262002194565b620017f28185620021f7565b9350620018048185602086016200229c565b80840191505092915050565b6200181b8162002288565b82525050565b60006200182e826200219f565b6200183a818562002202565b93506200184c8185602086016200229c565b6200185781620022d4565b840191505092915050565b600062001871603c8362002202565b91507f4c69624469616d6f6e644375743a205f696e697420697320616464726573732860008301527f3029206275745f63616c6c64617461206973206e6f7420656d707479000000006020830152604082019050919050565b6000620018d960268362002202565b91507f4c69624469616d6f6e644375743a205f696e69742066756e6374696f6e20726560008301527f76657274656400000000000000000000000000000000000000000000000000006020830152604082019050919050565b600062001941602b8362002202565b91507f4c69624469616d6f6e644375743a204e6f2073656c6563746f727320696e206660008301527f6163657420746f206375740000000000000000000000000000000000000000006020830152604082019050919050565b6000620019a960378362002202565b91507f4c69624469616d6f6e644375743a2043616e27742072656d6f76652066756e6360008301527f74696f6e207468617420646f65736e27742065786973740000000000000000006020830152604082019050919050565b600062001a1160278362002202565b91507f4c69624469616d6f6e644375743a20496e636f7272656374204661636574437560008301527f74416374696f6e000000000000000000000000000000000000000000000000006020830152604082019050919050565b600062001a79602c8362002202565b91507f4c69624469616d6f6e644375743a204164642066616365742063616e2774206260008301527f65206164647265737328302900000000000000000000000000000000000000006020830152604082019050919050565b600062001ae160308362002202565b91507f4c69624469616d6f6e644375743a205265706c6163652066616365742063616e60008301527f27742062652061646472657373283029000000000000000000000000000000006020830152604082019050919050565b600062001b49603d8362002202565b91507f4c69624469616d6f6e644375743a205f63616c6c6461746120697320656d707460008301527f7920627574205f696e6974206973206e6f7420616464726573732830290000006020830152604082019050919050565b600062001bb1602e8362002202565b91507f4c69624469616d6f6e644375743a2043616e27742072656d6f766520696d6d7560008301527f7461626c652066756e6374696f6e0000000000000000000000000000000000006020830152604082019050919050565b600062001c1960358362002202565b91507f4c69624469616d6f6e644375743a2043616e2774206164642066756e6374696f60008301527f6e207468617420616c72656164792065786973747300000000000000000000006020830152604082019050919050565b600062001c8160388362002202565b91507f4c69624469616d6f6e644375743a2043616e2774207265706c6163652066756e60008301527f6374696f6e20776974682073616d652066756e6374696f6e00000000000000006020830152604082019050919050565b600062001ce960368362002202565b91507f4c69624469616d6f6e644375743a2052656d6f7665206661636574206164647260008301527f657373206d7573742062652061646472657373283029000000000000000000006020830152604082019050919050565b600062001d51602f8362002202565b91507f4c69624469616d6f6e644375743a2043616e2774207265706c61636520696d6d60008301527f757461626c652066756e6374696f6e00000000000000000000000000000000006020830152604082019050919050565b600062001db960388362002202565b91507f4c69624469616d6f6e644375743a2043616e2774207265706c6163652066756e60008301527f6374696f6e207468617420646f65736e277420657869737400000000000000006020830152604082019050919050565b600060608301600083015162001e2c60008601826200167a565b50602083015162001e41602086018262001810565b506040830151848203604086015262001e5b82826200169c565b9150508091505092915050565b600062001e768284620017d9565b915081905092915050565b6000606082019050818103600083015262001e9d818662001706565b905062001eae60208301856200168b565b818103604083015262001ec2818462001798565b9050949350505050565b6000602082019050818103600083015262001ee8818462001821565b905092915050565b6000602082019050818103600083015262001f0b8162001862565b9050919050565b6000602082019050818103600083015262001f2d81620018ca565b9050919050565b6000602082019050818103600083015262001f4f8162001932565b9050919050565b6000602082019050818103600083015262001f71816200199a565b9050919050565b6000602082019050818103600083015262001f938162001a02565b9050919050565b6000602082019050818103600083015262001fb58162001a6a565b9050919050565b6000602082019050818103600083015262001fd78162001ad2565b9050919050565b6000602082019050818103600083015262001ff98162001b3a565b9050919050565b600060208201905081810360008301526200201b8162001ba2565b9050919050565b600060208201905081810360008301526200203d8162001c0a565b9050919050565b600060208201905081810360008301526200205f8162001c72565b9050919050565b60006020820190508181036000830152620020818162001cda565b9050919050565b60006020820190508181036000830152620020a38162001d42565b9050919050565b60006020820190508181036000830152620020c58162001daa565b9050919050565b6000604051905081810181811067ffffffffffffffff82111715620020f657620020f5620022d2565b5b8060405250919050565b600067ffffffffffffffff8211156200211e576200211d620022d2565b5b602082029050602081019050919050565b600067ffffffffffffffff8211156200214d576200214c620022d2565b5b602082029050602081019050919050565b6000819050602082019050919050565b6000819050602082019050919050565b600081519050919050565b600081519050919050565b600081519050919050565b600081519050919050565b6000602082019050919050565b6000602082019050919050565b600082825260208201905092915050565b600082825260208201905092915050565b600082825260208201905092915050565b600081905092915050565b600082825260208201905092915050565b6000620022208262002268565b9050919050565b60007fffffffff0000000000000000000000000000000000000000000000000000000082169050919050565b60008190506200226382620022e5565b919050565b600073ffffffffffffffffffffffffffffffffffffffff82169050919050565b6000620022958262002253565b9050919050565b60005b83811015620022bc5780820151818401526020810190506200229f565b83811115620022cc576000848401525b50505050565bfe5b6000601f19601f8301169050919050565b60038110620022f957620022f8620022d2565b5b50565b620023078162002213565b81146200231357600080fd5b50565b620023218162002227565b81146200232d57600080fd5b50565b600381106200233e57600080fd5b50565b611e9480620023516000396000f3fe60806040523661000b57005b6000807fc8fcad8db84d3cc18b4c41d551ea0ee66dd599cde068d998e57d5e09332c131c9050809150600082600001600080357fffffffff00000000000000000000000000000000000000000000000000000000167bffffffffffffffffffffffffffffffffffffffffffffffffffffffff19167bffffffffffffffffffffffffffffffffffffffffffffffffffffffff191681526020019081526020016000205460601c9050600073ffffffffffffffffffffffffffffffffffffffff168173ffffffffffffffffffffffffffffffffffffffff161415610122576040517f08c379a000000000000000000000000000000000000000000000000000000000815260040161011990611b58565b60405180910390fd5b36600080373033141561015057600080366000845af43d6000803e806000811461014b573d6000f35b3d6000fd5b333652600080602036016000845af43d6000803e8060008114610172573d6000f35b3d6000fd5b60006101816103d2565b905060008160020160009054906101000a900461ffff1661ffff1690506000819050600080600883816101b057fe5b0611156101da57836001016000600884816101c757fe5b0481526020019081526020016000205490505b60005b875181101561024d5761023883838a84815181106101f757fe5b6020026020010151600001518b858151811061020f57fe5b6020026020010151602001518c868151811061022757fe5b6020026020010151604001516103ff565b809350819450505080806001019150506101dd565b5082821461027557818460020160006101000a81548161ffff021916908361ffff1602179055505b60006008838161028157fe5b0611156102ad57808460010160006008858161029957fe5b048152602001908152602001600020819055505b7f8faa70878671ccd212d20771b795c50af8fd3ff6cf27f4bde57e5d4de0aeb6738787876040516102e093929190611a11565b60405180910390a16102f28686610f92565b50505050505050565b60006103056103d2565b905060008160040160009054906101000a900473ffffffffffffffffffffffffffffffffffffffff169050828260040160006101000a81548173ffffffffffffffffffffffffffffffffffffffff021916908373ffffffffffffffffffffffffffffffffffffffff1602179055508273ffffffffffffffffffffffffffffffffffffffff168173ffffffffffffffffffffffffffffffffffffffff167f8be0079c531659141344cd1fd0a4f28419497f9722a3daafe3b4186f6b6457e060405160405180910390a3505050565b6000807fc8fcad8db84d3cc18b4c41d551ea0ee66dd599cde068d998e57d5e09332c131c90508091505090565b600080600061040c6103d2565b90506000845111610452576040517f08c379a000000000000000000000000000000000000000000000000000000000815260040161044990611ab8565b60405180910390fd5b6000600281111561045f57fe5b85600281111561046b57fe5b141561071457600073ffffffffffffffffffffffffffffffffffffffff168673ffffffffffffffffffffffffffffffffffffffff1614156104e1576040517f08c379a00000000000000000000000000000000000000000000000000000000081526004016104d890611b18565b60405180910390fd5b61050386604051806060016040528060248152602001611deb602491396111a6565b60005b845181101561070e57600085828151811061051d57fe5b602002602001015190506000836000016000837bffffffffffffffffffffffffffffffffffffffffffffffffffffffff19167bffffffffffffffffffffffffffffffffffffffffffffffffffffffff19168152602001908152602001600020549050600073ffffffffffffffffffffffffffffffffffffffff168160601c73ffffffffffffffffffffffffffffffffffffffff16146105f1576040517f08c379a00000000000000000000000000000000000000000000000000000000081526004016105e890611bb8565b60405180910390fd5b8a60001b8960601b6bffffffffffffffffffffffff191617846000016000847bffffffffffffffffffffffffffffffffffffffffffffffffffffffff19167bffffffffffffffffffffffffffffffffffffffffffffffffffffffff19168152602001908152602001600020819055506000602060088d8161066e57fe5b0602905080837bffffffffffffffffffffffffffffffffffffffffffffffffffffffff1916901c817fffffffff0000000000000000000000000000000000000000000000000000000060001b901c198c16179a5060e08114156106f6578a85600101600060088f816106dc57fe5b048152602001908152602001600020819055506000801b9a505b8b806001019c50505050508080600101915050610506565b50610f81565b6001600281111561072157fe5b85600281111561072d57fe5b1415610a2a57600073ffffffffffffffffffffffffffffffffffffffff168673ffffffffffffffffffffffffffffffffffffffff1614156107a3576040517f08c379a000000000000000000000000000000000000000000000000000000000815260040161079a90611b38565b60405180910390fd5b6107c586604051806060016040528060288152602001611e37602891396111a6565b60005b8451811015610a245760008582815181106107df57fe5b602002602001015190506000836000016000837bffffffffffffffffffffffffffffffffffffffffffffffffffffffff19167bffffffffffffffffffffffffffffffffffffffffffffffffffffffff1916815260200190815260200160002054905060008160601c90503073ffffffffffffffffffffffffffffffffffffffff168173ffffffffffffffffffffffffffffffffffffffff1614156108b8576040517f08c379a00000000000000000000000000000000000000000000000000000000081526004016108af90611c18565b60405180910390fd5b8973ffffffffffffffffffffffffffffffffffffffff168173ffffffffffffffffffffffffffffffffffffffff161415610927576040517f08c379a000000000000000000000000000000000000000000000000000000000815260040161091e90611bd8565b60405180910390fd5b600073ffffffffffffffffffffffffffffffffffffffff168173ffffffffffffffffffffffffffffffffffffffff161415610997576040517f08c379a000000000000000000000000000000000000000000000000000000000815260040161098e90611c38565b60405180910390fd5b8960601b6bffffffffffffffffffffffff19166bffffffffffffffffffffffff60001b831617856000016000857bffffffffffffffffffffffffffffffffffffffffffffffffffffffff19167bffffffffffffffffffffffffffffffffffffffffffffffffffffffff191681526020019081526020016000208190555050505080806001019150506107c8565b50610f80565b600280811115610a3657fe5b856002811115610a4257fe5b1415610f4457600073ffffffffffffffffffffffffffffffffffffffff168673ffffffffffffffffffffffffffffffffffffffff1614610ab7576040517f08c379a0000000000000000000000000000000000000000000000000000000008152600401610aae90611bf8565b60405180910390fd5b600060088981610ac357fe5b0490506000600160088b81610ad457fe5b0603905060005b8651811015610f31576000801b8a1415610b1557828060019003935050836001016000848152602001908152602001600020549950600791505b6000806000808a8581518110610b2757fe5b602002602001015190506000886000016000837bffffffffffffffffffffffffffffffffffffffffffffffffffffffff19167bffffffffffffffffffffffffffffffffffffffffffffffffffffffff19168152602001908152602001600020549050600073ffffffffffffffffffffffffffffffffffffffff168160601c73ffffffffffffffffffffffffffffffffffffffff161415610bfc576040517f08c379a0000000000000000000000000000000000000000000000000000000008152600401610bf390611ad8565b60405180910390fd5b3073ffffffffffffffffffffffffffffffffffffffff168160601c73ffffffffffffffffffffffffffffffffffffffff161415610c6e576040517f08c379a0000000000000000000000000000000000000000000000000000000008152600401610c6590611b98565b60405180910390fd5b602087028f901b9450817bffffffffffffffffffffffffffffffffffffffffffffffffffffffff1916857bffffffffffffffffffffffffffffffffffffffffffffffffffffffff191614610d8a57886000016000867bffffffffffffffffffffffffffffffffffffffffffffffffffffffff19167bffffffffffffffffffffffffffffffffffffffffffffffffffffffff19168152602001908152602001600020546bffffffffffffffffffffffff19166bffffffffffffffffffffffff60001b821617896000016000877bffffffffffffffffffffffffffffffffffffffffffffffffffffffff19167bffffffffffffffffffffffffffffffffffffffffffffffffffffffff19168152602001908152602001600020819055505b886000016000837bffffffffffffffffffffffffffffffffffffffffffffffffffffffff19167bffffffffffffffffffffffffffffffffffffffffffffffffffffffff191681526020019081526020016000206000905560008160001c61ffff16905060088181610df757fe5b049450602060088281610e0657fe5b06029350505050858214610e9e57600087600101600084815260200190815260200160002054905081847bffffffffffffffffffffffffffffffffffffffffffffffffffffffff1916901c827fffffffff0000000000000000000000000000000000000000000000000000000060001b901c198216179050808860010160008581526020019081526020016000208190555050610eef565b80837bffffffffffffffffffffffffffffffffffffffffffffffffffffffff1916901c817fffffffff0000000000000000000000000000000000000000000000000000000060001b901c198e16179c505b6000851415610f1857866001016000878152602001908152602001600020600090556000801b9c505b8480600190039550505050508080600101915050610adb565b5060018160088402010199505050610f7f565b6040517f08c379a0000000000000000000000000000000000000000000000000000000008152600401610f7690611af8565b60405180910390fd5b5b5b878792509250509550959350505050565b600073ffffffffffffffffffffffffffffffffffffffff168273ffffffffffffffffffffffffffffffffffffffff16141561101057600081511461100b576040517f08c379a000000000000000000000000000000000000000000000000000000000815260040161100290611a78565b60405180910390fd5b6111a2565b6000815111611054576040517f08c379a000000000000000000000000000000000000000000000000000000000815260040161104b90611b78565b60405180910390fd5b3073ffffffffffffffffffffffffffffffffffffffff168273ffffffffffffffffffffffffffffffffffffffff16146110aa576110a982604051806060016040528060288152602001611e0f602891396111a6565b5b600060608373ffffffffffffffffffffffffffffffffffffffff16836040516110d391906119fa565b600060405180830381855af49150503d806000811461110e576040519150601f19603f3d011682016040523d82523d6000602084013e611113565b606091505b50915091508161119f5760008151111561116457806040517f08c379a000000000000000000000000000000000000000000000000000000000815260040161115b9190611a56565b60405180910390fd5b6040517f08c379a000000000000000000000000000000000000000000000000000000000815260040161119690611a98565b60405180910390fd5b50505b5050565b6000823b90506000811182906111f2576040517f08c379a00000000000000000000000000000000000000000000000000000000081526004016111e99190611a56565b60405180910390fd5b50505050565b60006112048383611315565b60208301905092915050565b600061121c83836119aa565b905092915050565b61122d81611d0d565b82525050565b61123c81611d0d565b82525050565b600061124d82611c78565b6112578185611cbe565b935061126283611c58565b8060005b8381101561129357815161127a88826111f8565b975061128583611ca4565b925050600181019050611266565b5085935050505092915050565b60006112ab82611c83565b6112b58185611ccf565b9350836020820285016112c785611c68565b8060005b8581101561130357848403895281516112e48582611210565b94506112ef83611cb1565b925060208a019950506001810190506112cb565b50829750879550505050505092915050565b61131e81611d1f565b82525050565b600061132f82611c8e565b6113398185611ce0565b9350611349818560208601611d90565b61135281611dc5565b840191505092915050565b600061136882611c8e565b6113728185611cf1565b9350611382818560208601611d90565b80840191505092915050565b61139781611d7e565b82525050565b60006113a882611c99565b6113b28185611cfc565b93506113c2818560208601611d90565b6113cb81611dc5565b840191505092915050565b60006113e3603c83611cfc565b91507f4c69624469616d6f6e644375743a205f696e697420697320616464726573732860008301527f3029206275745f63616c6c64617461206973206e6f7420656d707479000000006020830152604082019050919050565b6000611449602683611cfc565b91507f4c69624469616d6f6e644375743a205f696e69742066756e6374696f6e20726560008301527f76657274656400000000000000000000000000000000000000000000000000006020830152604082019050919050565b60006114af602b83611cfc565b91507f4c69624469616d6f6e644375743a204e6f2073656c6563746f727320696e206660008301527f6163657420746f206375740000000000000000000000000000000000000000006020830152604082019050919050565b6000611515603783611cfc565b91507f4c69624469616d6f6e644375743a2043616e27742072656d6f76652066756e6360008301527f74696f6e207468617420646f65736e27742065786973740000000000000000006020830152604082019050919050565b600061157b602783611cfc565b91507f4c69624469616d6f6e644375743a20496e636f7272656374204661636574437560008301527f74416374696f6e000000000000000000000000000000000000000000000000006020830152604082019050919050565b60006115e1602c83611cfc565b91507f4c69624469616d6f6e644375743a204164642066616365742063616e2774206260008301527f65206164647265737328302900000000000000000000000000000000000000006020830152604082019050919050565b6000611647603083611cfc565b91507f4c69624469616d6f6e644375743a205265706c6163652066616365742063616e60008301527f27742062652061646472657373283029000000000000000000000000000000006020830152604082019050919050565b60006116ad602083611cfc565b91507f4469616d6f6e643a2046756e6374696f6e20646f6573206e6f742065786973746000830152602082019050919050565b60006116ed603d83611cfc565b91507f4c69624469616d6f6e644375743a205f63616c6c6461746120697320656d707460008301527f7920627574205f696e6974206973206e6f7420616464726573732830290000006020830152604082019050919050565b6000611753602e83611cfc565b91507f4c69624469616d6f6e644375743a2043616e27742072656d6f766520696d6d7560008301527f7461626c652066756e6374696f6e0000000000000000000000000000000000006020830152604082019050919050565b60006117b9603583611cfc565b91507f4c69624469616d6f6e644375743a2043616e2774206164642066756e6374696f60008301527f6e207468617420616c72656164792065786973747300000000000000000000006020830152604082019050919050565b600061181f603883611cfc565b91507f4c69624469616d6f6e644375743a2043616e2774207265706c6163652066756e60008301527f6374696f6e20776974682073616d652066756e6374696f6e00000000000000006020830152604082019050919050565b6000611885603683611cfc565b91507f4c69624469616d6f6e644375743a2052656d6f7665206661636574206164647260008301527f657373206d7573742062652061646472657373283029000000000000000000006020830152604082019050919050565b60006118eb602f83611cfc565b91507f4c69624469616d6f6e644375743a2043616e2774207265706c61636520696d6d60008301527f757461626c652066756e6374696f6e00000000000000000000000000000000006020830152604082019050919050565b6000611951603883611cfc565b91507f4c69624469616d6f6e644375743a2043616e2774207265706c6163652066756e60008301527f6374696f6e207468617420646f65736e277420657869737400000000000000006020830152604082019050919050565b60006060830160008301516119c26000860182611224565b5060208301516119d5602086018261138e565b50604083015184820360408601526119ed8282611242565b9150508091505092915050565b6000611a06828461135d565b915081905092915050565b60006060820190508181036000830152611a2b81866112a0565b9050611a3a6020830185611233565b8181036040830152611a4c8184611324565b9050949350505050565b60006020820190508181036000830152611a70818461139d565b905092915050565b60006020820190508181036000830152611a91816113d6565b9050919050565b60006020820190508181036000830152611ab18161143c565b9050919050565b60006020820190508181036000830152611ad1816114a2565b9050919050565b60006020820190508181036000830152611af181611508565b9050919050565b60006020820190508181036000830152611b118161156e565b9050919050565b60006020820190508181036000830152611b31816115d4565b9050919050565b60006020820190508181036000830152611b518161163a565b9050919050565b60006020820190508181036000830152611b71816116a0565b9050919050565b60006020820190508181036000830152611b91816116e0565b9050919050565b60006020820190508181036000830152611bb181611746565b9050919050565b60006020820190508181036000830152611bd1816117ac565b9050919050565b60006020820190508181036000830152611bf181611812565b9050919050565b60006020820190508181036000830152611c1181611878565b9050919050565b60006020820190508181036000830152611c31816118de565b9050919050565b60006020820190508181036000830152611c5181611944565b9050919050565b6000819050602082019050919050565b6000819050602082019050919050565b600081519050919050565b600081519050919050565b600081519050919050565b600081519050919050565b6000602082019050919050565b6000602082019050919050565b600082825260208201905092915050565b600082825260208201905092915050565b600082825260208201905092915050565b600081905092915050565b600082825260208201905092915050565b6000611d1882611d5e565b9050919050565b60007fffffffff0000000000000000000000000000000000000000000000000000000082169050919050565b6000819050611d5982611dd6565b919050565b600073ffffffffffffffffffffffffffffffffffffffff82169050919050565b6000611d8982611d4b565b9050919050565b60005b83811015611dae578082015181840152602081019050611d93565b83811115611dbd576000848401525b50505050565bfe5b6000601f19601f8301169050919050565b60038110611de757611de6611dc3565b5b5056fe4c69624469616d6f6e644375743a2041646420666163657420686173206e6f20636f64654c69624469616d6f6e644375743a205f696e6974206164647265737320686173206e6f20636f64654c69624469616d6f6e644375743a205265706c61636520666163657420686173206e6f20636f6465a26469706673582212207979766dbff3e22f098fa100c3ae9d9601a7c561ee3f377e2e4248f122b50a5664736f6c634300070400334c69624469616d6f6e644375743a2041646420666163657420686173206e6f20636f64654c69624469616d6f6e644375743a205f696e6974206164647265737320686173206e6f20636f64654c69624469616d6f6e644375743a205265706c61636520666163657420686173206e6f20636f64654f776e61626c653a206e6577206f776e657220697320746865207a65726f2061646472657373a2646970667358221220568aeea14cc4384131013f80e944ca0e6845b14818f78d586f52b8fa7929d13a64736f6c63430007040033",
  "linkReferences": {},
  "deployedLinkReferences": {}
}