{
  "_format": "hh-sol-artifact-1",
  "contractName": "WithdrawBy",
  "sourceName": "contracts/contracts/09-WithdrawBypass/WithdrawBy.sol",
  "abi": [
    {
      "anonymous": false,
      "inputs": [
        {
          "indexed": true,
          "internalType": "bytes32",
          "name": "role",
          "type": "bytes32"
        },
        {
          "indexed": true,
          "internalType": "bytes32",
          "name": "previousAdminRole",
          "type": "bytes32"
        },
        {
          "indexed": true,
          "internalType": "bytes32",
          "name": "newAdminRole",
          "type": "bytes32"
        }
      ],
      "name": "RoleAdminChanged",
      "type": "event"
    },
    {
      "anonymous": false,
      "inputs": [
        {
          "indexed": true,
          "internalType": "bytes32",
          "name": "role",
          "type": "bytes32"
        },
        {
          "indexed": true,
          "internalType": "address",
          "name": "account",
          "type": "address"
        },
        {
          "indexed": true,
          "internalType": "address",
          "name": "sender",
          "type": "address"
        }
      ],
      "name": "RoleGranted",
      "type": "event"
    },
    {
      "anonymous": false,
      "inputs": [
        {
          "indexed": true,
          "internalType": "bytes32",
          "name": "role",
          "type": "bytes32"
        },
        {
          "indexed": true,
          "internalType": "address",
          "name": "account",
          "type": "address"
        },
        {
          "indexed": true,
          "internalType": "address",
          "name": "sender",
          "type": "address"
        }
      ],
      "name": "RoleRevoked",
      "type": "event"
    },
    {
      "anonymous": false,
      "inputs": [
        {
          "indexed": false,
          "internalType": "uint256",
          "name": "id",
          "type": "uint256"
        },
        {
          "indexed": true,
          "internalType": "uint256",
          "name": "member",
          "type": "uint256"
        }
      ],
      "name": "WithdrawPollCreated",
      "type": "event"
    },
    {
      "inputs": [],
      "name": "getProposeWithdrawPollDuration",
      "outputs": [
        {
          "internalType": "uint256",
          "name": "",
          "type": "uint256"
        }
      ],
      "stateMutability": "view",
      "type": "function"
    },
    {
      "inputs": [
        {
          "internalType": "uint256",
          "name": "_amount",
          "type": "uint256"
        },
        {
          "internalType": "address",
          "name": "_beneficiary",
          "type": "address"
        }
      ],
      "name": "proposeWithdraw",
      "outputs": [],
      "stateMutability": "nonpayable",
      "type": "function"
    },
    {
      "inputs": [
        {
          "internalType": "uint256",
          "name": "_duration",
          "type": "uint256"
        }
      ],
      "name": "setProposeWithdrawPollDuration",
      "outputs": [],
      "stateMutability": "nonpayable",
      "type": "function"
    }
  ],
  "bytecode": "0x608060405234801561001057600080fd5b50610815806100206000396000f3fe608060405234801561001057600080fd5b50600436106100415760003560e01c8063d19f01a214610046578063f0854aac14610062578063f14ad3a91461007e575b600080fd5b610060600480360381019061005b919061062b565b61009c565b005b61007c60048036038101906100779190610654565b610152565b005b610086610204565b60405161009391906106ff565b60405180910390f35b6100cd7f241ecf16d79d0f8dbfb92cbc07fe17840425976cf0667f022fe9877caa831b086100c8610217565b61028c565b61013f576040517f08c379a000000000000000000000000000000000000000000000000000000000815260040180806020018281038252600b8152602001807f4e4f545f4d414e4147455200000000000000000000000000000000000000000081525060200191505060405180910390fd5b806101486102cc565b6000018190555050565b61016261015d610217565b6102f9565b6101a1576040517f08c379a0000000000000000000000000000000000000000000000000000000008152600401610198906106df565b60405180910390fd5b6101aa816102f9565b6101e9576040517f08c379a00000000000000000000000000000000000000000000000000000000081526004016101e0906106df565b60405180910390fd5b6101ff826101f56102cc565b600001548361035d565b505050565b600061020e6102cc565b60000154905090565b600060606000368080601f016020809104026020016040519081016040528093929190818152602001838380828437600081840152601f19601f820116905080830192505050505050509050600080369050905073ffffffffffffffffffffffffffffffffffffffff81830151169250505090565b600080610297610461565b90506102c38382600001600087815260200190815260200160002060000161048e90919063ffffffff16565b91505092915050565b6000807fa86131b0e9c214bb6e027183ea39a379ec2404b3693e933e1a0cd73b647fc98e90508091505090565b60006103257f829b824e2329e205435d941c9f13baf578548505283d29261236d8e6596d46368361028c565b8061035657506103557f241ecf16d79d0f8dbfb92cbc07fe17840425976cf0667f022fe9877caa831b088361028c565b5b9050919050565b6000806103686104be565b905060018160000154018160000181905550600061038982600001546104eb565b905081600001548160000181905550428160010181905550844201816002018190555060006103bb8360000154610502565b90508681600101819055506103ce610519565b60010160008673ffffffffffffffffffffffffffffffffffffffff1673ffffffffffffffffffffffffffffffffffffffff16815260200190815260200160002054816000018190555080600001547f91aa418bfd26049fe46510fca1b7593f8348efbf8e8e29a3844bb16584ff1448846000015460405161044f91906106ff565b60405180910390a25050509392505050565b6000807f6282190449f76f72a9f692e4d8619a03764b7253394788948e36a7a57ba4a00e90508091505090565b60006104b6836000018373ffffffffffffffffffffffffffffffffffffffff1660001b610546565b905092915050565b6000807fe9264b9da64504fcbd8e41f0f0eb90a5e885b3fe366dad83c81095d9285d25e190508091505090565b6000806104f783610569565b905080915050919050565b60008061050e836105b5565b905080915050919050565b6000807faa97fdeef5de5607974189e6a2429d502dcc32b43d658c3c065d5ca083ee1fab90508091505090565b600080836001016000848152602001908152602001600020541415905092915050565b6000816040516020018080602001838152602001828103825260238152602001806107bd6023913960400192505050604051602081830303815290604052805190602001209050919050565b6000816040516020018080602001838152602001828103825260278152602001806107966027913960400192505050604051602081830303815290604052805190602001209050919050565b60008135905061061081610767565b92915050565b6000813590506106258161077e565b92915050565b60006020828403121561063d57600080fd5b600061064b84828501610616565b91505092915050565b6000806040838503121561066757600080fd5b600061067585828601610616565b925050602061068685828601610601565b9150509250929050565b600061069d600a8361071a565b91507f4e4f545f4d454d424552000000000000000000000000000000000000000000006000830152602082019050919050565b6106d98161075d565b82525050565b600060208201905081810360008301526106f881610690565b9050919050565b600060208201905061071460008301846106d0565b92915050565b600082825260208201905092915050565b60006107368261073d565b9050919050565b600073ffffffffffffffffffffffffffffffffffffffff82169050919050565b6000819050919050565b6107708161072b565b811461077b57600080fd5b50565b6107878161075d565b811461079257600080fd5b5056fe6469616d6f6e642e636f6e74726163742e6173736574706f6f6c2e7769746864726177706f6c6c6469616d6f6e642e636f6e74726163742e6173736574706f6f6c2e62617365706f6c6ca2646970667358221220b2125c007ca4b50669306c7cba364cdbc77a37a7a0a666169c674c60d5120bc864736f6c63430007040033",
  "linkReferences": {},
  "deployedLinkReferences": {}
}