{
  "_format": "hh-sol-artifact-1",
  "contractName": "AssetPoolFacetView",
  "sourceName": "contracts/contracts/facets/AssetPoolFacet/AssetPoolFacetView.sol",
  "abi": [
    {
      "inputs": [],
      "name": "getPollCounter",
      "outputs": [
        {
          "internalType": "uint256",
          "name": "",
          "type": "uint256"
        }
      ],
      "stateMutability": "view",
      "type": "function"
    },
    {
      "inputs": [],
      "name": "getProposeWithdrawPollDuration",
      "outputs": [
        {
          "internalType": "uint256",
          "name": "",
          "type": "uint256"
        }
      ],
      "stateMutability": "view",
      "type": "function"
    },
    {
      "inputs": [
        {
          "internalType": "uint256",
          "name": "_id",
          "type": "uint256"
        }
      ],
      "name": "getReward",
      "outputs": [
        {
          "components": [
            {
              "internalType": "uint256",
              "name": "id",
              "type": "uint256"
            },
            {
              "internalType": "uint256",
              "name": "withdrawAmount",
              "type": "uint256"
            },
            {
              "internalType": "uint256",
              "name": "withdrawDuration",
              "type": "uint256"
            },
            {
              "internalType": "uint256",
              "name": "pollId",
              "type": "uint256"
            },
            {
              "internalType": "enum LibAssetPoolStorage.RewardState",
              "name": "state",
              "type": "uint8"
            }
          ],
          "internalType": "struct LibAssetPoolStorage.Reward",
          "name": "",
          "type": "tuple"
        }
      ],
      "stateMutability": "view",
      "type": "function"
    },
    {
      "inputs": [],
      "name": "getRewardPollDuration",
      "outputs": [
        {
          "internalType": "uint256",
          "name": "",
          "type": "uint256"
        }
      ],
      "stateMutability": "view",
      "type": "function"
    },
    {
      "inputs": [],
      "name": "getToken",
      "outputs": [
        {
          "internalType": "address",
          "name": "",
          "type": "address"
        }
      ],
      "stateMutability": "view",
      "type": "function"
    }
  ],
  "bytecode": "0x608060405234801561001057600080fd5b50610464806100206000396000f3fe608060405234801561001057600080fd5b50600436106100575760003560e01c80631c4b774b1461005c57806321df0da71461008c5780634553f806146100aa578063ecde1e00146100c8578063f14ad3a9146100e6575b600080fd5b61007660048036038101906100719190610282565b610104565b604051610083919061036a565b60405180910390f35b61009461019a565b6040516100a1919061034f565b60405180910390f35b6100b26101cd565b6040516100bf9190610385565b60405180910390f35b6100d06101e0565b6040516100dd9190610385565b60405180910390f35b6100ee6101f3565b6040516100fb9190610385565b60405180910390f35b61010c610233565b610114610206565b600401600183038154811061012557fe5b90600052602060002090600502016040518060a0016040529081600082015481526020016001820154815260200160028201548152602001600382015481526020016004820160009054906101000a900460ff16600181111561018457fe5b600181111561018f57fe5b815250509050919050565b60006101a4610206565b60000160009054906101000a900473ffffffffffffffffffffffffffffffffffffffff16905090565b60006101d7610206565b60020154905090565b60006101ea610206565b60030154905090565b60006101fd610206565b60010154905090565b6000807fd05d8ab03eb42dd030db61fb625331fb04ca5b3f470fcdd3fc8f27498b9c9f0090508091505090565b6040518060a00160405280600081526020016000815260200160008152602001600081526020016000600181111561026757fe5b81525090565b60008135905061027c81610417565b92915050565b60006020828403121561029457600080fd5b60006102a28482850161026d565b91505092915050565b6102b4816103a0565b82525050565b6102c3816103ef565b82525050565b60a0820160008201516102df6000850182610331565b5060208201516102f26020850182610331565b5060408201516103056040850182610331565b5060608201516103186060850182610331565b50608082015161032b60808501826102ba565b50505050565b61033a816103e5565b82525050565b610349816103e5565b82525050565b600060208201905061036460008301846102ab565b92915050565b600060a08201905061037f60008301846102c9565b92915050565b600060208201905061039a6000830184610340565b92915050565b60006103ab826103c5565b9050919050565b60008190506103c082610403565b919050565b600073ffffffffffffffffffffffffffffffffffffffff82169050919050565b6000819050919050565b60006103fa826103b2565b9050919050565bfe5b6002811061041457610413610401565b5b50565b610420816103e5565b811461042b57600080fd5b5056fea26469706673582212202f40cb53d976ac9952c26252735d767882af8a18903f5fabfe0a650a7e181b6f64736f6c63430007040033",
  "linkReferences": {},
  "deployedLinkReferences": {}
}