{
  "_format": "hh-sol-artifact-1",
  "contractName": "RewardByPoll",
  "sourceName": "contracts/contracts/10-RewardBypass/RewardByPoll.sol",
  "abi": [
    {
      "anonymous": false,
      "inputs": [
        {
          "indexed": false,
          "internalType": "uint256",
          "name": "id",
          "type": "uint256"
        }
      ],
      "name": "RewardPollDisabled",
      "type": "event"
    },
    {
      "anonymous": false,
      "inputs": [
        {
          "indexed": false,
          "internalType": "uint256",
          "name": "id",
          "type": "uint256"
        }
      ],
      "name": "RewardPollEnabled",
      "type": "event"
    },
    {
      "anonymous": false,
      "inputs": [
        {
          "indexed": false,
          "internalType": "uint256",
          "name": "id",
          "type": "uint256"
        },
        {
          "indexed": false,
          "internalType": "bool",
          "name": "approved",
          "type": "bool"
        }
      ],
      "name": "RewardPollFinalized",
      "type": "event"
    },
    {
      "anonymous": false,
      "inputs": [
        {
          "indexed": false,
          "internalType": "uint256",
          "name": "id",
          "type": "uint256"
        },
        {
          "indexed": true,
          "internalType": "address",
          "name": "member",
          "type": "address"
        }
      ],
      "name": "RewardPollRevokedVote",
      "type": "event"
    },
    {
      "anonymous": false,
      "inputs": [
        {
          "indexed": false,
          "internalType": "uint256",
          "name": "id",
          "type": "uint256"
        },
        {
          "indexed": false,
          "internalType": "uint256",
          "name": "amount",
          "type": "uint256"
        },
        {
          "indexed": false,
          "internalType": "uint256",
          "name": "duration",
          "type": "uint256"
        }
      ],
      "name": "RewardPollUpdated",
      "type": "event"
    },
    {
      "anonymous": false,
      "inputs": [
        {
          "indexed": false,
          "internalType": "uint256",
          "name": "id",
          "type": "uint256"
        },
        {
          "indexed": true,
          "internalType": "address",
          "name": "member",
          "type": "address"
        },
        {
          "indexed": false,
          "internalType": "bool",
          "name": "vote",
          "type": "bool"
        }
      ],
      "name": "RewardPollVoted",
      "type": "event"
    },
    {
      "anonymous": false,
      "inputs": [
        {
          "indexed": true,
          "internalType": "bytes32",
          "name": "role",
          "type": "bytes32"
        },
        {
          "indexed": true,
          "internalType": "bytes32",
          "name": "previousAdminRole",
          "type": "bytes32"
        },
        {
          "indexed": true,
          "internalType": "bytes32",
          "name": "newAdminRole",
          "type": "bytes32"
        }
      ],
      "name": "RoleAdminChanged",
      "type": "event"
    },
    {
      "anonymous": false,
      "inputs": [
        {
          "indexed": true,
          "internalType": "bytes32",
          "name": "role",
          "type": "bytes32"
        },
        {
          "indexed": true,
          "internalType": "address",
          "name": "account",
          "type": "address"
        },
        {
          "indexed": true,
          "internalType": "address",
          "name": "sender",
          "type": "address"
        }
      ],
      "name": "RoleGranted",
      "type": "event"
    },
    {
      "anonymous": false,
      "inputs": [
        {
          "indexed": true,
          "internalType": "bytes32",
          "name": "role",
          "type": "bytes32"
        },
        {
          "indexed": true,
          "internalType": "address",
          "name": "account",
          "type": "address"
        },
        {
          "indexed": true,
          "internalType": "address",
          "name": "sender",
          "type": "address"
        }
      ],
      "name": "RoleRevoked",
      "type": "event"
    },
    {
      "inputs": [],
      "name": "_rewardPollApprovalState",
      "outputs": [
        {
          "internalType": "bool",
          "name": "",
          "type": "bool"
        }
      ],
      "stateMutability": "view",
      "type": "function"
    },
    {
      "inputs": [],
      "name": "_rewardPollFinalize",
      "outputs": [],
      "stateMutability": "nonpayable",
      "type": "function"
    },
    {
      "inputs": [],
      "name": "_rewardPollRevokeVote",
      "outputs": [],
      "stateMutability": "nonpayable",
      "type": "function"
    },
    {
      "inputs": [
        {
          "internalType": "bool",
          "name": "_agree",
          "type": "bool"
        }
      ],
      "name": "_rewardPollVote",
      "outputs": [],
      "stateMutability": "nonpayable",
      "type": "function"
    },
    {
      "inputs": [
        {
          "internalType": "uint256",
          "name": "_id",
          "type": "uint256"
        }
      ],
      "name": "getRewardIndex",
      "outputs": [
        {
          "internalType": "uint256",
          "name": "",
          "type": "uint256"
        }
      ],
      "stateMutability": "view",
      "type": "function"
    },
    {
      "inputs": [
        {
          "internalType": "uint256",
          "name": "_id",
          "type": "uint256"
        }
      ],
      "name": "getWithdrawAmount",
      "outputs": [
        {
          "internalType": "uint256",
          "name": "",
          "type": "uint256"
        }
      ],
      "stateMutability": "view",
      "type": "function"
    },
    {
      "inputs": [
        {
          "internalType": "uint256",
          "name": "_id",
          "type": "uint256"
        }
      ],
      "name": "getWithdrawDuration",
      "outputs": [
        {
          "internalType": "uint256",
          "name": "",
          "type": "uint256"
        }
      ],
      "stateMutability": "view",
      "type": "function"
    }
  ],
  "bytecode": "0x608060405234801561001057600080fd5b50610dc4806100206000396000f3fe608060405234801561001057600080fd5b506004361061007d5760003560e01c8063703504a11161005b578063703504a1146100ca578063d07d58a2146100dd578063e445dc43146100e5578063f626a8c7146100f85761007d565b80631f2099ca146100825780631f5f33291461008c578063682eb28e146100b5575b600080fd5b61008a61010b565b005b61009f61009a366004610ca9565b6101be565b6040516100ac9190610d3a565b60405180910390f35b6100bd6101d0565b6040516100ac9190610cc1565b61008a6100d8366004610c89565b61021c565b61008a6102ca565b61009f6100f3366004610ca9565b610324565b61009f610106366004610ca9565b610339565b600061011561034e565b905060006101268260000154610365565b90508060010154600014156101565760405162461bcd60e51b815260040161014d90610ccc565b60405180910390fd5b33301461016257600080fd5b61016a610378565b6101726104fd565b6001600160a01b03167f96bd8a63b091fc2c277a752ef055a3b096928812dcd25312eb94f1b8f73d6ca86101a461034e565b546040516101b29190610d3a565b60405180910390a25050565b60006101c982610365565b5492915050565b6000806101db61034e565b905060006101ec8260000154610365565b90508060010154600014156102135760405162461bcd60e51b815260040161014d90610ccc565b60019250505090565b600061022661034e565b905060006102378260000154610365565b905080600101546000141561025e5760405162461bcd60e51b815260040161014d90610ccc565b33301461026a57600080fd5b6102738361054a565b61027b6104fd565b6001600160a01b03167fbcda6307e08d9217c70abefe87671990e45c7971ac38e4f59e28d097d9ca0c296102ad61034e565b546040516102bd91908790610d43565b60405180910390a2505050565b60006102d461034e565b905060006102e58260000154610365565b905080600101546000141561030c5760405162461bcd60e51b815260040161014d90610ccc565b33301461031857600080fd5b61032061074f565b5050565b600061032f82610365565b6001015492915050565b600061034482610365565b6002015492915050565b600061036061035b6107e8565b610830565b905090565b60008061037183610833565b9392505050565b600061038261034e565b90508060010154421015801561039c575080600201544211155b6103ed576040805162461bcd60e51b815260206004820152601060248201527f49535f4e4f5f56414c49445f54494d4500000000000000000000000000000000604482015290519081900360640190fd5b60006103f761034e565b905060006104036104fd565b6001600160a01b0381166000908152600684016020526040902054909150610472576040805162461bcd60e51b815260206004820152600d60248201527f4841535f4e4f545f564f54454400000000000000000000000000000000000000604482015290519081900360640190fd5b6001600160a01b0381166000908152600683016020526040812060018082018054600284018054948690559490915560ff198316909355600585015460ff909216916104bd9161087f565b600585015580156104e15760038401546104d7908361087f565b60038501556104f6565b60048401546104f0908361087f565b60048501555b5050505050565b600060606000368080601f0160208091040260200160405190810160405280939291908181526020018383808284376000920191909152505050503601516001600160a01b031692915050565b600061055461034e565b90508060010154421015801561056e575080600201544211155b6105bf576040805162461bcd60e51b815260206004820152601060248201527f49535f4e4f5f56414c49445f54494d4500000000000000000000000000000000604482015290519081900360640190fd5b6105cf6105ca6104fd565b6108dc565b60006105d961034e565b90508060060160006105e96104fd565b6001600160a01b0316815260208101919091526040016000205415610655576040805162461bcd60e51b815260206004820152600960248201527f4841535f564f5445440000000000000000000000000000000000000000000000604482015290519081900360640190fd5b6001831561067657600382015461066c9082610904565b600383015561068b565b60048201546106859082610904565b60048301555b4282600601600061069a6104fd565b6001600160a01b03166001600160a01b0316815260200190815260200160002060000181905550808260060160006106d06104fd565b6001600160a01b03166001600160a01b0316815260200190815260200160002060010181905550838260060160006107066104fd565b6001600160a01b031681526020810191909152604001600020600201805460ff19169115159190911790556005820154610741906001610904565b826005018190555050505050565b600061075961034e565b905080600201544210156107b4576040805162461bcd60e51b815260206004820152600b60248201527f57524f4e475f5354415445000000000000000000000000000000000000000000604482015290519081900360640190fd5b80546107bf9061095e565b600080825560018201819055600282018190556003820181905560048201819055600590910155565b600060606000368080601f0160208091040260200160405190810160405280939291908181526020018383808284376000920191909152505050503601601319015192915050565b90565b600081604051602001808060200183815260200182810382526025815260200180610d6a6025913960400192505050604051602081830303815290604052805190602001209050919050565b6000828211156108d6576040805162461bcd60e51b815260206004820152601e60248201527f536166654d6174683a207375627472616374696f6e206f766572666c6f770000604482015290519081900360640190fd5b50900390565b6108e581610b8f565b6109015760405162461bcd60e51b815260040161014d90610d03565b50565b600082820183811015610371576040805162461bcd60e51b815260206004820152601b60248201527f536166654d6174683a206164646974696f6e206f766572666c6f770000000000604482015290519081900360640190fd5b600061096982610365565b90506000610975610bf1565b60010182600001548154811061098757fe5b9060005260206000209060050201905060006109a16101d0565b90508015610b3b577f040000000000000000000000000000000000000000000000000000000000000083600101541415610a215760048201805460ff191660011790556040517f660e8265d5bc42d5139afa68db77817960c522fdad5ce9968cd7ab0c3286ca0d90610a14908690610d3a565b60405180910390a1610b3b565b7f080000000000000000000000000000000000000000000000000000000000000083600101541415610a895760048201805460ff191690556040517fca07d0c99b0be7b96d2358d7ccef8f5bcca66433998b9b6dd63c62bc42a484c490610a14908690610d3a565b6001820154158015610a9d57506002820154155b15610aea5760048201805460ff191660011790556040517f660e8265d5bc42d5139afa68db77817960c522fdad5ce9968cd7ab0c3286ca0d90610ae1908690610d3a565b60405180910390a15b6001808401549083018190556002808501549084018190556040517f956351643d8ae623c1b47fcc4525c357bd164da74b9161f0e42fb9b5c20a6ec392610b32928892610d53565b60405180910390a15b7f96c9e2b876cc09c4e1f1e5d154f8241806cb94511e3c55fd5a29b7f2d620dedd8482604051610b6c929190610d43565b60405180910390a150600060039091018190556001820181905560029091015550565b6000610bbb7f829b824e2329e205435d941c9f13baf578548505283d29261236d8e6596d463683610c15565b80610beb5750610beb7f241ecf16d79d0f8dbfb92cbc07fe17840425976cf0667f022fe9877caa831b0883610c15565b92915050565b7f631ba92ab8eb0c7c19aa90ebce8ff250a95acd664966559209d622b596e0787b90565b600080610c20610c43565b6000858152602082905260409020909150610c3b9084610c67565b949350505050565b7f6282190449f76f72a9f692e4d8619a03764b7253394788948e36a7a57ba4a00e90565b6001600160a01b03811660009081526001830160205260408120541515610371565b600060208284031215610c9a578081fd5b81358015158114610371578182fd5b600060208284031215610cba578081fd5b5035919050565b901515815260200190565b6020808252600f908201527f4e4f545f5245574152445f504f4c4c0000000000000000000000000000000000604082015260600190565b60208082526009908201527f4e4f5f4d454d4245520000000000000000000000000000000000000000000000604082015260600190565b90815260200190565b9182521515602082015260400190565b928352602083019190915260408201526060019056fe6469616d6f6e642e636f6e74726163742e6173736574706f6f6c2e726577617264706f6c6ca26469706673582212206a4a8231da913dfb0bb1bc9297af92516ec495a3c60662b7b363b80a1c913c6264736f6c63430007040033",
  "linkReferences": {},
  "deployedLinkReferences": {}
}