{
  "_format": "hh-sol-artifact-1",
  "contractName": "RewardByPoll",
  "sourceName": "contracts/contracts/10-RewardBypass/RewardByPoll.sol",
  "abi": [
    {
      "anonymous": false,
      "inputs": [
        {
          "indexed": false,
          "internalType": "uint256",
          "name": "id",
          "type": "uint256"
        }
      ],
      "name": "RewardPollDisabled",
      "type": "event"
    },
    {
      "anonymous": false,
      "inputs": [
        {
          "indexed": false,
          "internalType": "uint256",
          "name": "id",
          "type": "uint256"
        }
      ],
      "name": "RewardPollEnabled",
      "type": "event"
    },
    {
      "anonymous": false,
      "inputs": [
        {
          "indexed": false,
          "internalType": "uint256",
          "name": "id",
          "type": "uint256"
        },
        {
          "indexed": false,
          "internalType": "bool",
          "name": "approved",
          "type": "bool"
        }
      ],
      "name": "RewardPollFinalized",
      "type": "event"
    },
    {
      "anonymous": false,
      "inputs": [
        {
          "indexed": false,
          "internalType": "uint256",
          "name": "id",
          "type": "uint256"
        },
        {
          "indexed": true,
          "internalType": "address",
          "name": "member",
          "type": "address"
        }
      ],
      "name": "RewardPollRevokedVote",
      "type": "event"
    },
    {
      "anonymous": false,
      "inputs": [
        {
          "indexed": false,
          "internalType": "uint256",
          "name": "id",
          "type": "uint256"
        },
        {
          "indexed": false,
          "internalType": "uint256",
          "name": "amount",
          "type": "uint256"
        },
        {
          "indexed": false,
          "internalType": "uint256",
          "name": "duration",
          "type": "uint256"
        }
      ],
      "name": "RewardPollUpdated",
      "type": "event"
    },
    {
      "anonymous": false,
      "inputs": [
        {
          "indexed": false,
          "internalType": "uint256",
          "name": "id",
          "type": "uint256"
        },
        {
          "indexed": true,
          "internalType": "address",
          "name": "member",
          "type": "address"
        },
        {
          "indexed": false,
          "internalType": "bool",
          "name": "vote",
          "type": "bool"
        }
      ],
      "name": "RewardPollVoted",
      "type": "event"
    },
    {
      "anonymous": false,
      "inputs": [
        {
          "indexed": true,
          "internalType": "bytes32",
          "name": "role",
          "type": "bytes32"
        },
        {
          "indexed": true,
          "internalType": "bytes32",
          "name": "previousAdminRole",
          "type": "bytes32"
        },
        {
          "indexed": true,
          "internalType": "bytes32",
          "name": "newAdminRole",
          "type": "bytes32"
        }
      ],
      "name": "RoleAdminChanged",
      "type": "event"
    },
    {
      "anonymous": false,
      "inputs": [
        {
          "indexed": true,
          "internalType": "bytes32",
          "name": "role",
          "type": "bytes32"
        },
        {
          "indexed": true,
          "internalType": "address",
          "name": "account",
          "type": "address"
        },
        {
          "indexed": true,
          "internalType": "address",
          "name": "sender",
          "type": "address"
        }
      ],
      "name": "RoleGranted",
      "type": "event"
    },
    {
      "anonymous": false,
      "inputs": [
        {
          "indexed": true,
          "internalType": "bytes32",
          "name": "role",
          "type": "bytes32"
        },
        {
          "indexed": true,
          "internalType": "address",
          "name": "account",
          "type": "address"
        },
        {
          "indexed": true,
          "internalType": "address",
          "name": "sender",
          "type": "address"
        }
      ],
      "name": "RoleRevoked",
      "type": "event"
    },
    {
      "inputs": [],
      "name": "_rewardPollApprovalState",
      "outputs": [
        {
          "internalType": "bool",
          "name": "",
          "type": "bool"
        }
      ],
      "stateMutability": "view",
      "type": "function"
    },
    {
      "inputs": [],
      "name": "_rewardPollFinalize",
      "outputs": [],
      "stateMutability": "nonpayable",
      "type": "function"
    },
    {
      "inputs": [],
      "name": "_rewardPollRevokeVote",
      "outputs": [],
      "stateMutability": "nonpayable",
      "type": "function"
    },
    {
      "inputs": [
        {
          "internalType": "bool",
          "name": "_agree",
          "type": "bool"
        }
      ],
      "name": "_rewardPollVote",
      "outputs": [],
      "stateMutability": "nonpayable",
      "type": "function"
    },
    {
      "inputs": [
        {
          "internalType": "uint256",
          "name": "_id",
          "type": "uint256"
        }
      ],
      "name": "getRewardIndex",
      "outputs": [
        {
          "internalType": "uint256",
          "name": "",
          "type": "uint256"
        }
      ],
      "stateMutability": "view",
      "type": "function"
    },
    {
      "inputs": [
        {
          "internalType": "uint256",
          "name": "_id",
          "type": "uint256"
        }
      ],
      "name": "getWithdrawAmount",
      "outputs": [
        {
          "internalType": "uint256",
          "name": "",
          "type": "uint256"
        }
      ],
      "stateMutability": "view",
      "type": "function"
    },
    {
      "inputs": [
        {
          "internalType": "uint256",
          "name": "_id",
          "type": "uint256"
        }
      ],
      "name": "getWithdrawDuration",
      "outputs": [
        {
          "internalType": "uint256",
          "name": "",
          "type": "uint256"
        }
      ],
      "stateMutability": "view",
      "type": "function"
    }
  ],
  "bytecode": "0x608060405234801561001057600080fd5b50611508806100206000396000f3fe608060405234801561001057600080fd5b506004361061007d5760003560e01c8063703504a11161005b578063703504a1146100da578063d07d58a2146100f6578063e445dc4314610100578063f626a8c7146101305761007d565b80631f2099ca146100825780631f5f33291461008c578063682eb28e146100bc575b600080fd5b61008a610160565b005b6100a660048036038101906100a191906112bb565b610231565b6040516100b391906113dd565b60405180910390f35b6100c4610247565b6040516100d19190611382565b60405180910390f35b6100f460048036038101906100ef9190611292565b6102b6565b005b6100fe61038b565b005b61011a600480360381019061011591906112bb565b6103fc565b60405161012791906113dd565b60405180910390f35b61014a600480360381019061014591906112bb565b610412565b60405161015791906113dd565b60405180910390f35b600061016a610428565b9050600061017b826000015461043f565b90506000816001015414156101c5576040517f08c379a00000000000000000000000000000000000000000000000000000000081526004016101bc9061139d565b60405180910390fd5b6101cd610456565b6101d56107bf565b73ffffffffffffffffffffffffffffffffffffffff167f96bd8a63b091fc2c277a752ef055a3b096928812dcd25312eb94f1b8f73d6ca8610214610428565b6000015460405161022591906113dd565b60405180910390a25050565b600061023c8261043f565b600001549050919050565b600080610252610428565b90506000610263826000015461043f565b90506000816001015414156102ad576040517f08c379a00000000000000000000000000000000000000000000000000000000081526004016102a49061139d565b60405180910390fd5b60019250505090565b60006102c0610428565b905060006102d1826000015461043f565b905060008160010154141561031b576040517f08c379a00000000000000000000000000000000000000000000000000000000081526004016103129061139d565b60405180910390fd5b61032483610834565b61032c6107bf565b73ffffffffffffffffffffffffffffffffffffffff167fbcda6307e08d9217c70abefe87671990e45c7971ac38e4f59e28d097d9ca0c2961036b610428565b600001548560405161037e9291906113f8565b60405180910390a2505050565b6000610395610428565b905060006103a6826000015461043f565b90506000816001015414156103f0576040517f08c379a00000000000000000000000000000000000000000000000000000000081526004016103e79061139d565b60405180910390fd5b6103f8610b21565b5050565b60006104078261043f565b600101549050919050565b600061041d8261043f565b600201549050919050565b600061043a610435610be7565b610c4a565b905090565b60008061044b83610c54565b905080915050919050565b6000610460610428565b90508060010154421015801561047a575080600201544211155b6104ec576040517f08c379a00000000000000000000000000000000000000000000000000000000081526004018080602001828103825260108152602001807f49535f4e4f5f56414c49445f54494d450000000000000000000000000000000081525060200191505060405180910390fd5b60006104f6610428565b905060006105026107bf565b905060008260060160008373ffffffffffffffffffffffffffffffffffffffff1673ffffffffffffffffffffffffffffffffffffffff16815260200190815260200160002060000154116105be576040517f08c379a000000000000000000000000000000000000000000000000000000000815260040180806020018281038252600d8152602001807f4841535f4e4f545f564f5445440000000000000000000000000000000000000081525060200191505060405180910390fd5b60008260060160008373ffffffffffffffffffffffffffffffffffffffff1673ffffffffffffffffffffffffffffffffffffffff16815260200190815260200160002060010154905060008360060160008473ffffffffffffffffffffffffffffffffffffffff1673ffffffffffffffffffffffffffffffffffffffff16815260200190815260200160002060020160009054906101000a900460ff16905060008460060160008573ffffffffffffffffffffffffffffffffffffffff1673ffffffffffffffffffffffffffffffffffffffff1681526020019081526020016000206000018190555060008460060160008573ffffffffffffffffffffffffffffffffffffffff1673ffffffffffffffffffffffffffffffffffffffff1681526020019081526020016000206001018190555060008460060160008573ffffffffffffffffffffffffffffffffffffffff1673ffffffffffffffffffffffffffffffffffffffff16815260200190815260200160002060020160006101000a81548160ff02191690831515021790555061076660018560050154610ca090919063ffffffff16565b846005018190555080156107985761078b828560030154610ca090919063ffffffff16565b84600301819055506107b8565b6107af828560040154610ca090919063ffffffff16565b84600401819055505b5050505050565b600060606000368080601f016020809104026020016040519081016040528093929190818152602001838380828437600081840152601f19601f820116905080830192505050505050509050600080369050905073ffffffffffffffffffffffffffffffffffffffff81830151169250505090565b600061083e610428565b905080600101544210158015610858575080600201544211155b6108ca576040517f08c379a00000000000000000000000000000000000000000000000000000000081526004018080602001828103825260108152602001807f49535f4e4f5f56414c49445f54494d450000000000000000000000000000000081525060200191505060405180910390fd5b6108db826108d66107bf565b610cea565b60006108e5610428565b905060008160060160006108f76107bf565b73ffffffffffffffffffffffffffffffffffffffff1673ffffffffffffffffffffffffffffffffffffffff16815260200190815260200160002060000154146109a8576040517f08c379a00000000000000000000000000000000000000000000000000000000081526004018080602001828103825260098152602001807f4841535f564f544544000000000000000000000000000000000000000000000081525060200191505060405180910390fd5b60006001905083156109d8576109cb818360030154610d3690919063ffffffff16565b82600301819055506109f8565b6109ef818360040154610d3690919063ffffffff16565b82600401819055505b42826006016000610a076107bf565b73ffffffffffffffffffffffffffffffffffffffff1673ffffffffffffffffffffffffffffffffffffffff1681526020019081526020016000206000018190555080826006016000610a576107bf565b73ffffffffffffffffffffffffffffffffffffffff1673ffffffffffffffffffffffffffffffffffffffff1681526020019081526020016000206001018190555083826006016000610aa76107bf565b73ffffffffffffffffffffffffffffffffffffffff1673ffffffffffffffffffffffffffffffffffffffff16815260200190815260200160002060020160006101000a81548160ff021916908315150217905550610b1360018360050154610d3690919063ffffffff16565b826005018190555050505050565b6000610b2b610428565b90508060020154421015610ba7576040517f08c379a000000000000000000000000000000000000000000000000000000000815260040180806020018281038252600b8152602001807f57524f4e475f535441544500000000000000000000000000000000000000000081525060200191505060405180910390fd5b610bb48160000154610dbe565b80600001600090558060010160009055806002016000905580600301600090558060040160009055806005016000905550565b600060606000368080601f016020809104026020016040519081016040528093929190818152602001838380828437600081840152601f19601f820116905080830192505050505050509050600060146000369050039050808201519250505090565b6000819050919050565b6000816040516020018080602001838152602001828103825260258152602001806114ae6025913960400192505050604051602081830303815290604052805190602001209050919050565b6000610ce283836040518060400160405280601e81526020017f536166654d6174683a207375627472616374696f6e206f766572666c6f770000815250611057565b905092915050565b610cf381611117565b610d32576040517f08c379a0000000000000000000000000000000000000000000000000000000008152600401610d29906113bd565b60405180910390fd5b5050565b600080828401905083811015610db4576040517f08c379a000000000000000000000000000000000000000000000000000000000815260040180806020018281038252601b8152602001807f536166654d6174683a206164646974696f6e206f766572666c6f77000000000081525060200191505060405180910390fd5b8091505092915050565b6000610dc98261043f565b90506000610dd561117b565b600101826000015481548110610de757fe5b906000526020600020906005020190506000610e01610247565b90508015611000577f040000000000000000000000000000000000000000000000000000000000000083600101541415610e975760018260040160006101000a81548160ff02191690836001811115610e5657fe5b02179055507f660e8265d5bc42d5139afa68db77817960c522fdad5ce9968cd7ab0c3286ca0d84604051610e8a91906113dd565b60405180910390a1610fff565b7f080000000000000000000000000000000000000000000000000000000000000083600101541415610f255760008260040160006101000a81548160ff02191690836001811115610ee457fe5b02179055507fca07d0c99b0be7b96d2358d7ccef8f5bcca66433998b9b6dd63c62bc42a484c484604051610f1891906113dd565b60405180910390a1610ffe565b60008260010154148015610f3d575060008260020154145b15610fa05760018260040160006101000a81548160ff02191690836001811115610f6357fe5b02179055507f660e8265d5bc42d5139afa68db77817960c522fdad5ce9968cd7ab0c3286ca0d84604051610f9791906113dd565b60405180910390a15b82600101548260010181905550826002015482600201819055507f956351643d8ae623c1b47fcc4525c357bd164da74b9161f0e42fb9b5c20a6ec38483600101548460020154604051610ff593929190611421565b60405180910390a15b5b5b7f96c9e2b876cc09c4e1f1e5d154f8241806cb94511e3c55fd5a29b7f2d620dedd84826040516110319291906113f8565b60405180910390a181600301600090558260010160009055826002016000905550505050565b6000838311158290611104576040517f08c379a00000000000000000000000000000000000000000000000000000000081526004018080602001828103825283818151815260200191508051906020019080838360005b838110156110c95780820151818401526020810190506110ae565b50505050905090810190601f1680156110f65780820380516001836020036101000a031916815260200191505b509250505060405180910390fd5b5060008385039050809150509392505050565b60006111437f829b824e2329e205435d941c9f13baf578548505283d29261236d8e6596d4636836111a8565b8061117457506111737f241ecf16d79d0f8dbfb92cbc07fe17840425976cf0667f022fe9877caa831b08836111a8565b5b9050919050565b6000807f631ba92ab8eb0c7c19aa90ebce8ff250a95acd664966559209d622b596e0787b90508091505090565b6000806111b36111e8565b90506111df8382600001600087815260200190815260200160002060000161121590919063ffffffff16565b91505092915050565b6000807f6282190449f76f72a9f692e4d8619a03764b7253394788948e36a7a57ba4a00e90508091505090565b600061123d836000018373ffffffffffffffffffffffffffffffffffffffff1660001b611245565b905092915050565b600080836001016000848152602001908152602001600020541415905092915050565b6000813590506112778161147f565b92915050565b60008135905061128c81611496565b92915050565b6000602082840312156112a457600080fd5b60006112b284828501611268565b91505092915050565b6000602082840312156112cd57600080fd5b60006112db8482850161127d565b91505092915050565b6112ed81611469565b82525050565b6000611300600f83611458565b91507f4e4f545f5245574152445f504f4c4c00000000000000000000000000000000006000830152602082019050919050565b6000611340600983611458565b91507f4e4f5f4d454d42455200000000000000000000000000000000000000000000006000830152602082019050919050565b61137c81611475565b82525050565b600060208201905061139760008301846112e4565b92915050565b600060208201905081810360008301526113b6816112f3565b9050919050565b600060208201905081810360008301526113d681611333565b9050919050565b60006020820190506113f26000830184611373565b92915050565b600060408201905061140d6000830185611373565b61141a60208301846112e4565b9392505050565b60006060820190506114366000830186611373565b6114436020830185611373565b6114506040830184611373565b949350505050565b600082825260208201905092915050565b60008115159050919050565b6000819050919050565b61148881611469565b811461149357600080fd5b50565b61149f81611475565b81146114aa57600080fd5b5056fe6469616d6f6e642e636f6e74726163742e6173736574706f6f6c2e726577617264706f6c6ca2646970667358221220af08eee00dcc3107a7654ad03bc340f76b4b133527011f93af3020cbe28f486364736f6c63430007040033",
  "linkReferences": {},
  "deployedLinkReferences": {}
}