{
  "_format": "hh-sol-artifact-1",
  "contractName": "UpdateDiamond",
  "sourceName": "contracts/contracts/11-UpdateDiamond/UpdateDiamond.sol",
  "abi": [
    {
      "inputs": [
        {
          "internalType": "bytes4[]",
          "name": "_selectors",
          "type": "bytes4[]"
        },
        {
          "internalType": "address",
          "name": "_newAddress",
          "type": "address"
        }
      ],
      "name": "updateAssetPool",
      "outputs": [
        {
          "internalType": "uint256",
          "name": "",
          "type": "uint256"
        },
        {
          "internalType": "bytes32",
          "name": "",
          "type": "bytes32"
        }
      ],
      "stateMutability": "nonpayable",
      "type": "function"
    }
  ],
  "bytecode": "0x608060405234801561001057600080fd5b506116d2806100206000396000f3fe608060405234801561001057600080fd5b506004361061002b5760003560e01c80630d61cbee14610030575b600080fd5b61004a60048036038101906100459190610dd9565b610061565b6040516100589291906114c8565b60405180910390f35b6000803373ffffffffffffffffffffffffffffffffffffffff1661008361011a565b60040160009054906101000a900473ffffffffffffffffffffffffffffffffffffffff1673ffffffffffffffffffffffffffffffffffffffff16146100fd576040517f08c379a00000000000000000000000000000000000000000000000000000000081526004016100f490611488565b60405180910390fd5b61010f60008060001b85600188610147565b915091509250929050565b6000807fc8fcad8db84d3cc18b4c41d551ea0ee66dd599cde068d998e57d5e09332c131c90508091505090565b600080600061015461011a565b9050600084511161019a576040517f08c379a000000000000000000000000000000000000000000000000000000000815260040161019190611348565b60405180910390fd5b600060028111156101a757fe5b8560028111156101b357fe5b141561045c57600073ffffffffffffffffffffffffffffffffffffffff168673ffffffffffffffffffffffffffffffffffffffff161415610229576040517f08c379a0000000000000000000000000000000000000000000000000000000008152600401610220906113a8565b60405180910390fd5b61024b8660405180606001604052806024815260200161165160249139610cda565b60005b845181101561045657600085828151811061026557fe5b602002602001015190506000836000016000837bffffffffffffffffffffffffffffffffffffffffffffffffffffffff19167bffffffffffffffffffffffffffffffffffffffffffffffffffffffff19168152602001908152602001600020549050600073ffffffffffffffffffffffffffffffffffffffff168160601c73ffffffffffffffffffffffffffffffffffffffff1614610339576040517f08c379a000000000000000000000000000000000000000000000000000000000815260040161033090611408565b60405180910390fd5b8a60001b8960601b6bffffffffffffffffffffffff191617846000016000847bffffffffffffffffffffffffffffffffffffffffffffffffffffffff19167bffffffffffffffffffffffffffffffffffffffffffffffffffffffff19168152602001908152602001600020819055506000602060088d816103b657fe5b0602905080837bffffffffffffffffffffffffffffffffffffffffffffffffffffffff1916901c817fffffffff0000000000000000000000000000000000000000000000000000000060001b901c198c16179a5060e081141561043e578a85600101600060088f8161042457fe5b048152602001908152602001600020819055506000801b9a505b8b806001019c5050505050808060010191505061024e565b50610cc9565b6001600281111561046957fe5b85600281111561047557fe5b141561077257600073ffffffffffffffffffffffffffffffffffffffff168673ffffffffffffffffffffffffffffffffffffffff1614156104eb576040517f08c379a00000000000000000000000000000000000000000000000000000000081526004016104e2906113c8565b60405180910390fd5b61050d8660405180606001604052806028815260200161167560289139610cda565b60005b845181101561076c57600085828151811061052757fe5b602002602001015190506000836000016000837bffffffffffffffffffffffffffffffffffffffffffffffffffffffff19167bffffffffffffffffffffffffffffffffffffffffffffffffffffffff1916815260200190815260200160002054905060008160601c90503073ffffffffffffffffffffffffffffffffffffffff168173ffffffffffffffffffffffffffffffffffffffff161415610600576040517f08c379a00000000000000000000000000000000000000000000000000000000081526004016105f790611468565b60405180910390fd5b8973ffffffffffffffffffffffffffffffffffffffff168173ffffffffffffffffffffffffffffffffffffffff16141561066f576040517f08c379a000000000000000000000000000000000000000000000000000000000815260040161066690611428565b60405180910390fd5b600073ffffffffffffffffffffffffffffffffffffffff168173ffffffffffffffffffffffffffffffffffffffff1614156106df576040517f08c379a00000000000000000000000000000000000000000000000000000000081526004016106d6906114a8565b60405180910390fd5b8960601b6bffffffffffffffffffffffff19166bffffffffffffffffffffffff60001b831617856000016000857bffffffffffffffffffffffffffffffffffffffffffffffffffffffff19167bffffffffffffffffffffffffffffffffffffffffffffffffffffffff19168152602001908152602001600020819055505050508080600101915050610510565b50610cc8565b60028081111561077e57fe5b85600281111561078a57fe5b1415610c8c57600073ffffffffffffffffffffffffffffffffffffffff168673ffffffffffffffffffffffffffffffffffffffff16146107ff576040517f08c379a00000000000000000000000000000000000000000000000000000000081526004016107f690611448565b60405180910390fd5b60006008898161080b57fe5b0490506000600160088b8161081c57fe5b0603905060005b8651811015610c79576000801b8a141561085d57828060019003935050836001016000848152602001908152602001600020549950600791505b6000806000808a858151811061086f57fe5b602002602001015190506000886000016000837bffffffffffffffffffffffffffffffffffffffffffffffffffffffff19167bffffffffffffffffffffffffffffffffffffffffffffffffffffffff19168152602001908152602001600020549050600073ffffffffffffffffffffffffffffffffffffffff168160601c73ffffffffffffffffffffffffffffffffffffffff161415610944576040517f08c379a000000000000000000000000000000000000000000000000000000000815260040161093b90611368565b60405180910390fd5b3073ffffffffffffffffffffffffffffffffffffffff168160601c73ffffffffffffffffffffffffffffffffffffffff1614156109b6576040517f08c379a00000000000000000000000000000000000000000000000000000000081526004016109ad906113e8565b60405180910390fd5b602087028f901b9450817bffffffffffffffffffffffffffffffffffffffffffffffffffffffff1916857bffffffffffffffffffffffffffffffffffffffffffffffffffffffff191614610ad257886000016000867bffffffffffffffffffffffffffffffffffffffffffffffffffffffff19167bffffffffffffffffffffffffffffffffffffffffffffffffffffffff19168152602001908152602001600020546bffffffffffffffffffffffff19166bffffffffffffffffffffffff60001b821617896000016000877bffffffffffffffffffffffffffffffffffffffffffffffffffffffff19167bffffffffffffffffffffffffffffffffffffffffffffffffffffffff19168152602001908152602001600020819055505b886000016000837bffffffffffffffffffffffffffffffffffffffffffffffffffffffff19167bffffffffffffffffffffffffffffffffffffffffffffffffffffffff191681526020019081526020016000206000905560008160001c61ffff16905060088181610b3f57fe5b049450602060088281610b4e57fe5b06029350505050858214610be657600087600101600084815260200190815260200160002054905081847bffffffffffffffffffffffffffffffffffffffffffffffffffffffff1916901c827fffffffff0000000000000000000000000000000000000000000000000000000060001b901c198216179050808860010160008581526020019081526020016000208190555050610c37565b80837bffffffffffffffffffffffffffffffffffffffffffffffffffffffff1916901c817fffffffff0000000000000000000000000000000000000000000000000000000060001b901c198e16179c505b6000851415610c6057866001016000878152602001908152602001600020600090556000801b9c505b8480600190039550505050508080600101915050610823565b5060018160088402010199505050610cc7565b6040517f08c379a0000000000000000000000000000000000000000000000000000000008152600401610cbe90611388565b60405180910390fd5b5b5b878792509250509550959350505050565b6000823b9050600081118290610d26576040517f08c379a0000000000000000000000000000000000000000000000000000000008152600401610d1d9190611326565b60405180910390fd5b50505050565b600081359050610d3b81611622565b92915050565b600082601f830112610d5257600080fd5b8135610d65610d6082611522565b6114f1565b91508181835260208401935060208101905083856020840282011115610d8a57600080fd5b60005b83811015610dba5781610da08882610dc4565b845260208401935060208301925050600181019050610d8d565b5050505092915050565b600081359050610dd381611639565b92915050565b60008060408385031215610dec57600080fd5b600083013567ffffffffffffffff811115610e0657600080fd5b610e1285828601610d41565b9250506020610e2385828601610d2c565b9150509250929050565b610e368161157c565b82525050565b6000610e478261154e565b610e518185611559565b9350610e618185602086016115dc565b610e6a81611611565b840191505092915050565b6000610e82602b83611559565b91507f4c69624469616d6f6e644375743a204e6f2073656c6563746f727320696e206660008301527f6163657420746f206375740000000000000000000000000000000000000000006020830152604082019050919050565b6000610ee8603783611559565b91507f4c69624469616d6f6e644375743a2043616e27742072656d6f76652066756e6360008301527f74696f6e207468617420646f65736e27742065786973740000000000000000006020830152604082019050919050565b6000610f4e602783611559565b91507f4c69624469616d6f6e644375743a20496e636f7272656374204661636574437560008301527f74416374696f6e000000000000000000000000000000000000000000000000006020830152604082019050919050565b6000610fb4602c83611559565b91507f4c69624469616d6f6e644375743a204164642066616365742063616e2774206260008301527f65206164647265737328302900000000000000000000000000000000000000006020830152604082019050919050565b600061101a603083611559565b91507f4c69624469616d6f6e644375743a205265706c6163652066616365742063616e60008301527f27742062652061646472657373283029000000000000000000000000000000006020830152604082019050919050565b6000611080602e83611559565b91507f4c69624469616d6f6e644375743a2043616e27742072656d6f766520696d6d7560008301527f7461626c652066756e6374696f6e0000000000000000000000000000000000006020830152604082019050919050565b60006110e6603583611559565b91507f4c69624469616d6f6e644375743a2043616e2774206164642066756e6374696f60008301527f6e207468617420616c72656164792065786973747300000000000000000000006020830152604082019050919050565b600061114c603883611559565b91507f4c69624469616d6f6e644375743a2043616e2774207265706c6163652066756e60008301527f6374696f6e20776974682073616d652066756e6374696f6e00000000000000006020830152604082019050919050565b60006111b2603683611559565b91507f4c69624469616d6f6e644375743a2052656d6f7665206661636574206164647260008301527f657373206d7573742062652061646472657373283029000000000000000000006020830152604082019050919050565b6000611218602f83611559565b91507f4c69624469616d6f6e644375743a2043616e2774207265706c61636520696d6d60008301527f757461626c652066756e6374696f6e00000000000000000000000000000000006020830152604082019050919050565b600061127e600983611559565b91507f4e4f545f4f574e455200000000000000000000000000000000000000000000006000830152602082019050919050565b60006112be603883611559565b91507f4c69624469616d6f6e644375743a2043616e2774207265706c6163652066756e60008301527f6374696f6e207468617420646f65736e277420657869737400000000000000006020830152604082019050919050565b611320816115d2565b82525050565b600060208201905081810360008301526113408184610e3c565b905092915050565b6000602082019050818103600083015261136181610e75565b9050919050565b6000602082019050818103600083015261138181610edb565b9050919050565b600060208201905081810360008301526113a181610f41565b9050919050565b600060208201905081810360008301526113c181610fa7565b9050919050565b600060208201905081810360008301526113e18161100d565b9050919050565b6000602082019050818103600083015261140181611073565b9050919050565b60006020820190508181036000830152611421816110d9565b9050919050565b600060208201905081810360008301526114418161113f565b9050919050565b60006020820190508181036000830152611461816111a5565b9050919050565b600060208201905081810360008301526114818161120b565b9050919050565b600060208201905081810360008301526114a181611271565b9050919050565b600060208201905081810360008301526114c1816112b1565b9050919050565b60006040820190506114dd6000830185611317565b6114ea6020830184610e2d565b9392505050565b6000604051905081810181811067ffffffffffffffff821117156115185761151761160f565b5b8060405250919050565b600067ffffffffffffffff82111561153d5761153c61160f565b5b602082029050602081019050919050565b600081519050919050565b600082825260208201905092915050565b6000611575826115b2565b9050919050565b6000819050919050565b60007fffffffff0000000000000000000000000000000000000000000000000000000082169050919050565b600073ffffffffffffffffffffffffffffffffffffffff82169050919050565b6000819050919050565b60005b838110156115fa5780820151818401526020810190506115df565b83811115611609576000848401525b50505050565bfe5b6000601f19601f8301169050919050565b61162b8161156a565b811461163657600080fd5b50565b61164281611586565b811461164d57600080fd5b5056fe4c69624469616d6f6e644375743a2041646420666163657420686173206e6f20636f64654c69624469616d6f6e644375743a205265706c61636520666163657420686173206e6f20636f6465a264697066735822122071d25518cfd8c0d82359c5194a3106538391223e66da4653da2899acddee797364736f6c63430007040033",
  "linkReferences": {},
  "deployedLinkReferences": {}
}