{
  "_format": "hh-sol-artifact-1",
  "contractName": "UpdateDiamond",
  "sourceName": "contracts/contracts/11-UpdateDiamond/UpdateDiamond.sol",
  "abi": [
    {
      "inputs": [
        {
          "internalType": "bytes4[]",
          "name": "_selectors",
          "type": "bytes4[]"
        },
        {
          "internalType": "address",
          "name": "_newAddress",
          "type": "address"
        }
      ],
      "name": "updateAssetPool",
      "outputs": [
        {
          "internalType": "uint256",
          "name": "",
          "type": "uint256"
        },
        {
          "internalType": "bytes32",
          "name": "",
          "type": "bytes32"
        }
      ],
      "stateMutability": "nonpayable",
      "type": "function"
    }
  ],
  "bytecode": "0x608060405234801561001057600080fd5b50610c50806100206000396000f3fe608060405234801561001057600080fd5b506004361061002b5760003560e01c80630d61cbee14610030575b600080fd5b61004361003e366004610659565b61005a565b604051610051929190610b9c565b60405180910390f35b600080336100666100b3565b600401546001600160a01b0316146100995760405162461bcd60e51b815260040161009090610b08565b60405180910390fd5b6100a8600080856001886100d7565b915091509250929050565b7fc8fcad8db84d3cc18b4c41d551ea0ee66dd599cde068d998e57d5e09332c131c90565b60008060006100e46100b3565b905060008451116101075760405162461bcd60e51b815260040161009090610766565b600085600281111561011557fe5b1415610244576001600160a01b0386166101415760405162461bcd60e51b81526004016100909061087d565b61016386604051806060016040528060248152602001610bcf602491396105fe565b60005b845181101561023e57600085828151811061017d57fe5b6020908102919091018101516001600160e01b03198116600090815291859052604090912054909150606081901c156101c85760405162461bcd60e51b815260040161009090610994565b6001600160e01b03198281166000818152602087815260409091206bffffffffffffffffffffffff1960608e901b168f17905560078e160290811c91811c199b909b16179960e081141561022f5760088c04600090815260018601602052604081209b909b555b50505060019889019801610166565b506105f2565b600185600281111561025257fe5b14156103ab576001600160a01b03861661027e5760405162461bcd60e51b8152600401610090906108da565b6102a086604051806060016040528060288152602001610bf3602891396105fe565b60005b845181101561023e5760008582815181106102ba57fe5b6020908102919091018101516001600160e01b03198116600090815291859052604090912054909150606081901c308114156103085760405162461bcd60e51b815260040161009090610aab565b896001600160a01b0316816001600160a01b0316141561033a5760405162461bcd60e51b8152600401610090906109f1565b6001600160a01b0381166103605760405162461bcd60e51b815260040161009090610b3f565b506001600160e01b031990911660009081526020849052604090206bffffffffffffffffffffffff919091166bffffffffffffffffffffffff1960608a901b161790556001016102a3565b60028560028111156103b957fe5b14156105da576001600160a01b038616156103e65760405162461bcd60e51b815260040161009090610a4e565b6008880460001960078a160160005b86518110156105c95789610422576000199092016000818152600185016020526040902054995091600791505b6000806000808a858151811061043457fe5b6020908102919091018101516001600160e01b031981166000908152918a9052604090912054909150606081901c61047e5760405162461bcd60e51b8152600401610090906107c3565b606081901c3014156104a25760405162461bcd60e51b815260040161009090610937565b602087028f901b94506001600160e01b0319808616908316146104fc576001600160e01b03198516600090815260208a90526040902080546bffffffffffffffffffffffff19166bffffffffffffffffffffffff83161790555b6001600160e01b03198216600090815260208a9052604081205561ffff8116600881049450600881066020029350505050858214610563576000828152600188016020526040902080546001600160e01b031980841c19909116908516831c17905561059c565b80837bffffffffffffffffffffffffffffffffffffffffffffffffffffffff1916901c816001600160e01b031960001b901c198e16179c505b846105b757600086815260018801602052604081208190559c505b505060001990920191506001016103f5565b5060016008909202010197506105f2565b60405162461bcd60e51b815260040161009090610820565b50959694955050505050565b813b818161061f5760405162461bcd60e51b81526004016100909190610713565b50505050565b80356001600160a01b038116811461063c57600080fd5b919050565b80356001600160e01b03198116811461063c57600080fd5b6000806040838503121561066b578182fd5b823567ffffffffffffffff80821115610682578384fd5b818501915085601f830112610695578384fd5b8135818111156106a157fe5b602091508181026106b3838201610baa565b8281528381019085850183870186018b10156106cd578889fd5b8896505b848710156106f6576106e281610641565b8352600196909601959185019185016106d1565b50965061070892505050858201610625565b925050509250929050565b6000602080835283518082850152825b8181101561073f57858101830151858201604001528201610723565b818111156107505783604083870101525b50601f01601f1916929092016040019392505050565b6020808252602b908201527f4c69624469616d6f6e644375743a204e6f2073656c6563746f727320696e206660408201527f6163657420746f20637574000000000000000000000000000000000000000000606082015260800190565b60208082526037908201527f4c69624469616d6f6e644375743a2043616e27742072656d6f76652066756e6360408201527f74696f6e207468617420646f65736e2774206578697374000000000000000000606082015260800190565b60208082526027908201527f4c69624469616d6f6e644375743a20496e636f7272656374204661636574437560408201527f74416374696f6e00000000000000000000000000000000000000000000000000606082015260800190565b6020808252602c908201527f4c69624469616d6f6e644375743a204164642066616365742063616e2774206260408201527f6520616464726573732830290000000000000000000000000000000000000000606082015260800190565b60208082526030908201527f4c69624469616d6f6e644375743a205265706c6163652066616365742063616e60408201527f2774206265206164647265737328302900000000000000000000000000000000606082015260800190565b6020808252602e908201527f4c69624469616d6f6e644375743a2043616e27742072656d6f766520696d6d7560408201527f7461626c652066756e6374696f6e000000000000000000000000000000000000606082015260800190565b60208082526035908201527f4c69624469616d6f6e644375743a2043616e2774206164642066756e6374696f60408201527f6e207468617420616c7265616479206578697374730000000000000000000000606082015260800190565b60208082526038908201527f4c69624469616d6f6e644375743a2043616e2774207265706c6163652066756e60408201527f6374696f6e20776974682073616d652066756e6374696f6e0000000000000000606082015260800190565b60208082526036908201527f4c69624469616d6f6e644375743a2052656d6f7665206661636574206164647260408201527f657373206d757374206265206164647265737328302900000000000000000000606082015260800190565b6020808252602f908201527f4c69624469616d6f6e644375743a2043616e2774207265706c61636520696d6d60408201527f757461626c652066756e6374696f6e0000000000000000000000000000000000606082015260800190565b60208082526009908201527f4e4f545f4f574e45520000000000000000000000000000000000000000000000604082015260600190565b60208082526038908201527f4c69624469616d6f6e644375743a2043616e2774207265706c6163652066756e60408201527f6374696f6e207468617420646f65736e27742065786973740000000000000000606082015260800190565b918252602082015260400190565b60405181810167ffffffffffffffff81118282101715610bc657fe5b60405291905056fe4c69624469616d6f6e644375743a2041646420666163657420686173206e6f20636f64654c69624469616d6f6e644375743a205265706c61636520666163657420686173206e6f20636f6465a26469706673582212208da5c894a3c53ca1628141724ba06e3d9ea0bef02a6ac1f6258bc8d4a6f2d21e64736f6c63430007040033",
  "linkReferences": {},
  "deployedLinkReferences": {}
}