{
  "_format": "hh-sol-artifact-1",
  "contractName": "GasStationFacet",
  "sourceName": "contracts/contracts/07-GasStation/GasStation.sol",
  "abi": [
    {
      "anonymous": false,
      "inputs": [
        {
          "indexed": false,
          "internalType": "bool",
          "name": "success",
          "type": "bool"
        },
        {
          "indexed": false,
          "internalType": "bytes",
          "name": "data",
          "type": "bytes"
        }
      ],
      "name": "Result",
      "type": "event"
    },
    {
      "inputs": [
        {
          "internalType": "bytes",
          "name": "_call",
          "type": "bytes"
        },
        {
          "internalType": "uint256",
          "name": "_nonce",
          "type": "uint256"
        },
        {
          "internalType": "bytes",
          "name": "_sig",
          "type": "bytes"
        }
      ],
      "name": "call",
      "outputs": [],
      "stateMutability": "nonpayable",
      "type": "function"
    },
    {
      "inputs": [],
      "name": "getGasStationAdmin",
      "outputs": [
        {
          "internalType": "address",
          "name": "",
          "type": "address"
        }
      ],
      "stateMutability": "view",
      "type": "function"
    },
    {
      "inputs": [
        {
          "internalType": "address",
          "name": "_signer",
          "type": "address"
        }
      ],
      "name": "getLatestNonce",
      "outputs": [
        {
          "internalType": "uint256",
          "name": "",
          "type": "uint256"
        }
      ],
      "stateMutability": "view",
      "type": "function"
    },
    {
      "inputs": [
        {
          "internalType": "address",
          "name": "_admin",
          "type": "address"
        }
      ],
      "name": "initializeGasStation",
      "outputs": [],
      "stateMutability": "nonpayable",
      "type": "function"
    },
    {
      "inputs": [
        {
          "internalType": "bool",
          "name": "_enabled",
          "type": "bool"
        }
      ],
      "name": "setSigning",
      "outputs": [],
      "stateMutability": "nonpayable",
      "type": "function"
    }
  ],
  "bytecode": "0x608060405234801561001057600080fd5b506108b9806100206000396000f3fe608060405234801561001057600080fd5b50600436106100675760003560e01c8063cd227c4d11610050578063cd227c4d146101db578063d88513d1146101fa578063df115cb21461021e57610067565b80635d40e1781461006c578063977a6be1146101a3575b600080fd5b6101a16004803603606081101561008257600080fd5b81019060208101813564010000000081111561009d57600080fd5b8201836020820111156100af57600080fd5b803590602001918460018302840111640100000000831117156100d157600080fd5b91908080601f0160208091040260200160405190810160405280939291908181526020018383808284376000920191909152509295843595909490935060408101925060200135905064010000000081111561012c57600080fd5b82018360208201111561013e57600080fd5b8035906020019184600183028401116401000000008311171561016057600080fd5b91908080601f016020809104026020016040519081016040528093929190818152602001838380828437600092019190915250929550610244945050505050565b005b6101c9600480360360208110156101b957600080fd5b50356001600160a01b031661056b565b60408051918252519081900360200190f35b6101a1600480360360208110156101f157600080fd5b50351515610597565b61020261061c565b604080516001600160a01b039092168252519081900360200190f35b6101a16004803603602081101561023457600080fd5b50356001600160a01b0316610635565b61024c61069a565b546001600160a01b031633146102a9576040805162461bcd60e51b815260206004820152600a60248201527f4f4e4c595f41444d494e00000000000000000000000000000000000000000000604482015290519081900360640190fd5b6102b161069a565b6003015460ff16610309576040805162461bcd60e51b815260206004820152601060248201527f5349474e494e475f44495341424c454400000000000000000000000000000000604482015290519081900360640190fd5b600061038184846040516020018083805190602001908083835b602083106103425780518252601f199092019160209182019101610323565b51815160209384036101000a60001901801990921691161790529201938452506040805180850381529382019052825192019190912091506106be9050565b9050600061038f828461070f565b905061039b8185610792565b60006060306001600160a01b031687846040516020018083805190602001908083835b602083106103dd5780518252601f1990920191602091820191016103be565b6001836020036101000a038019825116818451168082178552505050505050905001826001600160a01b031660601b8152601401925050506040516020818303038152906040526040518082805190602001908083835b602083106104535780518252601f199092019160209182019101610434565b6001836020036101000a0380198251168184511680821785525050505050509050019150506000604051808303816000865af19150503d80600081146104b5576040519150601f19603f3d011682016040523d82523d6000602084013e6104ba565b606091505b50915091507f9c8fce69d12b0d1b74922f842b082830121576bc2d7bed72fe98c14608c3facf828260405180831515815260200180602001828103825283818151815260200191508051906020019080838360005b8381101561052757818101518382015260200161050f565b50505050905090810190601f1680156105545780820380516001836020036101000a031916815260200191505b50935050505060405180910390a150505050505050565b600061057561069a565b6001600160a01b03929092166000908152600190920160205250604090205490565b61059f61069a565b546001600160a01b031633146105fe576040805162461bcd60e51b8152602060048083019190915260248201527f4155544800000000000000000000000000000000000000000000000000000000604482015290519081900360640190fd5b8061060761069a565b600301805460ff191691151591909117905550565b600061062661069a565b546001600160a01b0316905090565b61063d610830565b600401546001600160a01b0316331461065557600080fd5b8061065e61069a565b80547fffffffffffffffffffffffff0000000000000000000000000000000000000000166001600160a01b039290921691909117905560016106075b7f398f1bb3bb055f3a708011a338cde5bacad3feb355a3ebeb578943441de4b76f90565b604080517f19457468657265756d205369676e6564204d6573736167653a0a333200000000602080830191909152603c8083019490945282518083039094018452605c909101909152815191012090565b60008060008061071e85610854565b604080516000815260208082018084528c905260ff8616828401526060820185905260808201849052915194975092955090935060019260a080840193601f198301929081900390910190855afa15801561077d573d6000803e3d6000fd5b5050604051601f190151979650505050505050565b600061079c61069a565b6001600160a01b03841660009081526001808301602052604090912054919250018214610810576040805162461bcd60e51b815260206004820152600d60248201527f494e56414c49445f4e4f4e434500000000000000000000000000000000000000604482015290519081900360640190fd5b6001600160a01b0390921660009081526001909201602052604090912055565b7fc8fcad8db84d3cc18b4c41d551ea0ee66dd599cde068d998e57d5e09332c131c90565b6000806000835160411461086757600080fd5b5050506020810151604082015160609092015160001a9290919056fea2646970667358221220565e1ce5ef24c164711263564a3c9bcff81d85eb00c23760992f6eaa509dec0264736f6c63430007040033",
  "linkReferences": {},
  "deployedLinkReferences": {}
}