{
  "_format": "hh-sol-artifact-1",
  "contractName": "WithdrawPollFacet",
  "sourceName": "contracts/contracts/facets/PollFacet/WithdrawPollFacet.sol",
  "abi": [
    {
      "anonymous": false,
      "inputs": [
        {
          "indexed": false,
          "internalType": "uint256",
          "name": "id",
          "type": "uint256"
        },
        {
          "indexed": false,
          "internalType": "bool",
          "name": "approved",
          "type": "bool"
        }
      ],
      "name": "WithdrawPollFinalized",
      "type": "event"
    },
    {
      "anonymous": false,
      "inputs": [
        {
          "indexed": false,
          "internalType": "uint256",
          "name": "id",
          "type": "uint256"
        },
        {
          "indexed": true,
          "internalType": "address",
          "name": "member",
          "type": "address"
        }
      ],
      "name": "WithdrawPollRevokedVote",
      "type": "event"
    },
    {
      "anonymous": false,
      "inputs": [
        {
          "indexed": false,
          "internalType": "uint256",
          "name": "id",
          "type": "uint256"
        },
        {
          "indexed": true,
          "internalType": "address",
          "name": "member",
          "type": "address"
        },
        {
          "indexed": false,
          "internalType": "bool",
          "name": "vote",
          "type": "bool"
        }
      ],
      "name": "WithdrawPollVoted",
      "type": "event"
    },
    {
      "anonymous": false,
      "inputs": [
        {
          "indexed": false,
          "internalType": "uint256",
          "name": "id",
          "type": "uint256"
        },
        {
          "indexed": true,
          "internalType": "address",
          "name": "member",
          "type": "address"
        },
        {
          "indexed": false,
          "internalType": "uint256",
          "name": "reward",
          "type": "uint256"
        }
      ],
      "name": "Withdrawn",
      "type": "event"
    },
    {
      "inputs": [],
      "name": "_withdrawPollApprovalState",
      "outputs": [
        {
          "internalType": "bool",
          "name": "",
          "type": "bool"
        }
      ],
      "stateMutability": "view",
      "type": "function"
    },
    {
      "inputs": [],
      "name": "_withdrawPollFinalize",
      "outputs": [],
      "stateMutability": "nonpayable",
      "type": "function"
    },
    {
      "inputs": [],
      "name": "_withdrawPollRevokeVote",
      "outputs": [],
      "stateMutability": "nonpayable",
      "type": "function"
    },
    {
      "inputs": [
        {
          "internalType": "bool",
          "name": "_agree",
          "type": "bool"
        }
      ],
      "name": "_withdrawPollVote",
      "outputs": [],
      "stateMutability": "nonpayable",
      "type": "function"
    },
    {
      "inputs": [
        {
          "internalType": "uint256",
          "name": "_id",
          "type": "uint256"
        }
      ],
      "name": "getAmount",
      "outputs": [
        {
          "internalType": "uint256",
          "name": "",
          "type": "uint256"
        }
      ],
      "stateMutability": "view",
      "type": "function"
    },
    {
      "inputs": [
        {
          "internalType": "uint256",
          "name": "_id",
          "type": "uint256"
        }
      ],
      "name": "getBeneficiary",
      "outputs": [
        {
          "internalType": "uint256",
          "name": "",
          "type": "uint256"
        }
      ],
      "stateMutability": "view",
      "type": "function"
    }
  ],
  "bytecode": "0x608060405234801561001057600080fd5b5061138d806100206000396000f3fe608060405234801561001057600080fd5b50600436106100625760003560e01c8063302df083146100675780637bfefd65146100a95780637dad9c39146100c95780639980ec86146100d3578063b414838f14610115578063d18faaa814610145575b600080fd5b6100936004803603602081101561007d57600080fd5b810190808035906020019092919050505061014f565b6040518082815260200191505060405180910390f35b6100b1610165565b60405180821515815260200191505060405180910390f35b6100d161021d565b005b6100ff600480360360208110156100e957600080fd5b81019080803590602001909291905050506102c1565b6040518082815260200191505060405180910390f35b6101436004803603602081101561012b57600080fd5b810190808035151590602001909291905050506102d7565b005b61014d6103e7565b005b600061015a826104eb565b600001549050919050565b600080610170610502565b9050600061018182600001546104eb565b90506000816000015414156101fe576040517f08c379a00000000000000000000000000000000000000000000000000000000081526004018080602001828103825260118152602001807f4e4f545f57495448445241575f504f4c4c00000000000000000000000000000081525060200191505060405180910390fd5b6000610208610502565b90508060040154816003015411935050505090565b6000610227610502565b9050600061023882600001546104eb565b90506000816000015414156102b5576040517f08c379a00000000000000000000000000000000000000000000000000000000081526004018080602001828103825260118152602001807f4e4f545f57495448445241575f504f4c4c00000000000000000000000000000081525060200191505060405180910390fd5b6102bd610519565b5050565b60006102cc826104eb565b600101549050919050565b60006102e1610502565b905060006102f282600001546104eb565b905060008160000154141561036f576040517f08c379a00000000000000000000000000000000000000000000000000000000081526004018080602001828103825260118152602001807f4e4f545f57495448445241575f504f4c4c00000000000000000000000000000081525060200191505060405180910390fd5b610378836105df565b6103806108cc565b73ffffffffffffffffffffffffffffffffffffffff167fa9fd0834e2afbba73e314f3cf92c04a694d27ab99e31eb4ce8e51d57f7890d596103bf610502565b60000154856040518083815260200182151581526020019250505060405180910390a2505050565b60006103f1610502565b9050600061040282600001546104eb565b905060008160000154141561047f576040517f08c379a00000000000000000000000000000000000000000000000000000000081526004018080602001828103825260118152602001807f4e4f545f57495448445241575f504f4c4c00000000000000000000000000000081525060200191505060405180910390fd5b610487610941565b61048f6108cc565b73ffffffffffffffffffffffffffffffffffffffff167fee64e7a6623d1cff201c83363d0162fe855c5f1b7fc38f48bdb14968a1c8fb576104ce610502565b600001546040518082815260200191505060405180910390a25050565b6000806104f783610caa565b905080915050919050565b600061051461050f610cf6565b610d59565b905090565b6000610523610502565b9050806002015442101561059f576040517f08c379a000000000000000000000000000000000000000000000000000000000815260040180806020018281038252600b8152602001807f57524f4e475f535441544500000000000000000000000000000000000000000081525060200191505060405180910390fd5b6105ac8160000154610d63565b80600001600090558060010160009055806002016000905580600301600090558060040160009055806005016000905550565b60006105e9610502565b905080600101544210158015610603575080600201544211155b610675576040517f08c379a00000000000000000000000000000000000000000000000000000000081526004018080602001828103825260108152602001807f49535f4e4f5f56414c49445f54494d450000000000000000000000000000000081525060200191505060405180910390fd5b610686826106816108cc565b610f5b565b6000610690610502565b905060008160060160006106a26108cc565b73ffffffffffffffffffffffffffffffffffffffff1673ffffffffffffffffffffffffffffffffffffffff1681526020019081526020016000206000015414610753576040517f08c379a00000000000000000000000000000000000000000000000000000000081526004018080602001828103825260098152602001807f4841535f564f544544000000000000000000000000000000000000000000000081525060200191505060405180910390fd5b600060019050831561078357610776818360030154610fda90919063ffffffff16565b82600301819055506107a3565b61079a818360040154610fda90919063ffffffff16565b82600401819055505b428260060160006107b26108cc565b73ffffffffffffffffffffffffffffffffffffffff1673ffffffffffffffffffffffffffffffffffffffff16815260200190815260200160002060000181905550808260060160006108026108cc565b73ffffffffffffffffffffffffffffffffffffffff1673ffffffffffffffffffffffffffffffffffffffff16815260200190815260200160002060010181905550838260060160006108526108cc565b73ffffffffffffffffffffffffffffffffffffffff1673ffffffffffffffffffffffffffffffffffffffff16815260200190815260200160002060020160006101000a81548160ff0219169083151502179055506108be60018360050154610fda90919063ffffffff16565b826005018190555050505050565b600060606000368080601f016020809104026020016040519081016040528093929190818152602001838380828437600081840152601f19601f820116905080830192505050505050509050600080369050905073ffffffffffffffffffffffffffffffffffffffff81830151169250505090565b600061094b610502565b905080600101544210158015610965575080600201544211155b6109d7576040517f08c379a00000000000000000000000000000000000000000000000000000000081526004018080602001828103825260108152602001807f49535f4e4f5f56414c49445f54494d450000000000000000000000000000000081525060200191505060405180910390fd5b60006109e1610502565b905060006109ed6108cc565b905060008260060160008373ffffffffffffffffffffffffffffffffffffffff1673ffffffffffffffffffffffffffffffffffffffff1681526020019081526020016000206000015411610aa9576040517f08c379a000000000000000000000000000000000000000000000000000000000815260040180806020018281038252600d8152602001807f4841535f4e4f545f564f5445440000000000000000000000000000000000000081525060200191505060405180910390fd5b60008260060160008373ffffffffffffffffffffffffffffffffffffffff1673ffffffffffffffffffffffffffffffffffffffff16815260200190815260200160002060010154905060008360060160008473ffffffffffffffffffffffffffffffffffffffff1673ffffffffffffffffffffffffffffffffffffffff16815260200190815260200160002060020160009054906101000a900460ff16905060008460060160008573ffffffffffffffffffffffffffffffffffffffff1673ffffffffffffffffffffffffffffffffffffffff1681526020019081526020016000206000018190555060008460060160008573ffffffffffffffffffffffffffffffffffffffff1673ffffffffffffffffffffffffffffffffffffffff1681526020019081526020016000206001018190555060008460060160008573ffffffffffffffffffffffffffffffffffffffff1673ffffffffffffffffffffffffffffffffffffffff16815260200190815260200160002060020160006101000a81548160ff021916908315150217905550610c516001856005015461106290919063ffffffff16565b84600501819055508015610c8357610c7682856003015461106290919063ffffffff16565b8460030181905550610ca3565b610c9a82856004015461106290919063ffffffff16565b84600401819055505b5050505050565b6000816040516020018080602001838152602001828103825260288152602001806113306028913960400192505050604051602081830303815290604052805190602001209050919050565b600060606000368080601f016020809104026020016040519081016040528093929190818152602001838380828437600081840152601f19601f820116905080830192505050505050509050600060146000369050039050808201519250505090565b6000819050919050565b6000610d6d610165565b90506000610d7a836104eb565b90508115610f05576000610d8c6110ac565b60000160009054906101000a900473ffffffffffffffffffffffffffffffffffffffff1690506000610dbc6110d9565b60020160008460000154815260200190815260200160002060009054906101000a900473ffffffffffffffffffffffffffffffffffffffff1690508173ffffffffffffffffffffffffffffffffffffffff1663a9059cbb8285600101546040518363ffffffff1660e01b8152600401808373ffffffffffffffffffffffffffffffffffffffff16815260200182815260200192505050602060405180830381600087803b158015610e6c57600080fd5b505af1158015610e80573d6000803e3d6000fd5b505050506040513d6020811015610e9657600080fd5b8101908080519060200190929190505050508073ffffffffffffffffffffffffffffffffffffffff167fcf7d23a3cbe4e8b36ff82fd1b05b1b17373dc7804b4ebbd6e2356716ef202372868560010154604051808381526020018281526020019250505060405180910390a250505b7fa207d5145c3030050ff72fa91f5f37445b6aa4850cf1f03c11c24b5f7dd4583383836040518083815260200182151581526020019250505060405180910390a180600001600090558060010160009055505050565b610f6481611106565b610fd6576040517f08c379a000000000000000000000000000000000000000000000000000000000815260040180806020018281038252600a8152602001807f4e4f5f4d414e414745520000000000000000000000000000000000000000000081525060200191505060405180910390fd5b5050565b600080828401905083811015611058576040517f08c379a000000000000000000000000000000000000000000000000000000000815260040180806020018281038252601b8152602001807f536166654d6174683a206164646974696f6e206f766572666c6f77000000000081525060200191505060405180910390fd5b8091505092915050565b60006110a483836040518060400160405280601e81526020017f536166654d6174683a207375627472616374696f6e206f766572666c6f770000815250611181565b905092915050565b6000807fd05d8ab03eb42dd030db61fb625331fb04ca5b3f470fcdd3fc8f27498b9c9f0090508091505090565b6000807f6282190449f76f72a9f692e4d8619a03764b7253394788948e36a7a57ba4a00e90508091505090565b600061117a7f241ecf16d79d0f8dbfb92cbc07fe17840425976cf0667f022fe9877caa831b086111346110d9565b60010160008573ffffffffffffffffffffffffffffffffffffffff1673ffffffffffffffffffffffffffffffffffffffff16815260200190815260200160002054611241565b9050919050565b600083831115829061122e576040517f08c379a00000000000000000000000000000000000000000000000000000000081526004018080602001828103825283818151815260200191508051906020019080838360005b838110156111f35780820151818401526020810190506111d8565b50505050905090810190601f1680156112205780820380516001836020036101000a031916815260200191505b509250505060405180910390fd5b5060008385039050809150509392505050565b6000808214156112b9576040517f08c379a00000000000000000000000000000000000000000000000000000000081526004018080602001828103825260098152602001807f4e4f545f5345545550000000000000000000000000000000000000000000000081525060200191505060405180910390fd5b6112ea826112c56110d9565b60030160008681526020019081526020016000206000016112f290919063ffffffff16565b905092915050565b6000611304836000018360001b61130c565b905092915050565b60008083600101600084815260200190815260200160002054141590509291505056fe6469616d6f6e642e636f6e74726163742e6173736574706f6f6c2e776974686472617764706f6c6ca264697066735822122095c7d7e8505ea7456b3cfdbd3fe89351e2a23433594ffa1e5b89c25f47f7f73864736f6c63430007040033",
  "linkReferences": {},
  "deployedLinkReferences": {}
}