{
  "_format": "hh-sol-artifact-1",
  "contractName": "WithdrawByPollProxy",
  "sourceName": "contracts/contracts/09-WithdrawBypass/WithdrawByPollProxy.sol",
  "abi": [
    {
      "inputs": [
        {
          "internalType": "uint256",
          "name": "_id",
          "type": "uint256"
        }
      ],
      "name": "withdrawPollApprovalState",
      "outputs": [
        {
          "internalType": "bool",
          "name": "",
          "type": "bool"
        }
      ],
      "stateMutability": "view",
      "type": "function"
    },
    {
      "inputs": [
        {
          "internalType": "uint256",
          "name": "_id",
          "type": "uint256"
        }
      ],
      "name": "withdrawPollFinalize",
      "outputs": [],
      "stateMutability": "nonpayable",
      "type": "function"
    },
    {
      "inputs": [
        {
          "internalType": "uint256",
          "name": "_id",
          "type": "uint256"
        }
      ],
      "name": "withdrawPollRevokeVote",
      "outputs": [],
      "stateMutability": "nonpayable",
      "type": "function"
    },
    {
      "inputs": [
        {
          "internalType": "uint256",
          "name": "_id",
          "type": "uint256"
        },
        {
          "internalType": "bool",
          "name": "_agree",
          "type": "bool"
        }
      ],
      "name": "withdrawPollVote",
      "outputs": [],
      "stateMutability": "nonpayable",
      "type": "function"
    }
  ],
  "bytecode": "0x608060405234801561001057600080fd5b50610b44806100206000396000f3fe608060405234801561001057600080fd5b506004361061004c5760003560e01c80631788971814610051578063283f28c3146100815780634543b9871461009d578063649dccae146100b9575b600080fd5b61006b60048036038101906100669190610821565b6100d5565b604051610078919061097d565b60405180910390f35b61009b60048036038101906100969190610821565b61026c565b005b6100b760048036038101906100b29190610821565b6103ec565b005b6100d360048036038101906100ce919061084a565b61056c565b005b6000806100e1836106f8565b905060007f7bfefd655d36ca23c3916d0bd77fe74fbd3ed5f317515b2e5236aee36d7062999050606081604051602401604051602081830303815290604052907bffffffffffffffffffffffffffffffffffffffffffffffffffffffff19166020820180517bffffffffffffffffffffffffffffffffffffffffffffffffffffffff83818316178352505050509050600060603073ffffffffffffffffffffffffffffffffffffffff168386610195610744565b6040516020016101a793929190610944565b6040516020818303038152906040526040516101c3919061092d565b600060405180830381855afa9150503d80600081146101fe576040519150601f19603f3d011682016040523d82523d6000602084013e610203565b606091505b509150915081819061024b576040517f08c379a00000000000000000000000000000000000000000000000000000000081526004016102429190610998565b60405180910390fd5b508080602001905181019061026091906107f8565b95505050505050919050565b6000610277826106f8565b905060007fd18faaa840a79f1e4b9b058ae7c9ff6e61c00891336c23ac82d3b326438f43659050606081604051602401604051602081830303815290604052907bffffffffffffffffffffffffffffffffffffffffffffffffffffffff19166020820180517bffffffffffffffffffffffffffffffffffffffffffffffffffffffff83818316178352505050509050600060603073ffffffffffffffffffffffffffffffffffffffff16838661032b610744565b60405160200161033d93929190610944565b604051602081830303815290604052604051610359919061092d565b6000604051808303816000865af19150503d8060008114610396576040519150601f19603f3d011682016040523d82523d6000602084013e61039b565b606091505b50915091508181906103e3576040517f08c379a00000000000000000000000000000000000000000000000000000000081526004016103da9190610998565b60405180910390fd5b50505050505050565b60006103f7826106f8565b905060007f7dad9c397eb20be9605d8083df025b5ac2e53bed5a20e7dae801fa06502589d79050606081604051602401604051602081830303815290604052907bffffffffffffffffffffffffffffffffffffffffffffffffffffffff19166020820180517bffffffffffffffffffffffffffffffffffffffffffffffffffffffff83818316178352505050509050600060603073ffffffffffffffffffffffffffffffffffffffff1683866104ab610744565b6040516020016104bd93929190610944565b6040516020818303038152906040526040516104d9919061092d565b6000604051808303816000865af19150503d8060008114610516576040519150601f19603f3d011682016040523d82523d6000602084013e61051b565b606091505b5091509150818190610563576040517f08c379a000000000000000000000000000000000000000000000000000000000815260040161055a9190610998565b60405180910390fd5b50505050505050565b6000610577836106f8565b905060007fb414838fe14d2b937b45b9b5df6d6e1aba8526175e8a2d17886b236a684618869050606081846040516024016105b2919061097d565b604051602081830303815290604052907bffffffffffffffffffffffffffffffffffffffffffffffffffffffff19166020820180517bffffffffffffffffffffffffffffffffffffffffffffffffffffffff83818316178352505050509050600060603073ffffffffffffffffffffffffffffffffffffffff168386610636610744565b60405160200161064893929190610944565b604051602081830303815290604052604051610664919061092d565b6000604051808303816000865af19150503d80600081146106a1576040519150601f19603f3d011682016040523d82523d6000602084013e6106a6565b606091505b50915091508181906106ee576040517f08c379a00000000000000000000000000000000000000000000000000000000081526004016106e59190610998565b60405180910390fd5b5050505050505050565b600081604051602001808060200183815260200182810382526023815260200180610aec6023913960400192505050604051602081830303815290604052805190602001209050919050565b600060606000368080601f016020809104026020016040519081016040528093929190818152602001838380828437600081840152601f19601f820116905080830192505050505050509050600080369050905073ffffffffffffffffffffffffffffffffffffffff81830151169250505090565b6000813590506107c881610abd565b92915050565b6000815190506107dd81610abd565b92915050565b6000813590506107f281610ad4565b92915050565b60006020828403121561080a57600080fd5b6000610818848285016107ce565b91505092915050565b60006020828403121561083357600080fd5b6000610841848285016107e3565b91505092915050565b6000806040838503121561085d57600080fd5b600061086b858286016107e3565b925050602061087c858286016107b9565b9150509250929050565b610897610892826109ec565b610a71565b82525050565b6108a6816109fe565b82525050565b6108bd6108b882610a0a565b610a83565b82525050565b60006108ce826109ba565b6108d881856109d0565b93506108e8818560208601610a3e565b80840191505092915050565b60006108ff826109c5565b61090981856109db565b9350610919818560208601610a3e565b61092281610a9f565b840191505092915050565b600061093982846108c3565b915081905092915050565b600061095082866108c3565b915061095c82856108ac565b60208201915061096c8284610886565b601482019150819050949350505050565b6000602082019050610992600083018461089d565b92915050565b600060208201905081810360008301526109b281846108f4565b905092915050565b600081519050919050565b600081519050919050565b600081905092915050565b600082825260208201905092915050565b60006109f782610a14565b9050919050565b60008115159050919050565b6000819050919050565b600073ffffffffffffffffffffffffffffffffffffffff82169050919050565b6000819050919050565b60005b83811015610a5c578082015181840152602081019050610a41565b83811115610a6b576000848401525b50505050565b6000610a7c82610a8d565b9050919050565b6000819050919050565b6000610a9882610ab0565b9050919050565b6000601f19601f8301169050919050565b60008160601b9050919050565b610ac6816109fe565b8114610ad157600080fd5b50565b610add81610a34565b8114610ae857600080fd5b5056fe6469616d6f6e642e636f6e74726163742e6173736574706f6f6c2e62617365706f6c6ca264697066735822122017ae335f7fccd4efc320c9b86a48c48b86423cec13a6a2b36920fbaf5ec504ae64736f6c63430007040033",
  "linkReferences": {},
  "deployedLinkReferences": {}
}