{
  "_format": "hh-sol-artifact-1",
  "contractName": "WithdrawByPollProxy",
  "sourceName": "contracts/contracts/09-WithdrawBypass/WithdrawByPollProxy.sol",
  "abi": [
    {
      "inputs": [
        {
          "internalType": "uint256",
          "name": "_id",
          "type": "uint256"
        }
      ],
      "name": "withdrawPollApprovalState",
      "outputs": [
        {
          "internalType": "bool",
          "name": "",
          "type": "bool"
        }
      ],
      "stateMutability": "view",
      "type": "function"
    },
    {
      "inputs": [
        {
          "internalType": "uint256",
          "name": "_id",
          "type": "uint256"
        }
      ],
      "name": "withdrawPollFinalize",
      "outputs": [],
      "stateMutability": "nonpayable",
      "type": "function"
    },
    {
      "inputs": [
        {
          "internalType": "uint256",
          "name": "_id",
          "type": "uint256"
        }
      ],
      "name": "withdrawPollRevokeVote",
      "outputs": [],
      "stateMutability": "nonpayable",
      "type": "function"
    },
    {
      "inputs": [
        {
          "internalType": "uint256",
          "name": "_id",
          "type": "uint256"
        },
        {
          "internalType": "bool",
          "name": "_agree",
          "type": "bool"
        }
      ],
      "name": "withdrawPollVote",
      "outputs": [],
      "stateMutability": "nonpayable",
      "type": "function"
    }
  ],
  "bytecode": "0x608060405234801561001057600080fd5b5061070a806100206000396000f3fe608060405234801561001057600080fd5b506004361061004c5760003560e01c80631788971814610051578063283f28c31461007a5780634543b9871461008f578063649dccae146100a2575b600080fd5b61006461005f366004610596565b6100b5565b6040516100719190610632565b60405180910390f35b61008d610088366004610596565b6101f1565b005b61008d61009d366004610596565b61030e565b61008d6100b03660046105ae565b61038f565b6000806100c1836104cd565b6040805160048152602481019091526020810180516001600160e01b03167f7bfefd65000000000000000000000000000000000000000000000000000000001790529091507f7bfefd655d36ca23c3916d0bd77fe74fbd3ed5f317515b2e5236aee36d7062999060006060308386610137610519565b604051602001610149939291906105f9565b60408051601f1981840301815290829052610163916105dd565b600060405180830381855afa9150503d806000811461019e576040519150601f19603f3d011682016040523d82523d6000602084013e6101a3565b606091505b50915091508181906101d15760405162461bcd60e51b81526004016101c8919061063d565b60405180910390fd5b50808060200190518101906101e69190610573565b979650505050505050565b60006101fc826104cd565b6040805160048152602481019091526020810180516001600160e01b03167fd18faaa8000000000000000000000000000000000000000000000000000000001790529091507fd18faaa840a79f1e4b9b058ae7c9ff6e61c00891336c23ac82d3b326438f43659060006060308386610272610519565b604051602001610284939291906105f9565b60408051601f198184030181529082905261029e916105dd565b6000604051808303816000865af19150503d80600081146102db576040519150601f19603f3d011682016040523d82523d6000602084013e6102e0565b606091505b50915091508181906103055760405162461bcd60e51b81526004016101c8919061063d565b50505050505050565b6000610319826104cd565b6040805160048152602481019091526020810180516001600160e01b03167f7dad9c39000000000000000000000000000000000000000000000000000000001790529091507f7dad9c397eb20be9605d8083df025b5ac2e53bed5a20e7dae801fa06502589d79060006060308386610272610519565b600061039a836104cd565b905060007fb414838fe14d2b937b45b9b5df6d6e1aba8526175e8a2d17886b236a684618869050606081846040516024016103d59190610632565b60408051601f198184030181529190526020810180516001600160e01b03167fffffffff0000000000000000000000000000000000000000000000000000000090931692909217909152905060006060308386610430610519565b604051602001610442939291906105f9565b60408051601f198184030181529082905261045c916105dd565b6000604051808303816000865af19150503d8060008114610499576040519150601f19603f3d011682016040523d82523d6000602084013e61049e565b606091505b50915091508181906104c35760405162461bcd60e51b81526004016101c8919061063d565b5050505050505050565b6000816040516020018080602001838152602001828103825260238152602001806106b26023913960400192505050604051602081830303815290604052805190602001209050919050565b600060606000368080601f01602080910402602001604051908101604052809392919081815260200183838082843760009201919091525050505036015173ffffffffffffffffffffffffffffffffffffffff1692915050565b600060208284031215610584578081fd5b815161058f816106a0565b9392505050565b6000602082840312156105a7578081fd5b5035919050565b600080604083850312156105c0578081fd5b8235915060208301356105d2816106a0565b809150509250929050565b600082516105ef818460208701610670565b9190910192915050565b6000845161060b818460208901610670565b919091019283525060601b6bffffffffffffffffffffffff19166020820152603401919050565b901515815260200190565b600060208252825180602084015261065c816040850160208701610670565b601f01601f19169190910160400192915050565b60005b8381101561068b578181015183820152602001610673565b8381111561069a576000848401525b50505050565b80151581146106ae57600080fd5b5056fe6469616d6f6e642e636f6e74726163742e6173736574706f6f6c2e62617365706f6c6ca2646970667358221220b4d6bb5adc67879fde2f04f21a43bd6d619972335b0f7ac5d1caeea9fa3f855264736f6c63430007040033",
  "linkReferences": {},
  "deployedLinkReferences": {}
}