{
  "_format": "hh-sol-artifact-1",
  "contractName": "BasePollProxy",
  "sourceName": "contracts/contracts/08-BasePoll/BasePollProxy.sol",
  "abi": [
    {
      "inputs": [
        {
          "internalType": "uint256",
          "name": "_id",
          "type": "uint256"
        }
      ],
      "name": "getEndTime",
      "outputs": [
        {
          "internalType": "uint256",
          "name": "",
          "type": "uint256"
        }
      ],
      "stateMutability": "view",
      "type": "function"
    },
    {
      "inputs": [
        {
          "internalType": "uint256",
          "name": "_id",
          "type": "uint256"
        }
      ],
      "name": "getNoCounter",
      "outputs": [
        {
          "internalType": "uint256",
          "name": "",
          "type": "uint256"
        }
      ],
      "stateMutability": "view",
      "type": "function"
    },
    {
      "inputs": [
        {
          "internalType": "uint256",
          "name": "_id",
          "type": "uint256"
        }
      ],
      "name": "getStartTime",
      "outputs": [
        {
          "internalType": "uint256",
          "name": "",
          "type": "uint256"
        }
      ],
      "stateMutability": "view",
      "type": "function"
    },
    {
      "inputs": [
        {
          "internalType": "uint256",
          "name": "_id",
          "type": "uint256"
        }
      ],
      "name": "getTotalVoted",
      "outputs": [
        {
          "internalType": "uint256",
          "name": "",
          "type": "uint256"
        }
      ],
      "stateMutability": "view",
      "type": "function"
    },
    {
      "inputs": [
        {
          "internalType": "uint256",
          "name": "_id",
          "type": "uint256"
        },
        {
          "internalType": "address",
          "name": "_address",
          "type": "address"
        }
      ],
      "name": "getVoteByAddress",
      "outputs": [
        {
          "components": [
            {
              "internalType": "uint256",
              "name": "time",
              "type": "uint256"
            },
            {
              "internalType": "uint256",
              "name": "weight",
              "type": "uint256"
            },
            {
              "internalType": "bool",
              "name": "agree",
              "type": "bool"
            }
          ],
          "internalType": "struct LibBasePollStorage.Vote",
          "name": "",
          "type": "tuple"
        }
      ],
      "stateMutability": "view",
      "type": "function"
    },
    {
      "inputs": [
        {
          "internalType": "uint256",
          "name": "_id",
          "type": "uint256"
        }
      ],
      "name": "getYesCounter",
      "outputs": [
        {
          "internalType": "uint256",
          "name": "",
          "type": "uint256"
        }
      ],
      "stateMutability": "view",
      "type": "function"
    }
  ],
  "bytecode": "0x608060405234801561001057600080fd5b50610349806100206000396000f3fe608060405234801561001057600080fd5b50600436106100725760003560e01c8063bc2be1be11610050578063bc2be1be146100c6578063f0738fad146100d9578063f94e85d6146100ec57610072565b80637b1b130e146100775780638e308119146100a05780639067b677146100b3575b600080fd5b61008a610085366004610265565b61010c565b60405161009791906102e7565b60405180910390f35b61008a6100ae366004610265565b610121565b61008a6100c1366004610265565b610136565b61008a6100d4366004610265565b61014b565b61008a6100e7366004610265565b610160565b6100ff6100fa36600461027d565b610175565b60405161009791906102c4565b6000610117826101e3565b6003015492915050565b600061012c826101e3565b6005015492915050565b6000610141826101e3565b6002015492915050565b6000610156826101e3565b6001015492915050565b600061016b826101e3565b6004015492915050565b61017d610242565b610186836101e3565b73ffffffffffffffffffffffffffffffffffffffff8316600090815260069190910160209081526040918290208251606081018452815481526001820154928101929092526002015460ff16151591810191909152905092915050565b6000806101ef836101f6565b9392505050565b6000816040516020018080602001838152602001828103825260238152602001806102f16023913960400192505050604051602081830303815290604052805190602001209050919050565b604051806060016040528060008152602001600081526020016000151581525090565b600060208284031215610276578081fd5b5035919050565b6000806040838503121561028f578081fd5b82359150602083013573ffffffffffffffffffffffffffffffffffffffff811681146102b9578182fd5b809150509250929050565b815181526020808301519082015260409182015115159181019190915260600190565b9081526020019056fe6469616d6f6e642e636f6e74726163742e6173736574706f6f6c2e62617365706f6c6ca2646970667358221220c5a9f4df5a007947d25a56a731532fc780665450cbc5aec90a9371e21fd80d7064736f6c63430007040033",
  "linkReferences": {},
  "deployedLinkReferences": {}
}