{
  "_format": "hh-sol-artifact-1",
  "contractName": "BasePollProxy",
  "sourceName": "contracts/contracts/08-BasePoll/BasePollProxy.sol",
  "abi": [
    {
      "inputs": [
        {
          "internalType": "uint256",
          "name": "_id",
          "type": "uint256"
        }
      ],
      "name": "getEndTime",
      "outputs": [
        {
          "internalType": "uint256",
          "name": "",
          "type": "uint256"
        }
      ],
      "stateMutability": "view",
      "type": "function"
    },
    {
      "inputs": [
        {
          "internalType": "uint256",
          "name": "_id",
          "type": "uint256"
        }
      ],
      "name": "getNoCounter",
      "outputs": [
        {
          "internalType": "uint256",
          "name": "",
          "type": "uint256"
        }
      ],
      "stateMutability": "view",
      "type": "function"
    },
    {
      "inputs": [
        {
          "internalType": "uint256",
          "name": "_id",
          "type": "uint256"
        }
      ],
      "name": "getStartTime",
      "outputs": [
        {
          "internalType": "uint256",
          "name": "",
          "type": "uint256"
        }
      ],
      "stateMutability": "view",
      "type": "function"
    },
    {
      "inputs": [
        {
          "internalType": "uint256",
          "name": "_id",
          "type": "uint256"
        }
      ],
      "name": "getTotalVoted",
      "outputs": [
        {
          "internalType": "uint256",
          "name": "",
          "type": "uint256"
        }
      ],
      "stateMutability": "view",
      "type": "function"
    },
    {
      "inputs": [
        {
          "internalType": "uint256",
          "name": "_id",
          "type": "uint256"
        },
        {
          "internalType": "address",
          "name": "_address",
          "type": "address"
        }
      ],
      "name": "getVoteByAddress",
      "outputs": [
        {
          "components": [
            {
              "internalType": "uint256",
              "name": "time",
              "type": "uint256"
            },
            {
              "internalType": "uint256",
              "name": "weight",
              "type": "uint256"
            },
            {
              "internalType": "bool",
              "name": "agree",
              "type": "bool"
            }
          ],
          "internalType": "struct LibBasePollStorage.Vote",
          "name": "",
          "type": "tuple"
        }
      ],
      "stateMutability": "view",
      "type": "function"
    },
    {
      "inputs": [
        {
          "internalType": "uint256",
          "name": "_id",
          "type": "uint256"
        }
      ],
      "name": "getYesCounter",
      "outputs": [
        {
          "internalType": "uint256",
          "name": "",
          "type": "uint256"
        }
      ],
      "stateMutability": "view",
      "type": "function"
    }
  ],
  "bytecode": "0x608060405234801561001057600080fd5b50610511806100206000396000f3fe608060405234801561001057600080fd5b50600436106100625760003560e01c80637b1b130e146100675780638e308119146100975780639067b677146100c7578063bc2be1be146100f7578063f0738fad14610127578063f94e85d614610157575b600080fd5b610081600480360381019061007c9190610338565b610187565b60405161008e9190610427565b60405180910390f35b6100b160048036038101906100ac9190610338565b61019d565b6040516100be9190610427565b60405180910390f35b6100e160048036038101906100dc9190610338565b6101b3565b6040516100ee9190610427565b60405180910390f35b610111600480360381019061010c9190610338565b6101c9565b60405161011e9190610427565b60405180910390f35b610141600480360381019061013c9190610338565b6101df565b60405161014e9190610427565b60405180910390f35b610171600480360381019061016c9190610361565b6101f5565b60405161017e919061040c565b60405180910390f35b600061019282610288565b600301549050919050565b60006101a882610288565b600501549050919050565b60006101be82610288565b600201549050919050565b60006101d482610288565b600101549050919050565b60006101ea82610288565b600401549050919050565b6101fd6102eb565b61020683610288565b60060160008373ffffffffffffffffffffffffffffffffffffffff1673ffffffffffffffffffffffffffffffffffffffff16815260200190815260200160002060405180606001604052908160008201548152602001600182015481526020016002820160009054906101000a900460ff161515151581525050905092915050565b6000806102948361029f565b905080915050919050565b6000816040516020018080602001838152602001828103825260238152602001806104b96023913960400192505050604051602081830303815290604052805190602001209050919050565b604051806060016040528060008152602001600081526020016000151581525090565b60008135905061031d8161048a565b92915050565b600081359050610332816104a1565b92915050565b60006020828403121561034a57600080fd5b600061035884828501610323565b91505092915050565b6000806040838503121561037457600080fd5b600061038285828601610323565b92505060206103938582860161030e565b9150509250929050565b6103a681610454565b82525050565b6060820160008201516103c260008501826103ee565b5060208201516103d560208501826103ee565b5060408201516103e8604085018261039d565b50505050565b6103f781610480565b82525050565b61040681610480565b82525050565b600060608201905061042160008301846103ac565b92915050565b600060208201905061043c60008301846103fd565b92915050565b600061044d82610460565b9050919050565b60008115159050919050565b600073ffffffffffffffffffffffffffffffffffffffff82169050919050565b6000819050919050565b61049381610442565b811461049e57600080fd5b50565b6104aa81610480565b81146104b557600080fd5b5056fe6469616d6f6e642e636f6e74726163742e6173736574706f6f6c2e62617365706f6c6ca26469706673582212201d75b5e083bdddcc4f6feca2b22d2ecbccbbfee6e83e8b340827c11db63f330964736f6c63430007040033",
  "linkReferences": {},
  "deployedLinkReferences": {}
}