{
  "_format": "hh-sol-artifact-1",
  "contractName": "WithdrawPoll",
  "sourceName": "contracts/contracts/05-Withdraw/WithdrawPoll.sol",
  "abi": [
    {
      "anonymous": false,
      "inputs": [
        {
          "indexed": true,
          "internalType": "bytes32",
          "name": "role",
          "type": "bytes32"
        },
        {
          "indexed": true,
          "internalType": "bytes32",
          "name": "previousAdminRole",
          "type": "bytes32"
        },
        {
          "indexed": true,
          "internalType": "bytes32",
          "name": "newAdminRole",
          "type": "bytes32"
        }
      ],
      "name": "RoleAdminChanged",
      "type": "event"
    },
    {
      "anonymous": false,
      "inputs": [
        {
          "indexed": true,
          "internalType": "bytes32",
          "name": "role",
          "type": "bytes32"
        },
        {
          "indexed": true,
          "internalType": "address",
          "name": "account",
          "type": "address"
        },
        {
          "indexed": true,
          "internalType": "address",
          "name": "sender",
          "type": "address"
        }
      ],
      "name": "RoleGranted",
      "type": "event"
    },
    {
      "anonymous": false,
      "inputs": [
        {
          "indexed": true,
          "internalType": "bytes32",
          "name": "role",
          "type": "bytes32"
        },
        {
          "indexed": true,
          "internalType": "address",
          "name": "account",
          "type": "address"
        },
        {
          "indexed": true,
          "internalType": "address",
          "name": "sender",
          "type": "address"
        }
      ],
      "name": "RoleRevoked",
      "type": "event"
    },
    {
      "anonymous": false,
      "inputs": [
        {
          "indexed": false,
          "internalType": "uint256",
          "name": "id",
          "type": "uint256"
        },
        {
          "indexed": false,
          "internalType": "bool",
          "name": "approved",
          "type": "bool"
        }
      ],
      "name": "WithdrawPollFinalized",
      "type": "event"
    },
    {
      "anonymous": false,
      "inputs": [
        {
          "indexed": false,
          "internalType": "uint256",
          "name": "id",
          "type": "uint256"
        },
        {
          "indexed": true,
          "internalType": "address",
          "name": "member",
          "type": "address"
        }
      ],
      "name": "WithdrawPollRevokedVote",
      "type": "event"
    },
    {
      "anonymous": false,
      "inputs": [
        {
          "indexed": false,
          "internalType": "uint256",
          "name": "id",
          "type": "uint256"
        },
        {
          "indexed": true,
          "internalType": "address",
          "name": "member",
          "type": "address"
        },
        {
          "indexed": false,
          "internalType": "bool",
          "name": "vote",
          "type": "bool"
        }
      ],
      "name": "WithdrawPollVoted",
      "type": "event"
    },
    {
      "anonymous": false,
      "inputs": [
        {
          "indexed": false,
          "internalType": "uint256",
          "name": "id",
          "type": "uint256"
        },
        {
          "indexed": true,
          "internalType": "address",
          "name": "member",
          "type": "address"
        },
        {
          "indexed": false,
          "internalType": "uint256",
          "name": "reward",
          "type": "uint256"
        }
      ],
      "name": "Withdrawn",
      "type": "event"
    },
    {
      "inputs": [],
      "name": "_withdrawPollApprovalState",
      "outputs": [
        {
          "internalType": "bool",
          "name": "",
          "type": "bool"
        }
      ],
      "stateMutability": "view",
      "type": "function"
    },
    {
      "inputs": [],
      "name": "_withdrawPollFinalize",
      "outputs": [],
      "stateMutability": "nonpayable",
      "type": "function"
    },
    {
      "inputs": [],
      "name": "_withdrawPollRevokeVote",
      "outputs": [],
      "stateMutability": "nonpayable",
      "type": "function"
    },
    {
      "inputs": [
        {
          "internalType": "bool",
          "name": "_agree",
          "type": "bool"
        }
      ],
      "name": "_withdrawPollVote",
      "outputs": [],
      "stateMutability": "nonpayable",
      "type": "function"
    },
    {
      "inputs": [
        {
          "internalType": "uint256",
          "name": "_id",
          "type": "uint256"
        }
      ],
      "name": "getAmount",
      "outputs": [
        {
          "internalType": "uint256",
          "name": "",
          "type": "uint256"
        }
      ],
      "stateMutability": "view",
      "type": "function"
    },
    {
      "inputs": [
        {
          "internalType": "uint256",
          "name": "_id",
          "type": "uint256"
        }
      ],
      "name": "getBeneficiary",
      "outputs": [
        {
          "internalType": "uint256",
          "name": "",
          "type": "uint256"
        }
      ],
      "stateMutability": "view",
      "type": "function"
    }
  ],
  "bytecode": "0x608060405234801561001057600080fd5b50611820806100206000396000f3fe608060405234801561001057600080fd5b50600436106100625760003560e01c8063302df083146100675780637bfefd65146100975780637dad9c39146100b55780639980ec86146100bf578063b414838f146100ef578063d18faaa81461010b575b600080fd5b610081600480360381019061007c919061158f565b610115565b60405161008e91906116b1565b60405180910390f35b61009f61012b565b6040516100ac9190611656565b60405180910390f35b6100bd6101b0565b005b6100d960048036038101906100d4919061158f565b610221565b6040516100e691906116b1565b60405180910390f35b61010960048036038101906101049190611566565b610237565b005b61011361030c565b005b6000610120826103dd565b600001549050919050565b6000806101366103f4565b9050600061014782600001546103dd565b9050600081600001541415610191576040517f08c379a000000000000000000000000000000000000000000000000000000000815260040161018890611671565b60405180910390fd5b600061019b6103f4565b90508060040154816003015411935050505090565b60006101ba6103f4565b905060006101cb82600001546103dd565b9050600081600001541415610215576040517f08c379a000000000000000000000000000000000000000000000000000000000815260040161020c90611671565b60405180910390fd5b61021d61040b565b5050565b600061022c826103dd565b600101549050919050565b60006102416103f4565b9050600061025282600001546103dd565b905060008160000154141561029c576040517f08c379a000000000000000000000000000000000000000000000000000000000815260040161029390611671565b60405180910390fd5b6102a5836104d1565b6102ad6107be565b73ffffffffffffffffffffffffffffffffffffffff167fa9fd0834e2afbba73e314f3cf92c04a694d27ab99e31eb4ce8e51d57f7890d596102ec6103f4565b60000154856040516102ff9291906116cc565b60405180910390a2505050565b60006103166103f4565b9050600061032782600001546103dd565b9050600081600001541415610371576040517f08c379a000000000000000000000000000000000000000000000000000000000815260040161036890611671565b60405180910390fd5b610379610833565b6103816107be565b73ffffffffffffffffffffffffffffffffffffffff167fee64e7a6623d1cff201c83363d0162fe855c5f1b7fc38f48bdb14968a1c8fb576103c06103f4565b600001546040516103d191906116b1565b60405180910390a25050565b6000806103e983610b9c565b905080915050919050565b6000610406610401610be8565b610c4b565b905090565b60006104156103f4565b90508060020154421015610491576040517f08c379a000000000000000000000000000000000000000000000000000000000815260040180806020018281038252600b8152602001807f57524f4e475f535441544500000000000000000000000000000000000000000081525060200191505060405180910390fd5b61049e8160000154610c55565b80600001600090558060010160009055806002016000905580600301600090558060040160009055806005016000905550565b60006104db6103f4565b9050806001015442101580156104f5575080600201544211155b610567576040517f08c379a00000000000000000000000000000000000000000000000000000000081526004018080602001828103825260108152602001807f49535f4e4f5f56414c49445f54494d450000000000000000000000000000000081525060200191505060405180910390fd5b610578826105736107be565b610de0565b60006105826103f4565b905060008160060160006105946107be565b73ffffffffffffffffffffffffffffffffffffffff1673ffffffffffffffffffffffffffffffffffffffff1681526020019081526020016000206000015414610645576040517f08c379a00000000000000000000000000000000000000000000000000000000081526004018080602001828103825260098152602001807f4841535f564f544544000000000000000000000000000000000000000000000081525060200191505060405180910390fd5b600060019050831561067557610668818360030154610e2c90919063ffffffff16565b8260030181905550610695565b61068c818360040154610e2c90919063ffffffff16565b82600401819055505b428260060160006106a46107be565b73ffffffffffffffffffffffffffffffffffffffff1673ffffffffffffffffffffffffffffffffffffffff16815260200190815260200160002060000181905550808260060160006106f46107be565b73ffffffffffffffffffffffffffffffffffffffff1673ffffffffffffffffffffffffffffffffffffffff16815260200190815260200160002060010181905550838260060160006107446107be565b73ffffffffffffffffffffffffffffffffffffffff1673ffffffffffffffffffffffffffffffffffffffff16815260200190815260200160002060020160006101000a81548160ff0219169083151502179055506107b060018360050154610e2c90919063ffffffff16565b826005018190555050505050565b600060606000368080601f016020809104026020016040519081016040528093929190818152602001838380828437600081840152601f19601f820116905080830192505050505050509050600080369050905073ffffffffffffffffffffffffffffffffffffffff81830151169250505090565b600061083d6103f4565b905080600101544210158015610857575080600201544211155b6108c9576040517f08c379a00000000000000000000000000000000000000000000000000000000081526004018080602001828103825260108152602001807f49535f4e4f5f56414c49445f54494d450000000000000000000000000000000081525060200191505060405180910390fd5b60006108d36103f4565b905060006108df6107be565b905060008260060160008373ffffffffffffffffffffffffffffffffffffffff1673ffffffffffffffffffffffffffffffffffffffff168152602001908152602001600020600001541161099b576040517f08c379a000000000000000000000000000000000000000000000000000000000815260040180806020018281038252600d8152602001807f4841535f4e4f545f564f5445440000000000000000000000000000000000000081525060200191505060405180910390fd5b60008260060160008373ffffffffffffffffffffffffffffffffffffffff1673ffffffffffffffffffffffffffffffffffffffff16815260200190815260200160002060010154905060008360060160008473ffffffffffffffffffffffffffffffffffffffff1673ffffffffffffffffffffffffffffffffffffffff16815260200190815260200160002060020160009054906101000a900460ff16905060008460060160008573ffffffffffffffffffffffffffffffffffffffff1673ffffffffffffffffffffffffffffffffffffffff1681526020019081526020016000206000018190555060008460060160008573ffffffffffffffffffffffffffffffffffffffff1673ffffffffffffffffffffffffffffffffffffffff1681526020019081526020016000206001018190555060008460060160008573ffffffffffffffffffffffffffffffffffffffff1673ffffffffffffffffffffffffffffffffffffffff16815260200190815260200160002060020160006101000a81548160ff021916908315150217905550610b4360018560050154610eb490919063ffffffff16565b84600501819055508015610b7557610b68828560030154610eb490919063ffffffff16565b8460030181905550610b95565b610b8c828560040154610eb490919063ffffffff16565b84600401819055505b5050505050565b60008160405160200180806020018381526020018281038252602781526020018061179a6027913960400192505050604051602081830303815290604052805190602001209050919050565b600060606000368080601f016020809104026020016040519081016040528093929190818152602001838380828437600081840152601f19601f820116905080830192505050505050509050600060146000369050039050808201519250505090565b6000819050919050565b6000610c5f61012b565b90506000610c6c836103dd565b90508115610d92576000610c7e610efe565b9050610c9b82600101548260010154610eb490919063ffffffff16565b81600101819055506000610cad610f2b565b60020160008460000154815260200190815260200160002060009054906101000a900473ffffffffffffffffffffffffffffffffffffffff169050610d3b8184600101548460020160009054906101000a900473ffffffffffffffffffffffffffffffffffffffff1673ffffffffffffffffffffffffffffffffffffffff16610f589092919063ffffffff16565b8073ffffffffffffffffffffffffffffffffffffffff167fcf7d23a3cbe4e8b36ff82fd1b05b1b17373dc7804b4ebbd6e2356716ef202372868560010154604051610d879291906116f5565b60405180910390a250505b7fa207d5145c3030050ff72fa91f5f37445b6aa4850cf1f03c11c24b5f7dd458338383604051610dc39291906116cc565b60405180910390a180600001600090558060010160009055505050565b610de981610ffa565b610e28576040517f08c379a0000000000000000000000000000000000000000000000000000000008152600401610e1f90611691565b60405180910390fd5b5050565b600080828401905083811015610eaa576040517f08c379a000000000000000000000000000000000000000000000000000000000815260040180806020018281038252601b8152602001807f536166654d6174683a206164646974696f6e206f766572666c6f77000000000081525060200191505060405180910390fd5b8091505092915050565b6000610ef683836040518060400160405280601e81526020017f536166654d6174683a207375627472616374696f6e206f766572666c6f77000081525061102d565b905092915050565b6000807fa716b7cce20ffbe12e5c0af3eb2f57d81251cd975b53428558ae4ad51b4f942590508091505090565b6000807faa97fdeef5de5607974189e6a2429d502dcc32b43d658c3c065d5ca083ee1fab90508091505090565b610ff58363a9059cbb60e01b8484604051602401808373ffffffffffffffffffffffffffffffffffffffff16815260200182815260200192505050604051602081830303815290604052907bffffffffffffffffffffffffffffffffffffffffffffffffffffffff19166020820180517bffffffffffffffffffffffffffffffffffffffffffffffffffffffff83818316178352505050506110ed565b505050565b60006110267f241ecf16d79d0f8dbfb92cbc07fe17840425976cf0667f022fe9877caa831b08836111dc565b9050919050565b60008383111582906110da576040517f08c379a00000000000000000000000000000000000000000000000000000000081526004018080602001828103825283818151815260200191508051906020019080838360005b8381101561109f578082015181840152602081019050611084565b50505050905090810190601f1680156110cc5780820380516001836020036101000a031916815260200191505b509250505060405180910390fd5b5060008385039050809150509392505050565b606061114f826040518060400160405280602081526020017f5361666545524332303a206c6f772d6c6576656c2063616c6c206661696c65648152508573ffffffffffffffffffffffffffffffffffffffff1661121c9092919063ffffffff16565b90506000815111156111d75780806020019051602081101561117057600080fd5b81019080805190602001909291905050506111d6576040517f08c379a000000000000000000000000000000000000000000000000000000000815260040180806020018281038252602a8152602001806117c1602a913960400191505060405180910390fd5b5b505050565b6000806111e7611234565b90506112138382600001600087815260200190815260200160002060000161126190919063ffffffff16565b91505092915050565b606061122b8484600085611291565b90509392505050565b6000807f6282190449f76f72a9f692e4d8619a03764b7253394788948e36a7a57ba4a00e90508091505090565b6000611289836000018373ffffffffffffffffffffffffffffffffffffffff1660001b61143a565b905092915050565b6060824710156112ec576040517f08c379a00000000000000000000000000000000000000000000000000000000081526004018080602001828103825260268152602001806117746026913960400191505060405180910390fd5b6112f58561145d565b611367576040517f08c379a000000000000000000000000000000000000000000000000000000000815260040180806020018281038252601d8152602001807f416464726573733a2063616c6c20746f206e6f6e2d636f6e747261637400000081525060200191505060405180910390fd5b600060608673ffffffffffffffffffffffffffffffffffffffff1685876040518082805190602001908083835b602083106113b75780518252602082019150602081019050602083039250611394565b6001836020036101000a03801982511681845116808217855250505050505090500191505060006040518083038185875af1925050503d8060008114611419576040519150601f19603f3d011682016040523d82523d6000602084013e61141e565b606091505b509150915061142e828286611470565b92505050949350505050565b600080836001016000848152602001908152602001600020541415905092915050565b600080823b905060008111915050919050565b6060831561148057829050611535565b6000835111156114935782518084602001fd5b816040517f08c379a00000000000000000000000000000000000000000000000000000000081526004018080602001828103825283818151815260200191508051906020019080838360005b838110156114fa5780820151818401526020810190506114df565b50505050905090810190601f1680156115275780820380516001836020036101000a031916815260200191505b509250505060405180910390fd5b9392505050565b60008135905061154b81611745565b92915050565b6000813590506115608161175c565b92915050565b60006020828403121561157857600080fd5b60006115868482850161153c565b91505092915050565b6000602082840312156115a157600080fd5b60006115af84828501611551565b91505092915050565b6115c18161172f565b82525050565b60006115d460118361171e565b91507f4e4f545f57495448445241575f504f4c4c0000000000000000000000000000006000830152602082019050919050565b6000611614600a8361171e565b91507f4e4f5f4d414e41474552000000000000000000000000000000000000000000006000830152602082019050919050565b6116508161173b565b82525050565b600060208201905061166b60008301846115b8565b92915050565b6000602082019050818103600083015261168a816115c7565b9050919050565b600060208201905081810360008301526116aa81611607565b9050919050565b60006020820190506116c66000830184611647565b92915050565b60006040820190506116e16000830185611647565b6116ee60208301846115b8565b9392505050565b600060408201905061170a6000830185611647565b6117176020830184611647565b9392505050565b600082825260208201905092915050565b60008115159050919050565b6000819050919050565b61174e8161172f565b811461175957600080fd5b50565b6117658161173b565b811461177057600080fd5b5056fe416464726573733a20696e73756666696369656e742062616c616e636520666f722063616c6c6469616d6f6e642e636f6e74726163742e6173736574706f6f6c2e7769746864726177706f6c6c5361666545524332303a204552433230206f7065726174696f6e20646964206e6f742073756363656564a2646970667358221220e6aed8b5ad8c31955d2de47aa1a8017cf104de9f0cafec4161996970ebc6f3ec64736f6c63430007040033",
  "linkReferences": {},
  "deployedLinkReferences": {}
}