{
  "_format": "hh-sol-artifact-1",
  "contractName": "AssetPoolFactoryFacet",
  "sourceName": "contracts/contracts/AssetPoolFactory/AssetPoolFactoryFacet.sol",
  "abi": [
    {
      "anonymous": false,
      "inputs": [
        {
          "indexed": false,
          "internalType": "address",
          "name": "assetPool",
          "type": "address"
        }
      ],
      "name": "AssetPoolDeployed",
      "type": "event"
    },
    {
      "inputs": [],
      "name": "deployAssetPool",
      "outputs": [],
      "stateMutability": "nonpayable",
      "type": "function"
    },
    {
      "inputs": [
        {
          "components": [
            {
              "internalType": "address",
              "name": "facetAddress",
              "type": "address"
            },
            {
              "internalType": "enum IDiamondCut.FacetCutAction",
              "name": "action",
              "type": "uint8"
            },
            {
              "internalType": "bytes4[]",
              "name": "functionSelectors",
              "type": "bytes4[]"
            }
          ],
          "internalType": "struct IDiamondCut.FacetCut[]",
          "name": "_facets",
          "type": "tuple[]"
        }
      ],
      "name": "initialize",
      "outputs": [],
      "stateMutability": "nonpayable",
      "type": "function"
    },
    {
      "inputs": [
        {
          "internalType": "address",
          "name": "_controller",
          "type": "address"
        }
      ],
      "name": "setDefaultController",
      "outputs": [],
      "stateMutability": "nonpayable",
      "type": "function"
    }
  ],
  "bytecode": "0x608060405234801561001057600080fd5b50612dbc806100206000396000f3fe60806040523480156200001157600080fd5b5060043610620000465760003560e01c806355196bd9146200004b578063b7c483d31462000064578063f9c8a524146200007b575b600080fd5b620000626200005c3660046200060e565b62000085565b005b620000626200007536600462000632565b620000c8565b62000062620001f2565b6200008f620003e6565b806200009a62000443565b805473ffffffffffffffffffffffffffffffffffffffff19166001600160a01b039290921691909117905550565b620000d2620003e6565b6000620000de62000443565b805473ffffffffffffffffffffffffffffffffffffffff191633178155905060005b8251811015620001ed57816003018382815181106200011b57fe5b602090810291909101810151825460018101845560009384529282902081516002948502909101805473ffffffffffffffffffffffffffffffffffffffff19166001600160a01b0390921691909117808255928201519193909283917fffffffffffffffffffffff00ffffffffffffffffffffffffffffffffffffffff9091169074010000000000000000000000000000000000000000908490811115620001bf57fe5b021790555060408201518051620001e19160018401916020909101906200048b565b50505060010162000100565b505050565b620001fc620003e6565b60006200020862000443565b9050600081600301306040516200021f906200053e565b6200022c92919062000768565b604051809103906000f08015801562000249573d6000803e3d6000fd5b5082546040517ff2fde38b00000000000000000000000000000000000000000000000000000000815291925082916001600160a01b038084169263f2fde38b926200029b929091169060040162000754565b600060405180830381600087803b158015620002b657600080fd5b505af1158015620002cb573d6000803e3d6000fd5b505084546040517f54208a2f0000000000000000000000000000000000000000000000000000000081526001600160a01b0380861694506354208a2f93506200031992169060040162000754565b600060405180830381600087803b1580156200033457600080fd5b505af115801562000349573d6000803e3d6000fd5b5050505060018381018054808301825560009182526020808320909101805473ffffffffffffffffffffffffffffffffffffffff19166001600160a01b0387169081179091558252600286019052604090819020805460ff1916909217909155517fd4751d882ce3a4eab04fc8d1b33792536e48979816123dd418de92d5e67895d790620003d990849062000754565b60405180910390a1505050565b620003f062000467565b600401546001600160a01b0316331462000441576040517f08c379a0000000000000000000000000000000000000000000000000000000008152600401620004389062000a40565b60405180910390fd5b565b7f45817ba6b30d8ede47e03b406ff166d55a47263294241efd9c0dcf683d919a4c90565b7fc8fcad8db84d3cc18b4c41d551ea0ee66dd599cde068d998e57d5e09332c131c90565b828054828255906000526020600020906007016008900481019282156200052c5791602002820160005b83821115620004f857835183826101000a81548163ffffffff021916908360e01c02179055509260200192600401602081600301049283019260010302620004b5565b80156200052a5782816101000a81549063ffffffff0219169055600401602081600301049283019260010302620004f8565b505b506200053a9291506200054c565b5090565b6122908062000af783390190565b5b808211156200053a57600081556001016200054d565b80356001600160a01b03811681146200057b57600080fd5b919050565b600082601f83011262000591578081fd5b8135620005a8620005a28262000ac2565b62000a9d565b818152915060208083019084810181840286018201871015620005ca57600080fd5b6000805b85811015620006025782356001600160e01b031981168114620005ef578283fd5b85529383019391830191600101620005ce565b50505050505092915050565b60006020828403121562000620578081fd5b6200062b8262000563565b9392505050565b6000602080838503121562000645578182fd5b823567ffffffffffffffff808211156200065d578384fd5b818501915085601f83011262000671578384fd5b813562000682620005a28262000ac2565b81815284810190848601875b848110156200072a5781358701606080601f19838f03011215620006b0578a8bfd5b604080518281018181108b82111715620006c657fe5b8252620006d5848d0162000563565b81528184013560038110620006e8578d8efd5b818d0152918301359189831115620006fe578c8dfd5b6200070e8f8d8587010162000580565b918101919091528652505092870192908701906001016200068e565b50909998505050505050505050565b6001600160a01b03169052565b6001600160e01b0319169052565b6001600160a01b0391909116815260200190565b60006040825260408201845480825260608401915060206060818302860101878552818520855b8481101562000a2257878303605f1901865281546001600160a01b0381168452606084019060a01c60ff1660038110620007c557fe5b8486015260606040850152600183810180548390620007e5818362000aed565b9150620007f28362000ae1565b94508b92505b80600784011015620008bf57845462000815838260e01b62000746565b6001600160e01b0319620008318b8501828460c01b1662000746565b6200084560408501828460a01b1662000746565b6200085960608501828460801b1662000746565b6200086d60808501828460601b1662000746565b6200088160a08501828460401b1662000746565b6200089460c0850182848e1b1662000746565b620008a560e0850182841662000746565b5050610100820191508385019450600883019250620007f8565b93549380831015620008e357620008da828660e01b62000746565b91830191908801905b808310156200090e5762000905826001600160e01b03198760c01b1662000746565b91830191908801905b80831015620009395762000930826001600160e01b03198760a01b1662000746565b91830191908801905b8083101562000964576200095b826001600160e01b03198760801b1662000746565b91830191908801905b808310156200098f5762000986826001600160e01b03198760601b1662000746565b91830191908801905b80831015620009ba57620009b1826001600160e01b03198760401b1662000746565b91830191908801905b80831015620009e457620009db826001600160e01b0319878c1b1662000746565b91830191908801905b8083101562000a085762000a03826001600160e01b0319871662000746565b908801905b50988701989550505060029290920191506001016200078f565b50508094505062000a368186018762000739565b5050509392505050565b60208082526022908201527f4c69624469616d6f6e643a204d75737420626520636f6e7472616374206f776e60408201527f6572000000000000000000000000000000000000000000000000000000000000606082015260800190565b60405181810167ffffffffffffffff8111828210171562000aba57fe5b604052919050565b600067ffffffffffffffff82111562000ad757fe5b5060209081020190565b60009081526020902090565b9081526020019056fe60806040526040516200229038038062002290833981016040819052620000269162000a0e565b604080516000808252602082019092526200004e918491620000f160201b620000be1760201c565b62000064816200023860201b620001ef1760201c565b60006200007b6200029a60201b620002671760201c565b6301ffc9a760e01b600090815260039091016020526040808220805460ff1990811660019081179092556307e4c70760e21b845282842080548216831790556348e2b09360e01b845282842080548216831790556307f5828d60e41b845291909220805490911690911790555062001178915050565b6000620000fd6200029a565b600281015490915061ffff16806000806008830611156200012f57506008810460009081526001840160205260409020545b60005b8751811015620001a7576200019983838a84815181106200014f57fe5b6020026020010151600001518b85815181106200016857fe5b6020026020010151602001518c86815181106200018157fe5b602002602001015160400151620002be60201b60201c565b909350915060010162000132565b50828214620001c45760028401805461ffff191661ffff84161790555b6007821615620001e65760088204600090815260018501602052604090208190555b7f8faa70878671ccd212d20771b795c50af8fd3ff6cf27f4bde57e5d4de0aeb6738787876040516200021b9392919062000b81565b60405180910390a16200022f8686620007fe565b50505050505050565b6000620002446200029a565b6004810180546001600160a01b038581166001600160a01b031983168117909355604051939450169182907f8be0079c531659141344cd1fd0a4f28419497f9722a3daafe3b4186f6b6457e090600090a3505050565b7fc8fcad8db84d3cc18b4c41d551ea0ee66dd599cde068d998e57d5e09332c131c90565b60008080620002cc6200029a565b90506000845111620002fb5760405162461bcd60e51b8152600401620002f29062000d30565b60405180910390fd5b60008560028111156200030a57fe5b141562000443576001600160a01b0386166200033a5760405162461bcd60e51b8152600401620002f29062000e1f565b6200035f866040518060600160405280602481526020016200221c602491396200093f565b60005b84518110156200043c5760008582815181106200037b57fe5b6020908102919091018101516001600160e01b03198116600090815291859052604090912054909150606081901c15620003c95760405162461bcd60e51b8152600401620002f29062000f66565b6001600160e01b03198281166000818152602087815260409091206001600160601b031960608e901b168f17905560078e160290811c91811c199b909b16179960e08114156200042c5760088c04600090815260018601602052604081209b909b555b5050506001988901980162000362565b50620007f2565b60018560028111156200045257fe5b1415620005b4576001600160a01b038616620004825760405162461bcd60e51b8152600401620002f29062000e6b565b620004a78660405180606001604052806028815260200162002268602891396200093f565b60005b84518110156200043c576000858281518110620004c357fe5b6020908102919091018101516001600160e01b03198116600090815291859052604090912054909150606081901c30811415620005145760405162461bcd60e51b8152600401620002f2906200106c565b896001600160a01b0316816001600160a01b03161415620005495760405162461bcd60e51b8152600401620002f29062000fc3565b6001600160a01b038116620005725760405162461bcd60e51b8152600401620002f290620010bb565b506001600160e01b031990911660009081526020849052604090206001600160601b03919091166001600160601b031960608a901b16179055600101620004aa565b6002856002811115620005c357fe5b1415620007d8576001600160a01b03861615620005f45760405162461bcd60e51b8152600401620002f2906200100f565b6008880460001960078a160160005b8651811015620007c6578962000632576000199092016000818152600185016020526040902054995091600791505b6000806000808a85815181106200064557fe5b6020908102919091018101516001600160e01b031981166000908152918a9052604090912054909150606081901c620006925760405162461bcd60e51b8152600401620002f29062000d7b565b606081901c301415620006b95760405162461bcd60e51b8152600401620002f29062000f18565b602087028f901b94506001600160e01b0319808616908316146200070a576001600160e01b03198516600090815260208a90526040902080546001600160601b0319166001600160601b0383161790555b6001600160e01b03198216600090815260208a9052604081205561ffff811660088104945060088106602002935050505085821462000773576000828152600188016020526040902080546001600160e01b031980841c19909116908516831c17905562000797565b80836001600160e01b031916901c816001600160e01b031960001b901c198e16179c505b84620007b357600086815260018801602052604081208190559c505b5050600019909201915060010162000603565b506001600890920201019750620007f2565b60405162461bcd60e51b8152600401620002f29062000dd8565b50959694955050505050565b6001600160a01b03821662000835578051156200082f5760405162461bcd60e51b8152600401620002f29062000c8d565b6200093b565b6000815111620008595760405162461bcd60e51b8152600401620002f29062000ebb565b6001600160a01b03821630146200088f576200088f8260405180606001604052806028815260200162002240602891396200093f565b60006060836001600160a01b031683604051620008ad919062000b63565b600060405180830381855af49150503d8060008114620008ea576040519150601f19603f3d011682016040523d82523d6000602084013e620008ef565b606091505b50915091508162000938578051156200091e578060405162461bcd60e51b8152600401620002f2919062000c71565b60405162461bcd60e51b8152600401620002f29062000cea565b50505b5050565b813b8181620009385760405162461bcd60e51b8152600401620002f2919062000c71565b80516001600160a01b03811681146200097b57600080fd5b919050565b600082601f83011262000991578081fd5b8151620009a8620009a2826200112b565b62001107565b818152915060208083019084810181840286018201871015620009ca57600080fd5b6000805b8581101562000a025782516001600160e01b031981168114620009ef578283fd5b85529383019391830191600101620009ce565b50505050505092915050565b6000806040838503121562000a21578182fd5b82516001600160401b038082111562000a38578384fd5b818501915085601f83011262000a4c578384fd5b815162000a5d620009a2826200112b565b81815260208082019190858101885b8581101562000b0757815188016060818e03601f1901121562000a8d578a8bfd5b604051606081018181108a8211171562000aa357fe5b60405262000ab382860162000963565b815260408201516003811062000ac7578c8dfd5b8186015260608201518981111562000add578c8dfd5b62000aed8f878386010162000980565b604083015250865250938201939082019060010162000a6c565b505081975062000b19818a0162000963565b96505050505050509250929050565b6001600160a01b03169052565b6000815180845262000b4f81602086016020860162001149565b601f01601f19169290920160200192915050565b6000825162000b7781846020870162001149565b9190910192915050565b606080825284518282018190526000919060809081850190602080820287018401818b01875b8481101562000c3e57898303607f19018652815180516001600160a01b0316845284810151898501906003811062000bdb57fe5b858701526040918201519185018a9052815190819052908501908a90898601905b8083101562000c285783516001600160e01b031916825292870192600192909201919087019062000bfc565b5097860197945050509083019060010162000ba7565b505062000c4e8289018b62000b28565b878103604089015262000c62818a62000b35565b9b9a5050505050505050505050565b60006020825262000c86602083018462000b35565b9392505050565b6020808252603c908201527f4c69624469616d6f6e644375743a205f696e697420697320616464726573732860408201527f3029206275745f63616c6c64617461206973206e6f7420656d70747900000000606082015260800190565b60208082526026908201527f4c69624469616d6f6e644375743a205f696e69742066756e6374696f6e2072656040820152651d995c9d195960d21b606082015260800190565b6020808252602b908201527f4c69624469616d6f6e644375743a204e6f2073656c6563746f727320696e206660408201526a1858d95d081d1bc818dd5d60aa1b606082015260800190565b60208082526037908201527f4c69624469616d6f6e644375743a2043616e27742072656d6f76652066756e6360408201527f74696f6e207468617420646f65736e2774206578697374000000000000000000606082015260800190565b60208082526027908201527f4c69624469616d6f6e644375743a20496e636f727265637420466163657443756040820152663a20b1ba34b7b760c91b606082015260800190565b6020808252602c908201527f4c69624469616d6f6e644375743a204164642066616365742063616e2774206260408201526b65206164647265737328302960a01b606082015260800190565b60208082526030908201527f4c69624469616d6f6e644375743a205265706c6163652066616365742063616e60408201526f2774206265206164647265737328302960801b606082015260800190565b6020808252603d908201527f4c69624469616d6f6e644375743a205f63616c6c6461746120697320656d707460408201527f7920627574205f696e6974206973206e6f742061646472657373283029000000606082015260800190565b6020808252602e908201527f4c69624469616d6f6e644375743a2043616e27742072656d6f766520696d6d7560408201526d3a30b1363290333ab731ba34b7b760911b606082015260800190565b60208082526035908201527f4c69624469616d6f6e644375743a2043616e2774206164642066756e6374696f60408201527f6e207468617420616c7265616479206578697374730000000000000000000000606082015260800190565b6020808252603890820152600080516020620021fc83398151915260408201527f6374696f6e20776974682073616d652066756e6374696f6e0000000000000000606082015260800190565b60208082526036908201527f4c69624469616d6f6e644375743a2052656d6f7665206661636574206164647260408201527f657373206d757374206265206164647265737328302900000000000000000000606082015260800190565b6020808252602f908201527f4c69624469616d6f6e644375743a2043616e2774207265706c61636520696d6d60408201526e3aba30b1363290333ab731ba34b7b760891b606082015260800190565b6020808252603890820152600080516020620021fc83398151915260408201527f6374696f6e207468617420646f65736e27742065786973740000000000000000606082015260800190565b6040518181016001600160401b03811182821017156200112357fe5b604052919050565b60006001600160401b038211156200113f57fe5b5060209081020190565b60005b83811015620011665781810151838201526020016200114c565b83811115620009385750506000910152565b61107480620011886000396000f3fe60806040523661000b57005b600080356001600160e01b03191681527fc8fcad8db84d3cc18b4c41d551ea0ee66dd599cde068d998e57d5e09332c131c6020819052604090912054819060601c806100725760405162461bcd60e51b815260040161006990610cde565b60405180910390fd5b36600080373033141561009e57600080366000845af43d6000803e808015610099573d6000f35b3d6000fd5b333652600080602036016000845af43d6000803e808015610099573d6000f35b60006100c8610267565b600281015490915061ffff16806000806008830611156100f957506008810460009081526001840160205260409020545b60005b87518110156101645761015783838a848151811061011657fe5b6020026020010151600001518b858151811061012e57fe5b6020026020010151602001518c868151811061014657fe5b60200260200101516040015161028b565b90935091506001016100fc565b508282146101805760028401805461ffff191661ffff84161790555b60078216156101a15760088204600090815260018501602052604090208190555b7f8faa70878671ccd212d20771b795c50af8fd3ff6cf27f4bde57e5d4de0aeb6738787876040516101d493929190610953565b60405180910390a16101e686866107b2565b50505050505050565b60006101f9610267565b6004810180546001600160a01b038581167fffffffffffffffffffffffff000000000000000000000000000000000000000083168117909355604051939450169182907f8be0079c531659141344cd1fd0a4f28419497f9722a3daafe3b4186f6b6457e090600090a3505050565b7fc8fcad8db84d3cc18b4c41d551ea0ee66dd599cde068d998e57d5e09332c131c90565b6000806000610298610267565b905060008451116102bb5760405162461bcd60e51b815260040161006990610b0d565b60008560028111156102c957fe5b14156103f8576001600160a01b0386166102f55760405162461bcd60e51b815260040161006990610c24565b61031786604051806060016040528060248152602001610fcb602491396108dd565b60005b84518110156103f257600085828151811061033157fe5b6020908102919091018101516001600160e01b03198116600090815291859052604090912054909150606081901c1561037c5760405162461bcd60e51b815260040161006990610dcd565b6001600160e01b03198281166000818152602087815260409091206bffffffffffffffffffffffff1960608e901b168f17905560078e160290811c91811c199b909b16179960e08114156103e35760088c04600090815260018601602052604081209b909b555b5050506001988901980161031a565b506107a6565b600185600281111561040657fe5b141561055f576001600160a01b0386166104325760405162461bcd60e51b815260040161006990610c81565b61045486604051806060016040528060288152602001611017602891396108dd565b60005b84518110156103f257600085828151811061046e57fe5b6020908102919091018101516001600160e01b03198116600090815291859052604090912054909150606081901c308114156104bc5760405162461bcd60e51b815260040161006990610ee4565b896001600160a01b0316816001600160a01b031614156104ee5760405162461bcd60e51b815260040161006990610e2a565b6001600160a01b0381166105145760405162461bcd60e51b815260040161006990610f41565b506001600160e01b031990911660009081526020849052604090206bffffffffffffffffffffffff919091166bffffffffffffffffffffffff1960608a901b16179055600101610457565b600285600281111561056d57fe5b141561078e576001600160a01b0386161561059a5760405162461bcd60e51b815260040161006990610e87565b6008880460001960078a160160005b865181101561077d57896105d6576000199092016000818152600185016020526040902054995091600791505b6000806000808a85815181106105e857fe5b6020908102919091018101516001600160e01b031981166000908152918a9052604090912054909150606081901c6106325760405162461bcd60e51b815260040161006990610b6a565b606081901c3014156106565760405162461bcd60e51b815260040161006990610d70565b602087028f901b94506001600160e01b0319808616908316146106b0576001600160e01b03198516600090815260208a90526040902080546bffffffffffffffffffffffff19166bffffffffffffffffffffffff83161790555b6001600160e01b03198216600090815260208a9052604081205561ffff8116600881049450600881066020029350505050858214610717576000828152600188016020526040902080546001600160e01b031980841c19909116908516831c179055610750565b80837bffffffffffffffffffffffffffffffffffffffffffffffffffffffff1916901c816001600160e01b031960001b901c198e16179c505b8461076b57600086815260018801602052604081208190559c505b505060001990920191506001016105a9565b5060016008909202010197506107a6565b60405162461bcd60e51b815260040161006990610bc7565b50959694955050505050565b6001600160a01b0382166107e4578051156107df5760405162461bcd60e51b815260040161006990610a53565b6108d9565b60008151116108055760405162461bcd60e51b815260040161006990610d13565b6001600160a01b03821630146108375761083782604051806060016040528060288152602001610fef602891396108dd565b60006060836001600160a01b0316836040516108539190610937565b600060405180830381855af49150503d806000811461088e576040519150601f19603f3d011682016040523d82523d6000602084013e610893565b606091505b5091509150816108d6578051156108be578060405162461bcd60e51b81526004016100699190610a39565b60405162461bcd60e51b815260040161006990610ab0565b50505b5050565b813b81816108d65760405162461bcd60e51b81526004016100699190610a39565b6001600160a01b03169052565b60008151808452610923816020860160208601610f9e565b601f01601f19169290920160200192915050565b60008251610949818460208701610f9e565b9190910192915050565b606080825284518282018190526000919060809081850190602080820287018401818b01875b84811015610a0a57607f198a840301865281518884016001600160a01b03825116855285820151600381106109aa57fe5b858701526040918201519185018a9052815190819052908501908a90898601905b808310156109f55783516001600160e01b03191682529287019260019290920191908701906109cb565b50978601979450505090830190600101610979565b5050610a188289018b6108fe565b8781036040890152610a2a818a61090b565b9b9a5050505050505050505050565b600060208252610a4c602083018461090b565b9392505050565b6020808252603c908201527f4c69624469616d6f6e644375743a205f696e697420697320616464726573732860408201527f3029206275745f63616c6c64617461206973206e6f7420656d70747900000000606082015260800190565b60208082526026908201527f4c69624469616d6f6e644375743a205f696e69742066756e6374696f6e20726560408201527f7665727465640000000000000000000000000000000000000000000000000000606082015260800190565b6020808252602b908201527f4c69624469616d6f6e644375743a204e6f2073656c6563746f727320696e206660408201527f6163657420746f20637574000000000000000000000000000000000000000000606082015260800190565b60208082526037908201527f4c69624469616d6f6e644375743a2043616e27742072656d6f76652066756e6360408201527f74696f6e207468617420646f65736e2774206578697374000000000000000000606082015260800190565b60208082526027908201527f4c69624469616d6f6e644375743a20496e636f7272656374204661636574437560408201527f74416374696f6e00000000000000000000000000000000000000000000000000606082015260800190565b6020808252602c908201527f4c69624469616d6f6e644375743a204164642066616365742063616e2774206260408201527f6520616464726573732830290000000000000000000000000000000000000000606082015260800190565b60208082526030908201527f4c69624469616d6f6e644375743a205265706c6163652066616365742063616e60408201527f2774206265206164647265737328302900000000000000000000000000000000606082015260800190565b6020808252818101527f4469616d6f6e643a2046756e6374696f6e20646f6573206e6f74206578697374604082015260600190565b6020808252603d908201527f4c69624469616d6f6e644375743a205f63616c6c6461746120697320656d707460408201527f7920627574205f696e6974206973206e6f742061646472657373283029000000606082015260800190565b6020808252602e908201527f4c69624469616d6f6e644375743a2043616e27742072656d6f766520696d6d7560408201527f7461626c652066756e6374696f6e000000000000000000000000000000000000606082015260800190565b60208082526035908201527f4c69624469616d6f6e644375743a2043616e2774206164642066756e6374696f60408201527f6e207468617420616c7265616479206578697374730000000000000000000000606082015260800190565b60208082526038908201527f4c69624469616d6f6e644375743a2043616e2774207265706c6163652066756e60408201527f6374696f6e20776974682073616d652066756e6374696f6e0000000000000000606082015260800190565b60208082526036908201527f4c69624469616d6f6e644375743a2052656d6f7665206661636574206164647260408201527f657373206d757374206265206164647265737328302900000000000000000000606082015260800190565b6020808252602f908201527f4c69624469616d6f6e644375743a2043616e2774207265706c61636520696d6d60408201527f757461626c652066756e6374696f6e0000000000000000000000000000000000606082015260800190565b60208082526038908201527f4c69624469616d6f6e644375743a2043616e2774207265706c6163652066756e60408201527f6374696f6e207468617420646f65736e27742065786973740000000000000000606082015260800190565b60005b83811015610fb9578181015183820152602001610fa1565b838111156108d6575050600091015256fe4c69624469616d6f6e644375743a2041646420666163657420686173206e6f20636f64654c69624469616d6f6e644375743a205f696e6974206164647265737320686173206e6f20636f64654c69624469616d6f6e644375743a205265706c61636520666163657420686173206e6f20636f6465a2646970667358221220c55821a46694d6225f144bea3ec8d1f600942fecf48fea7086414018db7f8c2a64736f6c634300070400334c69624469616d6f6e644375743a2043616e2774207265706c6163652066756e4c69624469616d6f6e644375743a2041646420666163657420686173206e6f20636f64654c69624469616d6f6e644375743a205f696e6974206164647265737320686173206e6f20636f64654c69624469616d6f6e644375743a205265706c61636520666163657420686173206e6f20636f6465a264697066735822122091a8d09f7fecf286160a4d617b98fd38577ca2debcbda4cc788dc6eec9731d4464736f6c63430007040033",
  "linkReferences": {},
  "deployedLinkReferences": {}
}