{
  "_format": "hh-sol-artifact-1",
  "contractName": "RewardBy",
  "sourceName": "contracts/contracts/10-RewardBypass/RewardBy.sol",
  "abi": [
    {
      "anonymous": false,
      "inputs": [
        {
          "indexed": false,
          "internalType": "uint256",
          "name": "id",
          "type": "uint256"
        },
        {
          "indexed": true,
          "internalType": "address",
          "name": "member",
          "type": "address"
        },
        {
          "indexed": false,
          "internalType": "uint256",
          "name": "rewardID",
          "type": "uint256"
        },
        {
          "indexed": false,
          "internalType": "uint256",
          "name": "proposal",
          "type": "uint256"
        }
      ],
      "name": "RewardPollCreated",
      "type": "event"
    },
    {
      "anonymous": false,
      "inputs": [
        {
          "indexed": true,
          "internalType": "bytes32",
          "name": "role",
          "type": "bytes32"
        },
        {
          "indexed": true,
          "internalType": "bytes32",
          "name": "previousAdminRole",
          "type": "bytes32"
        },
        {
          "indexed": true,
          "internalType": "bytes32",
          "name": "newAdminRole",
          "type": "bytes32"
        }
      ],
      "name": "RoleAdminChanged",
      "type": "event"
    },
    {
      "anonymous": false,
      "inputs": [
        {
          "indexed": true,
          "internalType": "bytes32",
          "name": "role",
          "type": "bytes32"
        },
        {
          "indexed": true,
          "internalType": "address",
          "name": "account",
          "type": "address"
        },
        {
          "indexed": true,
          "internalType": "address",
          "name": "sender",
          "type": "address"
        }
      ],
      "name": "RoleGranted",
      "type": "event"
    },
    {
      "anonymous": false,
      "inputs": [
        {
          "indexed": true,
          "internalType": "bytes32",
          "name": "role",
          "type": "bytes32"
        },
        {
          "indexed": true,
          "internalType": "address",
          "name": "account",
          "type": "address"
        },
        {
          "indexed": true,
          "internalType": "address",
          "name": "sender",
          "type": "address"
        }
      ],
      "name": "RoleRevoked",
      "type": "event"
    },
    {
      "anonymous": false,
      "inputs": [
        {
          "indexed": false,
          "internalType": "uint256",
          "name": "id",
          "type": "uint256"
        },
        {
          "indexed": true,
          "internalType": "uint256",
          "name": "member",
          "type": "uint256"
        }
      ],
      "name": "WithdrawPollCreated",
      "type": "event"
    },
    {
      "inputs": [
        {
          "internalType": "uint256",
          "name": "_withdrawAmount",
          "type": "uint256"
        },
        {
          "internalType": "uint256",
          "name": "_withdrawDuration",
          "type": "uint256"
        }
      ],
      "name": "addReward",
      "outputs": [],
      "stateMutability": "nonpayable",
      "type": "function"
    },
    {
      "inputs": [
        {
          "internalType": "uint256",
          "name": "_id",
          "type": "uint256"
        }
      ],
      "name": "claimReward",
      "outputs": [],
      "stateMutability": "nonpayable",
      "type": "function"
    },
    {
      "inputs": [
        {
          "internalType": "uint256",
          "name": "_id",
          "type": "uint256"
        },
        {
          "internalType": "address",
          "name": "_beneficiary",
          "type": "address"
        }
      ],
      "name": "claimRewardFor",
      "outputs": [],
      "stateMutability": "nonpayable",
      "type": "function"
    },
    {
      "inputs": [
        {
          "internalType": "uint256",
          "name": "_id",
          "type": "uint256"
        }
      ],
      "name": "disableReward",
      "outputs": [],
      "stateMutability": "nonpayable",
      "type": "function"
    },
    {
      "inputs": [
        {
          "internalType": "uint256",
          "name": "_id",
          "type": "uint256"
        }
      ],
      "name": "enableReward",
      "outputs": [],
      "stateMutability": "nonpayable",
      "type": "function"
    },
    {
      "inputs": [
        {
          "internalType": "uint256",
          "name": "_id",
          "type": "uint256"
        }
      ],
      "name": "getReward",
      "outputs": [
        {
          "components": [
            {
              "internalType": "uint256",
              "name": "id",
              "type": "uint256"
            },
            {
              "internalType": "uint256",
              "name": "withdrawAmount",
              "type": "uint256"
            },
            {
              "internalType": "uint256",
              "name": "withdrawDuration",
              "type": "uint256"
            },
            {
              "internalType": "uint256",
              "name": "pollId",
              "type": "uint256"
            },
            {
              "internalType": "enum LibRewardPollStorage.RewardState",
              "name": "state",
              "type": "uint8"
            }
          ],
          "internalType": "struct LibRewardPollStorage.Reward",
          "name": "",
          "type": "tuple"
        }
      ],
      "stateMutability": "view",
      "type": "function"
    },
    {
      "inputs": [],
      "name": "getRewardPollDuration",
      "outputs": [
        {
          "internalType": "uint256",
          "name": "",
          "type": "uint256"
        }
      ],
      "stateMutability": "view",
      "type": "function"
    },
    {
      "inputs": [
        {
          "internalType": "uint256",
          "name": "_duration",
          "type": "uint256"
        }
      ],
      "name": "setRewardPollDuration",
      "outputs": [],
      "stateMutability": "nonpayable",
      "type": "function"
    },
    {
      "inputs": [
        {
          "internalType": "uint256",
          "name": "_id",
          "type": "uint256"
        },
        {
          "internalType": "uint256",
          "name": "_withdrawAmount",
          "type": "uint256"
        },
        {
          "internalType": "uint256",
          "name": "_withdrawDuration",
          "type": "uint256"
        }
      ],
      "name": "updateReward",
      "outputs": [],
      "stateMutability": "nonpayable",
      "type": "function"
    }
  ],
  "bytecode": "0x608060405234801561001057600080fd5b50611937806100206000396000f3fe608060405234801561001057600080fd5b50600436106100935760003560e01c806375c93bb91161006657806375c93bb91461011e578063ae169a501461013a578063b712851b14610156578063cd52235f14610172578063d47cd53b1461018e57610093565b80631c4b774b146100985780632996bd46146100c8578063365edf20146100e45780634553f80614610100575b600080fd5b6100b260048036038101906100ad919061128a565b6101aa565b6040516100bf919061176f565b60405180910390f35b6100e260048036038101906100dd919061128a565b610240565b005b6100fe60048036038101906100f9919061128a565b6103fd565b005b6101086104b3565b604051610115919061178a565b60405180910390f35b610138600480360381019061013391906112ef565b6104c6565b005b610154600480360381019061014f919061128a565b6106a4565b005b610170600480360381019061016b919061132b565b6106b8565b005b61018c600480360381019061018791906112b3565b6108e7565b005b6101a860048036038101906101a3919061128a565b610a84565b005b6101b2611226565b6101ba610c42565b60010160018303815481106101cb57fe5b90600052602060002090600502016040518060a0016040529081600082015481526020016001820154815260200160028201548152602001600382015481526020016004820160009054906101000a900460ff16600181111561022a57fe5b600181111561023557fe5b815250509050919050565b610248610c6f565b73ffffffffffffffffffffffffffffffffffffffff16610266610ce4565b73ffffffffffffffffffffffffffffffffffffffff16146102ef576040517f08c379a00000000000000000000000000000000000000000000000000000000081526004018080602001828103825260098152602001807f4e4f545f4f574e4552000000000000000000000000000000000000000000000081525060200191505060405180910390fd5b6102ff6102fa610c6f565b610d17565b61033e576040517f08c379a00000000000000000000000000000000000000000000000000000000081526004016103359061164f565b60405180910390fd5b6000610348610c42565b600101600183038154811061035957fe5b9060005260206000209060050201905060018081111561037557fe5b8160040160009054906101000a900460ff16600181111561039257fe5b14156103d3576040517f08c379a00000000000000000000000000000000000000000000000000000000081526004016103ca9061172f565b60405180910390fd5b60018160040160006101000a81548160ff021916908360018111156103f457fe5b02179055505050565b61042e7f241ecf16d79d0f8dbfb92cbc07fe17840425976cf0667f022fe9877caa831b08610429610c6f565b610d4a565b6104a0576040517f08c379a000000000000000000000000000000000000000000000000000000000815260040180806020018281038252600b8152602001807f4e4f545f4d414e4147455200000000000000000000000000000000000000000081525060200191505060405180910390fd5b806104a9610c42565b6000018190555050565b60006104bd610c42565b60000154905090565b6104ce610c6f565b73ffffffffffffffffffffffffffffffffffffffff166104ec610ce4565b73ffffffffffffffffffffffffffffffffffffffff1614610575576040517f08c379a00000000000000000000000000000000000000000000000000000000081526004018080602001828103825260098152602001807f4e4f545f4f574e4552000000000000000000000000000000000000000000000081525060200191505060405180910390fd5b60008214156105b9576040517f08c379a00000000000000000000000000000000000000000000000000000000081526004016105b09061174f565b60405180910390fd5b6105c1611226565b60016105cb610c42565b60010180549050018160000181815250506000816080019060018111156105ee57fe5b908160018111156105fb57fe5b8152505061060e81600001518484610d8a565b81606001818152505061061f610c42565b6001018190806001815401808255809150506001900390600052602060002090600502016000909190919091506000820151816000015560208201518160010155604082015181600201556060820151816003015560808201518160040160006101000a81548160ff0219169083600181111561069857fe5b02179055505050505050565b6106b5816106b0610c6f565b6108e7565b50565b6106c0610c6f565b73ffffffffffffffffffffffffffffffffffffffff166106de610ce4565b73ffffffffffffffffffffffffffffffffffffffff1614610767576040517f08c379a00000000000000000000000000000000000000000000000000000000081526004018080602001828103825260098152602001807f4e4f545f4f574e4552000000000000000000000000000000000000000000000081525060200191505060405180910390fd5b610777610772610c6f565b610e87565b6107b6576040517f08c379a00000000000000000000000000000000000000000000000000000000081526004016107ad9061168f565b60405180910390fd5b60006107c0610c42565b60010160018503815481106107d157fe5b906000526020600020906005020190506000816003015414610828576040517f08c379a000000000000000000000000000000000000000000000000000000000815260040161081f9061170f565b60405180910390fd5b6000831480156108385750600082145b15610878576040517f08c379a000000000000000000000000000000000000000000000000000000000815260040161086f906116cf565b60405180910390fd5b82816001015414801561088e5750818160020154145b156108ce576040517f08c379a00000000000000000000000000000000000000000000000000000000081526004016108c5906116ef565b60405180910390fd5b6108d9848484610d8a565b816003018190555050505050565b6108f76108f2610c6f565b610e87565b610936576040517f08c379a000000000000000000000000000000000000000000000000000000000815260040161092d9061168f565b60405180910390fd5b61093f81610e87565b61097e576040517f08c379a00000000000000000000000000000000000000000000000000000000081526004016109759061168f565b60405180910390fd5b610986611226565b61098e610c42565b600101600184038154811061099f57fe5b90600052602060002090600502016040518060a0016040529081600082015481526020016001820154815260200160028201548152602001600382015481526020016004820160009054906101000a900460ff1660018111156109fe57fe5b6001811115610a0957fe5b815250509050600180811115610a1b57fe5b81608001516001811115610a2b57fe5b14610a6b576040517f08c379a0000000000000000000000000000000000000000000000000000000008152600401610a629061166f565b60405180910390fd5b610a7e8160200151826040015184610eeb565b50505050565b610a8c610c6f565b73ffffffffffffffffffffffffffffffffffffffff16610aaa610ce4565b73ffffffffffffffffffffffffffffffffffffffff1614610b33576040517f08c379a00000000000000000000000000000000000000000000000000000000081526004018080602001828103825260098152602001807f4e4f545f4f574e4552000000000000000000000000000000000000000000000081525060200191505060405180910390fd5b610b43610b3e610c6f565b610d17565b610b82576040517f08c379a0000000000000000000000000000000000000000000000000000000008152600401610b799061164f565b60405180910390fd5b6000610b8c610c42565b6001016001830381548110610b9d57fe5b9060005260206000209060050201905060006001811115610bba57fe5b8160040160009054906101000a900460ff166001811115610bd757fe5b1415610c18576040517f08c379a0000000000000000000000000000000000000000000000000000000008152600401610c0f906116af565b60405180910390fd5b60008160040160006101000a81548160ff02191690836001811115610c3957fe5b02179055505050565b6000807f631ba92ab8eb0c7c19aa90ebce8ff250a95acd664966559209d622b596e0787b90508091505090565b600060606000368080601f016020809104026020016040519081016040528093929190818152602001838380828437600081840152601f19601f820116905080830192505050505050509050600080369050905073ffffffffffffffffffffffffffffffffffffffff81830151169250505090565b6000610cee610ff6565b60040160009054906101000a900473ffffffffffffffffffffffffffffffffffffffff16905090565b6000610d437f241ecf16d79d0f8dbfb92cbc07fe17840425976cf0667f022fe9877caa831b0883610d4a565b9050919050565b600080610d55611023565b9050610d818382600001600087815260200190815260200160002060000161105090919063ffffffff16565b91505092915050565b600080610d95611080565b9050600181600001540181600001819055506000610db682600001546110ad565b90506000610dc2610c42565b90506000610dd384600001546110c4565b905083600001548360000181905550428360010181905550816000015442018360020181905550600188038160000181905550868160010181905550858160020181905550610e20610c6f565b73ffffffffffffffffffffffffffffffffffffffff167fa5de4e0f1266a8772665613fee9f17e6403ad5e6bdd5de0e58a8a85aa34303c385600001548a8a604051610e6d939291906117a5565b60405180910390a282600001549450505050509392505050565b6000610eb37f829b824e2329e205435d941c9f13baf578548505283d29261236d8e6596d463683610d4a565b80610ee45750610ee37f241ecf16d79d0f8dbfb92cbc07fe17840425976cf0667f022fe9877caa831b0883610d4a565b5b9050919050565b600080610ef6611080565b9050600181600001540181600001819055506000610f1782600001546110ad565b90508160000154816000018190555042816001018190555084420181600201819055506000610f4983600001546110db565b9050868160010181905550610f5c6110f2565b60010160008673ffffffffffffffffffffffffffffffffffffffff1673ffffffffffffffffffffffffffffffffffffffff16815260200190815260200160002054816000018190555080600001547f91aa418bfd26049fe46510fca1b7593f8348efbf8e8e29a3844bb16584ff14488460000154604051610fdd919061178a565b60405180910390a2816000015493505050509392505050565b6000807fc8fcad8db84d3cc18b4c41d551ea0ee66dd599cde068d998e57d5e09332c131c90508091505090565b6000807f6282190449f76f72a9f692e4d8619a03764b7253394788948e36a7a57ba4a00e90508091505090565b6000611078836000018373ffffffffffffffffffffffffffffffffffffffff1660001b61111f565b905092915050565b6000807fe9264b9da64504fcbd8e41f0f0eb90a5e885b3fe366dad83c81095d9285d25e190508091505090565b6000806110b983611142565b905080915050919050565b6000806110d08361118e565b905080915050919050565b6000806110e7836111da565b905080915050919050565b6000807faa97fdeef5de5607974189e6a2429d502dcc32b43d658c3c065d5ca083ee1fab90508091505090565b600080836001016000848152602001908152602001600020541415905092915050565b6000816040516020018080602001838152602001828103825260238152602001806118df6023913960400192505050604051602081830303815290604052805190602001209050919050565b6000816040516020018080602001838152602001828103825260258152602001806118936025913960400192505050604051602081830303815290604052805190602001209050919050565b6000816040516020018080602001838152602001828103825260278152602001806118b86027913960400192505050604051602081830303815290604052805190602001209050919050565b6040518060a00160405280600081526020016000815260200160008152602001600081526020016000600181111561125a57fe5b81525090565b60008135905061126f81611864565b92915050565b6000813590506112848161187b565b92915050565b60006020828403121561129c57600080fd5b60006112aa84828501611275565b91505092915050565b600080604083850312156112c657600080fd5b60006112d485828601611275565b92505060206112e585828601611260565b9150509250929050565b6000806040838503121561130257600080fd5b600061131085828601611275565b925050602061132185828601611275565b9150509250929050565b60008060006060848603121561134057600080fd5b600061134e86828701611275565b935050602061135f86828701611275565b925050604061137086828701611275565b9150509250925092565b6113838161183c565b82525050565b6000611396600b836117dc565b91507f4e4f545f4d414e414745520000000000000000000000000000000000000000006000830152602082019050919050565b60006113d6600e836117dc565b91507f49535f4e4f545f454e41424c45440000000000000000000000000000000000006000830152602082019050919050565b6000611416600a836117dc565b91507f4e4f545f4d454d424552000000000000000000000000000000000000000000006000830152602082019050919050565b60006114566010836117dc565b91507f414c52454144595f44495341424c4544000000000000000000000000000000006000830152602082019050919050565b6000611496600b836117dc565b91507f4e4f545f414c4c4f5745440000000000000000000000000000000000000000006000830152602082019050919050565b60006114d66008836117dc565b91507f49535f455155414c0000000000000000000000000000000000000000000000006000830152602082019050919050565b60006115166010836117dc565b91507f49535f4e4f545f46494e414c495a4544000000000000000000000000000000006000830152602082019050919050565b6000611556600f836117dc565b91507f414c52454144595f454e41424c454400000000000000000000000000000000006000830152602082019050919050565b60006115966009836117dc565b91507f4e4f545f56414c494400000000000000000000000000000000000000000000006000830152602082019050919050565b60a0820160008201516115df6000850182611631565b5060208201516115f26020850182611631565b5060408201516116056040850182611631565b5060608201516116186060850182611631565b50608082015161162b608085018261137a565b50505050565b61163a81611832565b82525050565b61164981611832565b82525050565b6000602082019050818103600083015261166881611389565b9050919050565b60006020820190508181036000830152611688816113c9565b9050919050565b600060208201905081810360008301526116a881611409565b9050919050565b600060208201905081810360008301526116c881611449565b9050919050565b600060208201905081810360008301526116e881611489565b9050919050565b60006020820190508181036000830152611708816114c9565b9050919050565b6000602082019050818103600083015261172881611509565b9050919050565b6000602082019050818103600083015261174881611549565b9050919050565b6000602082019050818103600083015261176881611589565b9050919050565b600060a08201905061178460008301846115c9565b92915050565b600060208201905061179f6000830184611640565b92915050565b60006060820190506117ba6000830186611640565b6117c76020830185611640565b6117d46040830184611640565b949350505050565b600082825260208201905092915050565b60006117f882611812565b9050919050565b600081905061180d82611850565b919050565b600073ffffffffffffffffffffffffffffffffffffffff82169050919050565b6000819050919050565b6000611847826117ff565b9050919050565bfe5b600281106118615761186061184e565b5b50565b61186d816117ed565b811461187857600080fd5b50565b61188481611832565b811461188f57600080fd5b5056fe6469616d6f6e642e636f6e74726163742e6173736574706f6f6c2e726577617264706f6c6c6469616d6f6e642e636f6e74726163742e6173736574706f6f6c2e7769746864726177706f6c6c6469616d6f6e642e636f6e74726163742e6173736574706f6f6c2e62617365706f6c6ca2646970667358221220288f048696682f416ab804676e636360f5f04b8f9b0fd9bb35902058fc67996364736f6c63430007040033",
  "linkReferences": {},
  "deployedLinkReferences": {}
}