{
  "_format": "hh-sol-artifact-1",
  "contractName": "RewardBy",
  "sourceName": "contracts/contracts/10-RewardBypass/RewardBy.sol",
  "abi": [
    {
      "anonymous": false,
      "inputs": [
        {
          "indexed": false,
          "internalType": "uint256",
          "name": "id",
          "type": "uint256"
        },
        {
          "indexed": true,
          "internalType": "address",
          "name": "member",
          "type": "address"
        },
        {
          "indexed": false,
          "internalType": "uint256",
          "name": "rewardID",
          "type": "uint256"
        },
        {
          "indexed": false,
          "internalType": "uint256",
          "name": "proposal",
          "type": "uint256"
        }
      ],
      "name": "RewardPollCreated",
      "type": "event"
    },
    {
      "anonymous": false,
      "inputs": [
        {
          "indexed": true,
          "internalType": "bytes32",
          "name": "role",
          "type": "bytes32"
        },
        {
          "indexed": true,
          "internalType": "bytes32",
          "name": "previousAdminRole",
          "type": "bytes32"
        },
        {
          "indexed": true,
          "internalType": "bytes32",
          "name": "newAdminRole",
          "type": "bytes32"
        }
      ],
      "name": "RoleAdminChanged",
      "type": "event"
    },
    {
      "anonymous": false,
      "inputs": [
        {
          "indexed": true,
          "internalType": "bytes32",
          "name": "role",
          "type": "bytes32"
        },
        {
          "indexed": true,
          "internalType": "address",
          "name": "account",
          "type": "address"
        },
        {
          "indexed": true,
          "internalType": "address",
          "name": "sender",
          "type": "address"
        }
      ],
      "name": "RoleGranted",
      "type": "event"
    },
    {
      "anonymous": false,
      "inputs": [
        {
          "indexed": true,
          "internalType": "bytes32",
          "name": "role",
          "type": "bytes32"
        },
        {
          "indexed": true,
          "internalType": "address",
          "name": "account",
          "type": "address"
        },
        {
          "indexed": true,
          "internalType": "address",
          "name": "sender",
          "type": "address"
        }
      ],
      "name": "RoleRevoked",
      "type": "event"
    },
    {
      "anonymous": false,
      "inputs": [
        {
          "indexed": false,
          "internalType": "uint256",
          "name": "id",
          "type": "uint256"
        },
        {
          "indexed": true,
          "internalType": "uint256",
          "name": "member",
          "type": "uint256"
        }
      ],
      "name": "WithdrawPollCreated",
      "type": "event"
    },
    {
      "inputs": [
        {
          "internalType": "uint256",
          "name": "_withdrawAmount",
          "type": "uint256"
        },
        {
          "internalType": "uint256",
          "name": "_withdrawDuration",
          "type": "uint256"
        }
      ],
      "name": "addReward",
      "outputs": [],
      "stateMutability": "nonpayable",
      "type": "function"
    },
    {
      "inputs": [
        {
          "internalType": "uint256",
          "name": "_id",
          "type": "uint256"
        }
      ],
      "name": "claimReward",
      "outputs": [],
      "stateMutability": "nonpayable",
      "type": "function"
    },
    {
      "inputs": [
        {
          "internalType": "uint256",
          "name": "_id",
          "type": "uint256"
        },
        {
          "internalType": "address",
          "name": "_beneficiary",
          "type": "address"
        }
      ],
      "name": "claimRewardFor",
      "outputs": [],
      "stateMutability": "nonpayable",
      "type": "function"
    },
    {
      "inputs": [
        {
          "internalType": "uint256",
          "name": "_id",
          "type": "uint256"
        }
      ],
      "name": "getReward",
      "outputs": [
        {
          "components": [
            {
              "internalType": "uint256",
              "name": "id",
              "type": "uint256"
            },
            {
              "internalType": "uint256",
              "name": "withdrawAmount",
              "type": "uint256"
            },
            {
              "internalType": "uint256",
              "name": "withdrawDuration",
              "type": "uint256"
            },
            {
              "internalType": "uint256",
              "name": "pollId",
              "type": "uint256"
            },
            {
              "internalType": "enum LibRewardPollStorage.RewardState",
              "name": "state",
              "type": "uint8"
            }
          ],
          "internalType": "struct LibRewardPollStorage.Reward",
          "name": "",
          "type": "tuple"
        }
      ],
      "stateMutability": "view",
      "type": "function"
    },
    {
      "inputs": [],
      "name": "getRewardPollDuration",
      "outputs": [
        {
          "internalType": "uint256",
          "name": "",
          "type": "uint256"
        }
      ],
      "stateMutability": "view",
      "type": "function"
    },
    {
      "inputs": [
        {
          "internalType": "uint256",
          "name": "_duration",
          "type": "uint256"
        }
      ],
      "name": "setRewardPollDuration",
      "outputs": [],
      "stateMutability": "nonpayable",
      "type": "function"
    },
    {
      "inputs": [
        {
          "internalType": "uint256",
          "name": "_id",
          "type": "uint256"
        },
        {
          "internalType": "uint256",
          "name": "_withdrawAmount",
          "type": "uint256"
        },
        {
          "internalType": "uint256",
          "name": "_withdrawDuration",
          "type": "uint256"
        }
      ],
      "name": "updateReward",
      "outputs": [],
      "stateMutability": "nonpayable",
      "type": "function"
    }
  ],
  "bytecode": "0x608060405234801561001057600080fd5b506116cc806100206000396000f3fe608060405234801561001057600080fd5b506004361061007d5760003560e01c806375c93bb91161005b57806375c93bb9146100ec578063ae169a5014610108578063b712851b14610124578063cd52235f146101405761007d565b80631c4b774b14610082578063365edf20146100b25780634553f806146100ce575b600080fd5b61009c6004803603810190610097919061107f565b61015c565b6040516100a99190611504565b60405180910390f35b6100cc60048036038101906100c7919061107f565b6101f2565b005b6100d66102a8565b6040516100e3919061151f565b60405180910390f35b610106600480360381019061010191906110e4565b6102bb565b005b610122600480360381019061011d919061107f565b61055f565b005b61013e60048036038101906101399190611120565b610573565b005b61015a600480360381019061015591906110a8565b6108cd565b005b61016461101b565b61016c610a6a565b600101600183038154811061017d57fe5b90600052602060002090600502016040518060a0016040529081600082015481526020016001820154815260200160028201548152602001600382015481526020016004820160009054906101000a900460ff1660018111156101dc57fe5b60018111156101e757fe5b815250509050919050565b6102237f241ecf16d79d0f8dbfb92cbc07fe17840425976cf0667f022fe9877caa831b0861021e610a97565b610b0c565b610295576040517f08c379a000000000000000000000000000000000000000000000000000000000815260040180806020018281038252600b8152602001807f4e4f545f4d414e4147455200000000000000000000000000000000000000000081525060200191505060405180910390fd5b8061029e610a6a565b6000018190555050565b60006102b2610a6a565b60000154905090565b6102c3610a97565b73ffffffffffffffffffffffffffffffffffffffff166102e1610b4c565b73ffffffffffffffffffffffffffffffffffffffff161461036a576040517f08c379a00000000000000000000000000000000000000000000000000000000081526004018080602001828103825260098152602001807f4e4f545f4f574e4552000000000000000000000000000000000000000000000081525060200191505060405180910390fd5b60008214156103ae576040517f08c379a00000000000000000000000000000000000000000000000000000000081526004016103a5906114e4565b60405180910390fd5b7f0400000000000000000000000000000000000000000000000000000000000000821415610411576040517f08c379a0000000000000000000000000000000000000000000000000000000008152600401610408906114e4565b60405180910390fd5b7f0800000000000000000000000000000000000000000000000000000000000000821415610474576040517f08c379a000000000000000000000000000000000000000000000000000000000815260040161046b906114e4565b60405180910390fd5b61047c61101b565b6001610486610a6a565b60010180549050018160000181815250506000816080019060018111156104a957fe5b908160018111156104b657fe5b815250506104c981600001518484610b7f565b8160600181815250506104da610a6a565b6001018190806001815401808255809150506001900390600052602060002090600502016000909190919091506000820151816000015560208201518160010155604082015181600201556060820151816003015560808201518160040160006101000a81548160ff0219169083600181111561055357fe5b02179055505050505050565b6105708161056b610a97565b6108cd565b50565b61057b610a97565b73ffffffffffffffffffffffffffffffffffffffff16610599610b4c565b73ffffffffffffffffffffffffffffffffffffffff1614610622576040517f08c379a00000000000000000000000000000000000000000000000000000000081526004018080602001828103825260098152602001807f4e4f545f4f574e4552000000000000000000000000000000000000000000000081525060200191505060405180910390fd5b61063261062d610a97565b610c7c565b610671576040517f08c379a000000000000000000000000000000000000000000000000000000000815260040161066890611424565b60405180910390fd5b600061067b610a6a565b600101600185038154811061068c57fe5b9060005260206000209060050201905060008160030154146106e3576040517f08c379a00000000000000000000000000000000000000000000000000000000081526004016106da906114a4565b60405180910390fd5b6000831480156106f35750600082145b15610733576040517f08c379a000000000000000000000000000000000000000000000000000000000815260040161072a90611464565b60405180910390fd5b7f040000000000000000000000000000000000000000000000000000000000000083148015610788575060018081111561076957fe5b8160040160009054906101000a900460ff16600181111561078657fe5b145b156107c8576040517f08c379a00000000000000000000000000000000000000000000000000000000081526004016107bf906114c4565b60405180910390fd5b7f08000000000000000000000000000000000000000000000000000000000000008314801561081e5750600060018111156107ff57fe5b8160040160009054906101000a900460ff16600181111561081c57fe5b145b1561085e576040517f08c379a000000000000000000000000000000000000000000000000000000000815260040161085590611444565b60405180910390fd5b8281600101541480156108745750818160020154145b156108b4576040517f08c379a00000000000000000000000000000000000000000000000000000000081526004016108ab90611484565b60405180910390fd5b6108bf848484610b7f565b816003018190555050505050565b6108dd6108d8610a97565b610c7c565b61091c576040517f08c379a000000000000000000000000000000000000000000000000000000000815260040161091390611424565b60405180910390fd5b61092581610c7c565b610964576040517f08c379a000000000000000000000000000000000000000000000000000000000815260040161095b90611424565b60405180910390fd5b61096c61101b565b610974610a6a565b600101600184038154811061098557fe5b90600052602060002090600502016040518060a0016040529081600082015481526020016001820154815260200160028201548152602001600382015481526020016004820160009054906101000a900460ff1660018111156109e457fe5b60018111156109ef57fe5b815250509050600180811115610a0157fe5b81608001516001811115610a1157fe5b14610a51576040517f08c379a0000000000000000000000000000000000000000000000000000000008152600401610a4890611404565b60405180910390fd5b610a648160200151826040015184610ce0565b50505050565b6000807f631ba92ab8eb0c7c19aa90ebce8ff250a95acd664966559209d622b596e0787b90508091505090565b600060606000368080601f016020809104026020016040519081016040528093929190818152602001838380828437600081840152601f19601f820116905080830192505050505050509050600080369050905073ffffffffffffffffffffffffffffffffffffffff81830151169250505090565b600080610b17610deb565b9050610b4383826000016000878152602001908152602001600020600001610e1890919063ffffffff16565b91505092915050565b6000610b56610e48565b60040160009054906101000a900473ffffffffffffffffffffffffffffffffffffffff16905090565b600080610b8a610e75565b9050600181600001540181600001819055506000610bab8260000154610ea2565b90506000610bb7610a6a565b90506000610bc88460000154610eb9565b905083600001548360000181905550428360010181905550816000015442018360020181905550600188038160000181905550868160010181905550858160020181905550610c15610a97565b73ffffffffffffffffffffffffffffffffffffffff167fa5de4e0f1266a8772665613fee9f17e6403ad5e6bdd5de0e58a8a85aa34303c385600001548a8a604051610c629392919061153a565b60405180910390a282600001549450505050509392505050565b6000610ca87f829b824e2329e205435d941c9f13baf578548505283d29261236d8e6596d463683610b0c565b80610cd95750610cd87f241ecf16d79d0f8dbfb92cbc07fe17840425976cf0667f022fe9877caa831b0883610b0c565b5b9050919050565b600080610ceb610e75565b9050600181600001540181600001819055506000610d0c8260000154610ea2565b90508160000154816000018190555042816001018190555084420181600201819055506000610d3e8360000154610ed0565b9050868160010181905550610d51610ee7565b60010160008673ffffffffffffffffffffffffffffffffffffffff1673ffffffffffffffffffffffffffffffffffffffff16815260200190815260200160002054816000018190555080600001547f91aa418bfd26049fe46510fca1b7593f8348efbf8e8e29a3844bb16584ff14488460000154604051610dd2919061151f565b60405180910390a2816000015493505050509392505050565b6000807f6282190449f76f72a9f692e4d8619a03764b7253394788948e36a7a57ba4a00e90508091505090565b6000610e40836000018373ffffffffffffffffffffffffffffffffffffffff1660001b610f14565b905092915050565b6000807fc8fcad8db84d3cc18b4c41d551ea0ee66dd599cde068d998e57d5e09332c131c90508091505090565b6000807fe9264b9da64504fcbd8e41f0f0eb90a5e885b3fe366dad83c81095d9285d25e190508091505090565b600080610eae83610f37565b905080915050919050565b600080610ec583610f83565b905080915050919050565b600080610edc83610fcf565b905080915050919050565b6000807faa97fdeef5de5607974189e6a2429d502dcc32b43d658c3c065d5ca083ee1fab90508091505090565b600080836001016000848152602001908152602001600020541415905092915050565b6000816040516020018080602001838152602001828103825260238152602001806116746023913960400192505050604051602081830303815290604052805190602001209050919050565b6000816040516020018080602001838152602001828103825260258152602001806116286025913960400192505050604051602081830303815290604052805190602001209050919050565b60008160405160200180806020018381526020018281038252602781526020018061164d6027913960400192505050604051602081830303815290604052805190602001209050919050565b6040518060a00160405280600081526020016000815260200160008152602001600081526020016000600181111561104f57fe5b81525090565b600081359050611064816115f9565b92915050565b60008135905061107981611610565b92915050565b60006020828403121561109157600080fd5b600061109f8482850161106a565b91505092915050565b600080604083850312156110bb57600080fd5b60006110c98582860161106a565b92505060206110da85828601611055565b9150509250929050565b600080604083850312156110f757600080fd5b60006111058582860161106a565b92505060206111168582860161106a565b9150509250929050565b60008060006060848603121561113557600080fd5b60006111438682870161106a565b93505060206111548682870161106a565b92505060406111658682870161106a565b9150509250925092565b611178816115d1565b82525050565b600061118b600e83611571565b91507f49535f4e4f545f454e41424c45440000000000000000000000000000000000006000830152602082019050919050565b60006111cb600a83611571565b91507f4e4f545f4d454d424552000000000000000000000000000000000000000000006000830152602082019050919050565b600061120b601083611571565b91507f414c52454144595f44495341424c4544000000000000000000000000000000006000830152602082019050919050565b600061124b600b83611571565b91507f4e4f545f414c4c4f5745440000000000000000000000000000000000000000006000830152602082019050919050565b600061128b600883611571565b91507f49535f455155414c0000000000000000000000000000000000000000000000006000830152602082019050919050565b60006112cb601083611571565b91507f49535f4e4f545f46494e414c495a4544000000000000000000000000000000006000830152602082019050919050565b600061130b600f83611571565b91507f414c52454144595f454e41424c454400000000000000000000000000000000006000830152602082019050919050565b600061134b600983611571565b91507f4e4f545f56414c494400000000000000000000000000000000000000000000006000830152602082019050919050565b60a08201600082015161139460008501826113e6565b5060208201516113a760208501826113e6565b5060408201516113ba60408501826113e6565b5060608201516113cd60608501826113e6565b5060808201516113e0608085018261116f565b50505050565b6113ef816115c7565b82525050565b6113fe816115c7565b82525050565b6000602082019050818103600083015261141d8161117e565b9050919050565b6000602082019050818103600083015261143d816111be565b9050919050565b6000602082019050818103600083015261145d816111fe565b9050919050565b6000602082019050818103600083015261147d8161123e565b9050919050565b6000602082019050818103600083015261149d8161127e565b9050919050565b600060208201905081810360008301526114bd816112be565b9050919050565b600060208201905081810360008301526114dd816112fe565b9050919050565b600060208201905081810360008301526114fd8161133e565b9050919050565b600060a082019050611519600083018461137e565b92915050565b600060208201905061153460008301846113f5565b92915050565b600060608201905061154f60008301866113f5565b61155c60208301856113f5565b61156960408301846113f5565b949350505050565b600082825260208201905092915050565b600061158d826115a7565b9050919050565b60008190506115a2826115e5565b919050565b600073ffffffffffffffffffffffffffffffffffffffff82169050919050565b6000819050919050565b60006115dc82611594565b9050919050565bfe5b600281106115f6576115f56115e3565b5b50565b61160281611582565b811461160d57600080fd5b50565b611619816115c7565b811461162457600080fd5b5056fe6469616d6f6e642e636f6e74726163742e6173736574706f6f6c2e726577617264706f6c6c6469616d6f6e642e636f6e74726163742e6173736574706f6f6c2e7769746864726177706f6c6c6469616d6f6e642e636f6e74726163742e6173736574706f6f6c2e62617365706f6c6ca2646970667358221220f68aa36fa80bf7cb52f1727522904b09f7bdaabde01a603439ce0e535a0de91c64736f6c63430007040033",
  "linkReferences": {},
  "deployedLinkReferences": {}
}