{
  "_format": "hh-sol-artifact-1",
  "contractName": "RewardBy",
  "sourceName": "contracts/contracts/10-RewardBypass/RewardBy.sol",
  "abi": [
    {
      "anonymous": false,
      "inputs": [
        {
          "indexed": false,
          "internalType": "uint256",
          "name": "id",
          "type": "uint256"
        },
        {
          "indexed": true,
          "internalType": "address",
          "name": "member",
          "type": "address"
        },
        {
          "indexed": false,
          "internalType": "uint256",
          "name": "rewardID",
          "type": "uint256"
        },
        {
          "indexed": false,
          "internalType": "uint256",
          "name": "proposal",
          "type": "uint256"
        }
      ],
      "name": "RewardPollCreated",
      "type": "event"
    },
    {
      "anonymous": false,
      "inputs": [
        {
          "indexed": true,
          "internalType": "bytes32",
          "name": "role",
          "type": "bytes32"
        },
        {
          "indexed": true,
          "internalType": "bytes32",
          "name": "previousAdminRole",
          "type": "bytes32"
        },
        {
          "indexed": true,
          "internalType": "bytes32",
          "name": "newAdminRole",
          "type": "bytes32"
        }
      ],
      "name": "RoleAdminChanged",
      "type": "event"
    },
    {
      "anonymous": false,
      "inputs": [
        {
          "indexed": true,
          "internalType": "bytes32",
          "name": "role",
          "type": "bytes32"
        },
        {
          "indexed": true,
          "internalType": "address",
          "name": "account",
          "type": "address"
        },
        {
          "indexed": true,
          "internalType": "address",
          "name": "sender",
          "type": "address"
        }
      ],
      "name": "RoleGranted",
      "type": "event"
    },
    {
      "anonymous": false,
      "inputs": [
        {
          "indexed": true,
          "internalType": "bytes32",
          "name": "role",
          "type": "bytes32"
        },
        {
          "indexed": true,
          "internalType": "address",
          "name": "account",
          "type": "address"
        },
        {
          "indexed": true,
          "internalType": "address",
          "name": "sender",
          "type": "address"
        }
      ],
      "name": "RoleRevoked",
      "type": "event"
    },
    {
      "anonymous": false,
      "inputs": [
        {
          "indexed": false,
          "internalType": "uint256",
          "name": "id",
          "type": "uint256"
        },
        {
          "indexed": true,
          "internalType": "uint256",
          "name": "member",
          "type": "uint256"
        }
      ],
      "name": "WithdrawPollCreated",
      "type": "event"
    },
    {
      "inputs": [
        {
          "internalType": "uint256",
          "name": "_withdrawAmount",
          "type": "uint256"
        },
        {
          "internalType": "uint256",
          "name": "_withdrawDuration",
          "type": "uint256"
        }
      ],
      "name": "addReward",
      "outputs": [],
      "stateMutability": "nonpayable",
      "type": "function"
    },
    {
      "inputs": [
        {
          "internalType": "uint256",
          "name": "_id",
          "type": "uint256"
        }
      ],
      "name": "claimReward",
      "outputs": [],
      "stateMutability": "nonpayable",
      "type": "function"
    },
    {
      "inputs": [
        {
          "internalType": "uint256",
          "name": "_id",
          "type": "uint256"
        },
        {
          "internalType": "address",
          "name": "_beneficiary",
          "type": "address"
        }
      ],
      "name": "claimRewardFor",
      "outputs": [],
      "stateMutability": "nonpayable",
      "type": "function"
    },
    {
      "inputs": [
        {
          "internalType": "uint256",
          "name": "_id",
          "type": "uint256"
        }
      ],
      "name": "disableReward",
      "outputs": [],
      "stateMutability": "nonpayable",
      "type": "function"
    },
    {
      "inputs": [
        {
          "internalType": "uint256",
          "name": "_id",
          "type": "uint256"
        }
      ],
      "name": "enableReward",
      "outputs": [],
      "stateMutability": "nonpayable",
      "type": "function"
    },
    {
      "inputs": [
        {
          "internalType": "uint256",
          "name": "_id",
          "type": "uint256"
        }
      ],
      "name": "getReward",
      "outputs": [
        {
          "components": [
            {
              "internalType": "uint256",
              "name": "id",
              "type": "uint256"
            },
            {
              "internalType": "uint256",
              "name": "withdrawAmount",
              "type": "uint256"
            },
            {
              "internalType": "uint256",
              "name": "withdrawDuration",
              "type": "uint256"
            },
            {
              "internalType": "uint256",
              "name": "pollId",
              "type": "uint256"
            },
            {
              "internalType": "enum LibRewardPollStorage.RewardState",
              "name": "state",
              "type": "uint8"
            }
          ],
          "internalType": "struct LibRewardPollStorage.Reward",
          "name": "",
          "type": "tuple"
        }
      ],
      "stateMutability": "view",
      "type": "function"
    },
    {
      "inputs": [],
      "name": "getRewardPollDuration",
      "outputs": [
        {
          "internalType": "uint256",
          "name": "",
          "type": "uint256"
        }
      ],
      "stateMutability": "view",
      "type": "function"
    },
    {
      "inputs": [
        {
          "internalType": "uint256",
          "name": "_duration",
          "type": "uint256"
        }
      ],
      "name": "setRewardPollDuration",
      "outputs": [],
      "stateMutability": "nonpayable",
      "type": "function"
    },
    {
      "inputs": [
        {
          "internalType": "uint256",
          "name": "_id",
          "type": "uint256"
        },
        {
          "internalType": "uint256",
          "name": "_withdrawAmount",
          "type": "uint256"
        },
        {
          "internalType": "uint256",
          "name": "_withdrawDuration",
          "type": "uint256"
        }
      ],
      "name": "updateReward",
      "outputs": [],
      "stateMutability": "nonpayable",
      "type": "function"
    }
  ],
  "bytecode": "0x608060405234801561001057600080fd5b50611091806100206000396000f3fe608060405234801561001057600080fd5b50600436106100a35760003560e01c806375c93bb911610076578063b712851b1161005b578063b712851b14610134578063cd52235f14610147578063d47cd53b1461015a576100a3565b806375c93bb91461010e578063ae169a5014610121576100a3565b80631c4b774b146100a85780632996bd46146100d1578063365edf20146100e65780634553f806146100f9575b600080fd5b6100bb6100b6366004610d0c565b61016d565b6040516100c89190610f87565b60405180910390f35b6100e46100df366004610d0c565b610201565b005b6100e46100f4366004610d0c565b610310565b61010161038d565b6040516100c89190610fcd565b6100e461011c366004610d5e565b61039d565b6100e461012f366004610d0c565b6104bc565b6100e4610142366004610d7f565b6104cb565b6100e4610155366004610d24565b610618565b6100e4610168366004610d0c565b61073c565b610175610cd3565b61017d610836565b600101600183038154811061018e57fe5b90600052602060002090600502016040518060a0016040529081600082015481526020016001820154815260200160028201548152602001600382015481526020016004820160009054906101000a900460ff1660018111156101ed57fe5b60018111156101f857fe5b90525092915050565b61020961085a565b6001600160a01b031661021a6108a7565b6001600160a01b031614610261576040805162461bcd60e51b81526020600482015260096024820152682727aa2fa7aba722a960b91b604482015290519081900360640190fd5b61027161026c61085a565b6108c3565b6102965760405162461bcd60e51b815260040161028d90610daa565b60405180910390fd5b60006102a0610836565b60010160018303815481106102b157fe5b6000918252602090912060059091020190506001600482015460ff1660018111156102d857fe5b14156102f65760405162461bcd60e51b815260040161028d90610f19565b6004810180546001919060ff191682805b02179055505050565b6103417f241ecf16d79d0f8dbfb92cbc07fe17840425976cf0667f022fe9877caa831b0861033c61085a565b6108f5565b610380576040805162461bcd60e51b815260206004820152600b60248201526a2727aa2fa6a0a720a3a2a960a91b604482015290519081900360640190fd5b80610389610836565b5550565b6000610397610836565b54905090565b6103a561085a565b6001600160a01b03166103b66108a7565b6001600160a01b0316146103fd576040805162461bcd60e51b81526020600482015260096024820152682727aa2fa7aba722a960b91b604482015290519081900360640190fd5b8161041a5760405162461bcd60e51b815260040161028d90610f50565b610422610cd3565b61042a610836565b6001908101540180825260006080830152610446908484610923565b6060820152610453610836565b60019081018054808301825560009182526020918290208451600590920201908155908301518183015560408301516002820155606083015160038201556080830151600482018054859460ff199091169083818111156104b057fe5b02179055505050505050565b6104c88161015561085a565b50565b6104d361085a565b6001600160a01b03166104e46108a7565b6001600160a01b03161461052b576040805162461bcd60e51b81526020600482015260096024820152682727aa2fa7aba722a960b91b604482015290519081900360640190fd5b61053b61053661085a565b6109ed565b6105575760405162461bcd60e51b815260040161028d90610e06565b6000610561610836565b600101600185038154811061057257fe5b9060005260206000209060050201905080600301546000146105a65760405162461bcd60e51b815260040161028d90610ee2565b821580156105b2575081155b156105cf5760405162461bcd60e51b815260040161028d90610e74565b8281600101541480156105e55750818160020154145b156106025760405162461bcd60e51b815260040161028d90610eab565b61060d848484610923565b600390910155505050565b61062361053661085a565b61063f5760405162461bcd60e51b815260040161028d90610e06565b610648816109ed565b6106645760405162461bcd60e51b815260040161028d90610e06565b61066c610cd3565b610674610836565b600101600184038154811061068557fe5b90600052602060002090600502016040518060a0016040529081600082015481526020016001820154815260200160028201548152602001600382015481526020016004820160009054906101000a900460ff1660018111156106e457fe5b60018111156106ef57fe5b905250905060018160800151600181111561070657fe5b146107235760405162461bcd60e51b815260040161028d90610dcf565b6107368160200151826040015184610a49565b50505050565b61074461085a565b6001600160a01b03166107556108a7565b6001600160a01b03161461079c576040805162461bcd60e51b81526020600482015260096024820152682727aa2fa7aba722a960b91b604482015290519081900360640190fd5b6107a761026c61085a565b6107c35760405162461bcd60e51b815260040161028d90610daa565b60006107cd610836565b60010160018303815481106107de57fe5b6000918252602082206005909102019150600482015460ff16600181111561080257fe5b14156108205760405162461bcd60e51b815260040161028d90610e3d565b6004810180546000919060ff1916600183610307565b7f631ba92ab8eb0c7c19aa90ebce8ff250a95acd664966559209d622b596e0787b90565b600060606000368080601f0160208091040260200160405190810160405280939291908181526020018383808284376000920191909152505050503601516001600160a01b031692915050565b60006108b1610b07565b600401546001600160a01b0316919050565b60006108ef7f241ecf16d79d0f8dbfb92cbc07fe17840425976cf0667f022fe9877caa831b08836108f5565b92915050565b600080610900610b2b565b600085815260208290526040902090915061091b9084610b4f565b949350505050565b60008061092e610b6b565b805460010180825590915060009061094590610b8f565b90506000610951610836565b905060006109628460000154610b9b565b8454845542600180860182905584549091016002808701919091556000198b0183559082018990558101879055905061099961085a565b6001600160a01b03167fa5de4e0f1266a8772665613fee9f17e6403ad5e6bdd5de0e58a8a85aa34303c385600001548a8a6040516109d993929190610fd6565b60405180910390a250505495945050505050565b6000610a197f829b824e2329e205435d941c9f13baf578548505283d29261236d8e6596d4636836108f5565b806108ef57506108ef7f241ecf16d79d0f8dbfb92cbc07fe17840425976cf0667f022fe9877caa831b08836108f5565b600080610a54610b6b565b8054600101808255909150600090610a6b90610b8f565b825481554260018201819055860160028201558254909150600090610a8f90610ba7565b600181018890559050610aa0610bb3565b6001600160a01b0386166000908152600191909101602052604090819020548083558454915190917f91aa418bfd26049fe46510fca1b7593f8348efbf8e8e29a3844bb16584ff144891610af49190610fcd565b60405180910390a2505495945050505050565b7fc8fcad8db84d3cc18b4c41d551ea0ee66dd599cde068d998e57d5e09332c131c90565b7f6282190449f76f72a9f692e4d8619a03764b7253394788948e36a7a57ba4a00e90565b6000610b64836001600160a01b038416610bd7565b9392505050565b7fe9264b9da64504fcbd8e41f0f0eb90a5e885b3fe366dad83c81095d9285d25e190565b600080610b6483610bef565b600080610b6483610c3b565b600080610b6483610c87565b7faa97fdeef5de5607974189e6a2429d502dcc32b43d658c3c065d5ca083ee1fab90565b60009081526001919091016020526040902054151590565b6000816040516020018080602001838152602001828103825260238152602001806110396023913960400192505050604051602081830303815290604052805190602001209050919050565b600081604051602001808060200183815260200182810382526025815260200180610fed6025913960400192505050604051602081830303815290604052805190602001209050919050565b6000816040516020018080602001838152602001828103825260278152602001806110126027913960400192505050604051602081830303815290604052805190602001209050919050565b6040518060a001604052806000815260200160008152602001600081526020016000815260200160006001811115610d0757fe5b905290565b600060208284031215610d1d578081fd5b5035919050565b60008060408385031215610d36578081fd5b8235915060208301356001600160a01b0381168114610d53578182fd5b809150509250929050565b60008060408385031215610d70578182fd5b50508035926020909101359150565b600080600060608486031215610d93578081fd5b505081359360208301359350604090920135919050565b6020808252600b908201526a2727aa2fa6a0a720a3a2a960a91b604082015260600190565b6020808252600e908201527f49535f4e4f545f454e41424c4544000000000000000000000000000000000000604082015260600190565b6020808252600a908201527f4e4f545f4d454d42455200000000000000000000000000000000000000000000604082015260600190565b60208082526010908201527f414c52454144595f44495341424c454400000000000000000000000000000000604082015260600190565b6020808252600b908201527f4e4f545f414c4c4f574544000000000000000000000000000000000000000000604082015260600190565b60208082526008908201527f49535f455155414c000000000000000000000000000000000000000000000000604082015260600190565b60208082526010908201527f49535f4e4f545f46494e414c495a454400000000000000000000000000000000604082015260600190565b6020808252600f908201527f414c52454144595f454e41424c45440000000000000000000000000000000000604082015260600190565b60208082526009908201527f4e4f545f56414c49440000000000000000000000000000000000000000000000604082015260600190565b600060a08201905082518252602083015160208301526040830151604083015260608301516060830152608083015160028110610fc057fe5b8060808401525092915050565b90815260200190565b928352602083019190915260408201526060019056fe6469616d6f6e642e636f6e74726163742e6173736574706f6f6c2e726577617264706f6c6c6469616d6f6e642e636f6e74726163742e6173736574706f6f6c2e7769746864726177706f6c6c6469616d6f6e642e636f6e74726163742e6173736574706f6f6c2e62617365706f6c6ca26469706673582212207daeb228b3567608a581ab666ca0bf52d659a9f4a3f7fd5fef1f83eaf351c91e64736f6c63430007040033",
  "linkReferences": {},
  "deployedLinkReferences": {}
}