{
  "_format": "hh-sol-artifact-1",
  "contractName": "RolesFacet",
  "sourceName": "contracts/contracts/facets/RolesFacet/RolesFacet.sol",
  "abi": [
    {
      "anonymous": false,
      "inputs": [
        {
          "indexed": true,
          "internalType": "bytes32",
          "name": "role",
          "type": "bytes32"
        },
        {
          "indexed": true,
          "internalType": "bytes32",
          "name": "previousAdminRole",
          "type": "bytes32"
        },
        {
          "indexed": true,
          "internalType": "bytes32",
          "name": "newAdminRole",
          "type": "bytes32"
        }
      ],
      "name": "RoleAdminChanged",
      "type": "event"
    },
    {
      "anonymous": false,
      "inputs": [
        {
          "indexed": true,
          "internalType": "bytes32",
          "name": "role",
          "type": "bytes32"
        },
        {
          "indexed": true,
          "internalType": "uint256",
          "name": "member",
          "type": "uint256"
        },
        {
          "indexed": true,
          "internalType": "address",
          "name": "sender",
          "type": "address"
        }
      ],
      "name": "RoleGranted",
      "type": "event"
    },
    {
      "anonymous": false,
      "inputs": [
        {
          "indexed": true,
          "internalType": "bytes32",
          "name": "role",
          "type": "bytes32"
        },
        {
          "indexed": true,
          "internalType": "uint256",
          "name": "member",
          "type": "uint256"
        },
        {
          "indexed": true,
          "internalType": "address",
          "name": "sender",
          "type": "address"
        }
      ],
      "name": "RoleRevoked",
      "type": "event"
    },
    {
      "inputs": [
        {
          "internalType": "address",
          "name": "_account",
          "type": "address"
        }
      ],
      "name": "addManager",
      "outputs": [],
      "stateMutability": "nonpayable",
      "type": "function"
    },
    {
      "inputs": [
        {
          "internalType": "address",
          "name": "_account",
          "type": "address"
        }
      ],
      "name": "addMember",
      "outputs": [],
      "stateMutability": "nonpayable",
      "type": "function"
    },
    {
      "inputs": [
        {
          "internalType": "uint256",
          "name": "_member",
          "type": "uint256"
        }
      ],
      "name": "getAddressByMember",
      "outputs": [
        {
          "internalType": "address",
          "name": "",
          "type": "address"
        }
      ],
      "stateMutability": "view",
      "type": "function"
    },
    {
      "inputs": [
        {
          "internalType": "address",
          "name": "_address",
          "type": "address"
        }
      ],
      "name": "getMemberByAddress",
      "outputs": [
        {
          "internalType": "uint256",
          "name": "",
          "type": "uint256"
        }
      ],
      "stateMutability": "view",
      "type": "function"
    },
    {
      "inputs": [],
      "name": "getOwner",
      "outputs": [
        {
          "internalType": "address",
          "name": "",
          "type": "address"
        }
      ],
      "stateMutability": "view",
      "type": "function"
    },
    {
      "inputs": [
        {
          "internalType": "bytes32",
          "name": "role",
          "type": "bytes32"
        },
        {
          "internalType": "address",
          "name": "account",
          "type": "address"
        }
      ],
      "name": "grantRole",
      "outputs": [],
      "stateMutability": "nonpayable",
      "type": "function"
    },
    {
      "inputs": [
        {
          "internalType": "address",
          "name": "_owner",
          "type": "address"
        }
      ],
      "name": "initializeRoles",
      "outputs": [],
      "stateMutability": "nonpayable",
      "type": "function"
    },
    {
      "inputs": [
        {
          "internalType": "address",
          "name": "_account",
          "type": "address"
        }
      ],
      "name": "isManager",
      "outputs": [
        {
          "internalType": "bool",
          "name": "",
          "type": "bool"
        }
      ],
      "stateMutability": "view",
      "type": "function"
    },
    {
      "inputs": [
        {
          "internalType": "address",
          "name": "_account",
          "type": "address"
        }
      ],
      "name": "isManagerRoleAdmin",
      "outputs": [
        {
          "internalType": "bool",
          "name": "",
          "type": "bool"
        }
      ],
      "stateMutability": "view",
      "type": "function"
    },
    {
      "inputs": [
        {
          "internalType": "address",
          "name": "_account",
          "type": "address"
        }
      ],
      "name": "isMember",
      "outputs": [
        {
          "internalType": "bool",
          "name": "",
          "type": "bool"
        }
      ],
      "stateMutability": "view",
      "type": "function"
    },
    {
      "inputs": [
        {
          "internalType": "address",
          "name": "_account",
          "type": "address"
        }
      ],
      "name": "isMemberRoleAdmin",
      "outputs": [
        {
          "internalType": "bool",
          "name": "",
          "type": "bool"
        }
      ],
      "stateMutability": "view",
      "type": "function"
    },
    {
      "inputs": [
        {
          "internalType": "address",
          "name": "_account",
          "type": "address"
        }
      ],
      "name": "removeManager",
      "outputs": [],
      "stateMutability": "nonpayable",
      "type": "function"
    },
    {
      "inputs": [
        {
          "internalType": "address",
          "name": "_account",
          "type": "address"
        }
      ],
      "name": "removeMember",
      "outputs": [],
      "stateMutability": "nonpayable",
      "type": "function"
    },
    {
      "inputs": [
        {
          "internalType": "bytes32",
          "name": "role",
          "type": "bytes32"
        },
        {
          "internalType": "address",
          "name": "account",
          "type": "address"
        }
      ],
      "name": "renounceRole",
      "outputs": [],
      "stateMutability": "nonpayable",
      "type": "function"
    },
    {
      "inputs": [
        {
          "internalType": "bytes32",
          "name": "role",
          "type": "bytes32"
        },
        {
          "internalType": "address",
          "name": "account",
          "type": "address"
        }
      ],
      "name": "revokeRole",
      "outputs": [],
      "stateMutability": "nonpayable",
      "type": "function"
    },
    {
      "inputs": [
        {
          "internalType": "address",
          "name": "_newAddress",
          "type": "address"
        }
      ],
      "name": "upgradeAddress",
      "outputs": [],
      "stateMutability": "nonpayable",
      "type": "function"
    }
  ],
  "bytecode": "0x608060405234801561001057600080fd5b50611724806100206000396000f3fe608060405234801561001057600080fd5b50600436106101005760003560e01c806388ba031011610097578063ac9d718f11610066578063ac9d718f146104a3578063ca6d56dc146104e7578063d547741f1461052b578063f3ae24151461057957610100565b806388ba031014610379578063893d20e8146103d1578063a230c52414610405578063ac18de431461045f57610100565b80633dd9899f116100d35780633dd9899f1461022957806354208a2f146102815780637f8057d5146102c557806384c7b5d21461031f57610100565b80630b1ca49a146101055780632d06177a146101495780632f2ff15d1461018d57806336568abe146101db575b600080fd5b6101476004803603602081101561011b57600080fd5b81019080803573ffffffffffffffffffffffffffffffffffffffff1690602001909291905050506105d3565b005b61018b6004803603602081101561015f57600080fd5b81019080803573ffffffffffffffffffffffffffffffffffffffff169060200190929190505050610600565b005b6101d9600480360360408110156101a357600080fd5b8101908080359060200190929190803573ffffffffffffffffffffffffffffffffffffffff169060200190929190505050610636565b005b610227600480360360408110156101f157600080fd5b8101908080359060200190929190803573ffffffffffffffffffffffffffffffffffffffff169060200190929190505050610759565b005b61026b6004803603602081101561023f57600080fd5b81019080803573ffffffffffffffffffffffffffffffffffffffff16906020019092919050505061083a565b6040518082815260200191505060405180910390f35b6102c36004803603602081101561029757600080fd5b81019080803573ffffffffffffffffffffffffffffffffffffffff16906020019092919050505061088c565b005b610307600480360360208110156102db57600080fd5b81019080803573ffffffffffffffffffffffffffffffffffffffff16906020019092919050505061090b565b60405180821515815260200191505060405180910390f35b6103616004803603602081101561033557600080fd5b81019080803573ffffffffffffffffffffffffffffffffffffffff16906020019092919050505061098e565b60405180821515815260200191505060405180910390f35b6103a56004803603602081101561038f57600080fd5b8101908080359060200190929190505050610a11565b604051808273ffffffffffffffffffffffffffffffffffffffff16815260200191505060405180910390f35b6103d9610a57565b604051808273ffffffffffffffffffffffffffffffffffffffff16815260200191505060405180910390f35b6104476004803603602081101561041b57600080fd5b81019080803573ffffffffffffffffffffffffffffffffffffffff169060200190929190505050610a66565b60405180821515815260200191505060405180910390f35b6104a16004803603602081101561047557600080fd5b81019080803573ffffffffffffffffffffffffffffffffffffffff169060200190929190505050610a78565b005b6104e5600480360360208110156104b957600080fd5b81019080803573ffffffffffffffffffffffffffffffffffffffff169060200190929190505050610b4e565b005b610529600480360360208110156104fd57600080fd5b81019080803573ffffffffffffffffffffffffffffffffffffffff169060200190929190505050610d0b565b005b6105776004803603604081101561054157600080fd5b8101908080359060200190929190803573ffffffffffffffffffffffffffffffffffffffff169060200190929190505050610d41565b005b6105bb6004803603602081101561058f57600080fd5b81019080803573ffffffffffffffffffffffffffffffffffffffff169060200190929190505050610e64565b60405180821515815260200191505060405180910390f35b6105fd7f829b824e2329e205435d941c9f13baf578548505283d29261236d8e6596d463682610d41565b50565b61060981610e76565b6106337f241ecf16d79d0f8dbfb92cbc07fe17840425976cf0667f022fe9877caa831b0882610636565b50565b6106ae610641610f92565b600301600084815260200190815260200160002060020154610661610f92565b600101600061066e610fbf565b73ffffffffffffffffffffffffffffffffffffffff1673ffffffffffffffffffffffffffffffffffffffff16815260200190815260200160002054611034565b610703576040517f08c379a000000000000000000000000000000000000000000000000000000000815260040180806020018281038252602f815260200180611661602f913960400191505060405180910390fd5b6107558261070f610f92565b60010160008473ffffffffffffffffffffffffffffffffffffffff1673ffffffffffffffffffffffffffffffffffffffff16815260200190815260200160002054611081565b5050565b610761610fbf565b73ffffffffffffffffffffffffffffffffffffffff168173ffffffffffffffffffffffffffffffffffffffff16146107e4576040517f08c379a000000000000000000000000000000000000000000000000000000000815260040180806020018281038252602f8152602001806116c0602f913960400191505060405180910390fd5b610836826107f0610f92565b60010160008473ffffffffffffffffffffffffffffffffffffffff1673ffffffffffffffffffffffffffffffffffffffff1681526020019081526020016000205461117f565b5050565b6000610844610f92565b60010160008373ffffffffffffffffffffffffffffffffffffffff1673ffffffffffffffffffffffffffffffffffffffff168152602001908152602001600020549050919050565b6103e8610897610f92565b600001819055506108a781610e76565b6108b46000801b8261127d565b6108de7f829b824e2329e205435d941c9f13baf578548505283d29261236d8e6596d46368261127d565b6109087f241ecf16d79d0f8dbfb92cbc07fe17840425976cf0667f022fe9877caa831b088261127d565b50565b60006109876109397f241ecf16d79d0f8dbfb92cbc07fe17840425976cf0667f022fe9877caa831b086112d3565b610941610f92565b60010160008573ffffffffffffffffffffffffffffffffffffffff1673ffffffffffffffffffffffffffffffffffffffff16815260200190815260200160002054611034565b9050919050565b6000610a0a6109bc7f829b824e2329e205435d941c9f13baf578548505283d29261236d8e6596d46366112d3565b6109c4610f92565b60010160008573ffffffffffffffffffffffffffffffffffffffff1673ffffffffffffffffffffffffffffffffffffffff16815260200190815260200160002054611034565b9050919050565b6000610a1b610f92565b600201600083815260200190815260200160002060009054906101000a900473ffffffffffffffffffffffffffffffffffffffff169050919050565b6000610a616112fc565b905090565b6000610a718261130b565b9050919050565b8073ffffffffffffffffffffffffffffffffffffffff16610a97610fbf565b73ffffffffffffffffffffffffffffffffffffffff161415610b21576040517f08c379a000000000000000000000000000000000000000000000000000000000815260040180806020018281038252600b8152602001807f4f574e5f4143434f554e5400000000000000000000000000000000000000000081525060200191505060405180910390fd5b610b4b7f241ecf16d79d0f8dbfb92cbc07fe17840425976cf0667f022fe9877caa831b0882610d41565b50565b6000610b58610f92565b90506000816001016000610b6a610fbf565b73ffffffffffffffffffffffffffffffffffffffff1673ffffffffffffffffffffffffffffffffffffffff1681526020019081526020016000205490506000811415610c1e576040517f08c379a000000000000000000000000000000000000000000000000000000000815260040180806020018281038252600a8152602001807f4e4f4e5f4d454d4245520000000000000000000000000000000000000000000081525060200191505060405180910390fd5b6000826001016000610c2e610fbf565b73ffffffffffffffffffffffffffffffffffffffff1673ffffffffffffffffffffffffffffffffffffffff16815260200190815260200160002081905550808260010160008573ffffffffffffffffffffffffffffffffffffffff1673ffffffffffffffffffffffffffffffffffffffff168152602001908152602001600020819055508282600201600083815260200190815260200160002060006101000a81548173ffffffffffffffffffffffffffffffffffffffff021916908373ffffffffffffffffffffffffffffffffffffffff160217905550505050565b610d1481610e76565b610d3e7f829b824e2329e205435d941c9f13baf578548505283d29261236d8e6596d463682610636565b50565b610db9610d4c610f92565b600301600084815260200190815260200160002060020154610d6c610f92565b6001016000610d79610fbf565b73ffffffffffffffffffffffffffffffffffffffff1673ffffffffffffffffffffffffffffffffffffffff16815260200190815260200160002054611034565b610e0e576040517f08c379a00000000000000000000000000000000000000000000000000000000081526004018080602001828103825260308152602001806116906030913960400191505060405180910390fd5b610e6082610e1a610f92565b60010160008473ffffffffffffffffffffffffffffffffffffffff1673ffffffffffffffffffffffffffffffffffffffff1681526020019081526020016000205461117f565b5050565b6000610e6f826113bc565b9050919050565b6000610e80610f92565b905060008160010160008473ffffffffffffffffffffffffffffffffffffffff1673ffffffffffffffffffffffffffffffffffffffff16815260200190815260200160002054905060008114610ed7575050610f8f565b6001826000016000828254019250508190555081600001548260010160008573ffffffffffffffffffffffffffffffffffffffff1673ffffffffffffffffffffffffffffffffffffffff16815260200190815260200160002081905550828260020160008460000154815260200190815260200160002060006101000a81548173ffffffffffffffffffffffffffffffffffffffff021916908373ffffffffffffffffffffffffffffffffffffffff16021790555050505b50565b6000807f6282190449f76f72a9f692e4d8619a03764b7253394788948e36a7a57ba4a00e90508091505090565b600060606000368080601f016020809104026020016040519081016040528093929190818152602001838380828437600081840152601f19601f820116905080830192505050505050509050600080369050905073ffffffffffffffffffffffffffffffffffffffff81830151169250505090565b600080821415611047576000905061107b565b61107882611053610f92565b600301600086815260200190815260200160002060000161143790919063ffffffff16565b90505b92915050565b60008114156110f8576040517f08c379a00000000000000000000000000000000000000000000000000000000081526004018080602001828103825260098152602001807f4e4f545f5345545550000000000000000000000000000000000000000000000081525060200191505060405180910390fd5b61112981611104610f92565b600301600085815260200190815260200160002060000161145190919063ffffffff16565b1561117b57611136610fbf565b73ffffffffffffffffffffffffffffffffffffffff1681837f7c2a2c4bb5a44dafa473fc49e557303dba6db62123713789deefe8ccb384654960405160405180910390a45b5050565b60008114156111f6576040517f08c379a00000000000000000000000000000000000000000000000000000000081526004018080602001828103825260098152602001807f4e4f545f5345545550000000000000000000000000000000000000000000000081525060200191505060405180910390fd5b61122781611202610f92565b600301600085815260200190815260200160002060000161146b90919063ffffffff16565b1561127957611234610fbf565b73ffffffffffffffffffffffffffffffffffffffff1681837f641261709a27417e18d0ccc3db95ddc812d61be919b2a5a3af21a5870590922a60405160405180910390a45b5050565b6112cf82611289610f92565b60010160008473ffffffffffffffffffffffffffffffffffffffff1673ffffffffffffffffffffffffffffffffffffffff16815260200190815260200160002054611081565b5050565b60006112dd610f92565b6003016000838152602001908152602001600020600201549050919050565b6000611306611485565b905090565b600080611316610f92565b60010160008473ffffffffffffffffffffffffffffffffffffffff1673ffffffffffffffffffffffffffffffffffffffff1681526020019081526020016000205490506113837f829b824e2329e205435d941c9f13baf578548505283d29261236d8e6596d463682611034565b806113b457506113b37f241ecf16d79d0f8dbfb92cbc07fe17840425976cf0667f022fe9877caa831b0882611034565b5b915050919050565b60006114307f241ecf16d79d0f8dbfb92cbc07fe17840425976cf0667f022fe9877caa831b086113ea610f92565b60010160008573ffffffffffffffffffffffffffffffffffffffff1673ffffffffffffffffffffffffffffffffffffffff16815260200190815260200160002054611034565b9050919050565b6000611449836000018360001b6114b8565b905092915050565b6000611463836000018360001b6114db565b905092915050565b600061147d836000018360001b61154b565b905092915050565b600061148f611633565b60040160009054906101000a900473ffffffffffffffffffffffffffffffffffffffff16905090565b600080836001016000848152602001908152602001600020541415905092915050565b60006114e783836114b8565b611540578260000182908060018154018082558091505060019003906000526020600020016000909190919091505582600001805490508360010160008481526020019081526020016000208190555060019050611545565b600090505b92915050565b60008083600101600084815260200190815260200160002054905060008114611627576000600182039050600060018660000180549050039050600086600001828154811061159657fe5b90600052602060002001549050808760000184815481106115b357fe5b90600052602060002001819055506001830187600101600083815260200190815260200160002081905550866000018054806115eb57fe5b6001900381819060005260206000200160009055905586600101600087815260200190815260200160002060009055600194505050505061162d565b60009150505b92915050565b6000807fc8fcad8db84d3cc18b4c41d551ea0ee66dd599cde068d998e57d5e09332c131c9050809150509056fe416363657373436f6e74726f6c3a2073656e646572206d75737420626520616e2061646d696e20746f206772616e74416363657373436f6e74726f6c3a2073656e646572206d75737420626520616e2061646d696e20746f207265766f6b65416363657373436f6e74726f6c3a2063616e206f6e6c792072656e6f756e636520726f6c657320666f722073656c66a264697066735822122009ca38bc4e3668b244ce029619f0f089d06ce7e9e26b3020f2daed884c37be2864736f6c63430007040033",
  "linkReferences": {},
  "deployedLinkReferences": {}
}