{
  "_format": "hh-sol-artifact-1",
  "contractName": "Token",
  "sourceName": "contracts/contracts/04-Token/Token.sol",
  "abi": [
    {
      "anonymous": false,
      "inputs": [
        {
          "indexed": false,
          "internalType": "address",
          "name": "old",
          "type": "address"
        },
        {
          "indexed": false,
          "internalType": "address",
          "name": "current",
          "type": "address"
        }
      ],
      "name": "RegistryUpdated",
      "type": "event"
    },
    {
      "anonymous": false,
      "inputs": [
        {
          "indexed": false,
          "internalType": "address",
          "name": "old",
          "type": "address"
        },
        {
          "indexed": false,
          "internalType": "address",
          "name": "current",
          "type": "address"
        }
      ],
      "name": "TokenUpdated",
      "type": "event"
    },
    {
      "inputs": [
        {
          "internalType": "address",
          "name": "_token",
          "type": "address"
        }
      ],
      "name": "addToken",
      "outputs": [],
      "stateMutability": "nonpayable",
      "type": "function"
    },
    {
      "inputs": [
        {
          "internalType": "uint256",
          "name": "_amount",
          "type": "uint256"
        }
      ],
      "name": "deposit",
      "outputs": [],
      "stateMutability": "nonpayable",
      "type": "function"
    },
    {
      "inputs": [],
      "name": "getBalance",
      "outputs": [
        {
          "internalType": "uint256",
          "name": "",
          "type": "uint256"
        }
      ],
      "stateMutability": "view",
      "type": "function"
    },
    {
      "inputs": [],
      "name": "getPoolRegistry",
      "outputs": [
        {
          "internalType": "address",
          "name": "",
          "type": "address"
        }
      ],
      "stateMutability": "view",
      "type": "function"
    },
    {
      "inputs": [],
      "name": "getToken",
      "outputs": [
        {
          "internalType": "address",
          "name": "",
          "type": "address"
        }
      ],
      "stateMutability": "view",
      "type": "function"
    },
    {
      "inputs": [
        {
          "internalType": "address",
          "name": "_registry",
          "type": "address"
        }
      ],
      "name": "setPoolRegistry",
      "outputs": [],
      "stateMutability": "nonpayable",
      "type": "function"
    }
  ],
  "bytecode": "0x608060405234801561001057600080fd5b50610bc5806100206000396000f3fe608060405234801561001057600080fd5b50600436106100725760003560e01c80637b77cd6a116100505780637b77cd6a146100bd578063b6b55f25146100e5578063d48bfca71461010257610072565b806312065fe01461007757806321df0da7146100915780637a9bd5e4146100b5575b600080fd5b61007f610128565b60408051918252519081900360200190f35b61009961013b565b604080516001600160a01b039092168252519081900360200190f35b610099610157565b6100e3600480360360208110156100d357600080fd5b50356001600160a01b0316610170565b005b6100e3600480360360208110156100fb57600080fd5b503561027a565b6100e36004803603602081101561011857600080fd5b50356001600160a01b0316610448565b6000610132610558565b60010154905090565b6000610145610558565b600201546001600160a01b0316905090565b6000610161610558565b546001600160a01b0316905090565b600061017a610558565b546001600160a01b0316146101bf576040805162461bcd60e51b815260206004808301919091526024820152631253925560e21b604482015290519081900360640190fd5b6001600160a01b038116610203576040805162461bcd60e51b815260206004808301919091526024820152635a45524f60e01b604482015290519081900360640190fd5b61020b61057c565b80610214610558565b805473ffffffffffffffffffffffffffffffffffffffff19166001600160a01b039283161790556040805160008152918316602083015280517f482b97c53e48ffa324a976e2738053e9aff6eee04d8aac63b10e19411d869b829281900390910190a150565b600081116102cf576040805162461bcd60e51b815260206004820152600b60248201527f5a45524f5f414d4f554e54000000000000000000000000000000000000000000604482015290519081900360640190fd5b60006102d9610558565b905060008160000160009054906101000a90046001600160a01b03169050600061037c670de0b6b3a7640000610376846001600160a01b031663a001ecdd6040518163ffffffff1660e01b8152600401602060405180830381600087803b15801561034357600080fd5b505af1158015610357573d6000803e3d6000fd5b505050506040513d602081101561036d57600080fd5b505187906105ba565b9061061c565b9050600061038a8583610683565b905081156104135761041333846001600160a01b031663c415b95c6040518163ffffffff1660e01b8152600401602060405180830381600087803b1580156103d157600080fd5b505af11580156103e5573d6000803e3d6000fd5b505050506040513d60208110156103fb57600080fd5b505160028701546001600160a01b03169190856106e0565b6001840154610422908261076e565b60018501556002840154610441906001600160a01b03163330846106e0565b5050505050565b6000610452610558565b600201546001600160a01b03161461049a576040805162461bcd60e51b815260206004808301919091526024820152631253925560e21b604482015290519081900360640190fd5b6001600160a01b0381166104de576040805162461bcd60e51b815260206004808301919091526024820152635a45524f60e01b604482015290519081900360640190fd5b6104e661057c565b806104ef610558565b600201805473ffffffffffffffffffffffffffffffffffffffff19166001600160a01b039283161790556040805160008152918316602083015280517f0b1186973f810894b87ab0bfbee422fddcaad21b46dc705a561451bbb6bac1179281900390910190a150565b7fa716b7cce20ffbe12e5c0af3eb2f57d81251cd975b53428558ae4ad51b4f942590565b6105846107c8565b600401546001600160a01b031633146105b85760405162461bcd60e51b81526004016105af90610ac1565b60405180910390fd5b565b6000826105c957506000610616565b828202828482816105d657fe5b04146106135760405162461bcd60e51b8152600401808060200182810382526021815260200180610b456021913960400191505060405180910390fd5b90505b92915050565b6000808211610672576040805162461bcd60e51b815260206004820152601a60248201527f536166654d6174683a206469766973696f6e206279207a65726f000000000000604482015290519081900360640190fd5b81838161067b57fe5b049392505050565b6000828211156106da576040805162461bcd60e51b815260206004820152601e60248201527f536166654d6174683a207375627472616374696f6e206f766572666c6f770000604482015290519081900360640190fd5b50900390565b604080516001600160a01b0380861660248301528416604482015260648082018490528251808303909101815260849091019091526020810180517bffffffffffffffffffffffffffffffffffffffffffffffffffffffff167f23b872dd000000000000000000000000000000000000000000000000000000001790526107689085906107ec565b50505050565b600082820183811015610613576040805162461bcd60e51b815260206004820152601b60248201527f536166654d6174683a206164646974696f6e206f766572666c6f770000000000604482015290519081900360640190fd5b7fc8fcad8db84d3cc18b4c41d551ea0ee66dd599cde068d998e57d5e09332c131c90565b6060610841826040518060400160405280602081526020017f5361666545524332303a206c6f772d6c6576656c2063616c6c206661696c6564815250856001600160a01b03166108a29092919063ffffffff16565b80519091501561089d5780806020019051602081101561086057600080fd5b505161089d5760405162461bcd60e51b815260040180806020018281038252602a815260200180610b66602a913960400191505060405180910390fd5b505050565b60606108b184846000856108bb565b90505b9392505050565b6060824710156108fc5760405162461bcd60e51b8152600401808060200182810382526026815260200180610b1f6026913960400191505060405180910390fd5b61090585610a17565b610956576040805162461bcd60e51b815260206004820152601d60248201527f416464726573733a2063616c6c20746f206e6f6e2d636f6e7472616374000000604482015290519081900360640190fd5b60006060866001600160a01b031685876040518082805190602001908083835b602083106109955780518252601f199092019160209182019101610976565b6001836020036101000a03801982511681845116808217855250505050505090500191505060006040518083038185875af1925050503d80600081146109f7576040519150601f19603f3d011682016040523d82523d6000602084013e6109fc565b606091505b5091509150610a0c828286610a1d565b979650505050505050565b3b151590565b60608315610a2c5750816108b4565b825115610a3c5782518084602001fd5b8160405162461bcd60e51b81526004018080602001828103825283818151815260200191508051906020019080838360005b83811015610a86578181015183820152602001610a6e565b50505050905090810190601f168015610ab35780820380516001836020036101000a031916815260200191505b509250505060405180910390fd5b60208082526022908201527f4c69624469616d6f6e643a204d75737420626520636f6e7472616374206f776e60408201527f657200000000000000000000000000000000000000000000000000000000000060608201526080019056fe416464726573733a20696e73756666696369656e742062616c616e636520666f722063616c6c536166654d6174683a206d756c7469706c69636174696f6e206f766572666c6f775361666545524332303a204552433230206f7065726174696f6e20646964206e6f742073756363656564a26469706673582212209c0742c6740fb12fb89cdc74e41ead84ff22d19d1f66784c45e7386c7e13cafe64736f6c63430007040033",
  "linkReferences": {},
  "deployedLinkReferences": {}
}