{
  "_format": "hh-sol-artifact-1",
  "contractName": "Token",
  "sourceName": "contracts/contracts/04-Token/Token.sol",
  "abi": [
    {
      "anonymous": false,
      "inputs": [
        {
          "indexed": false,
          "internalType": "address",
          "name": "old",
          "type": "address"
        },
        {
          "indexed": false,
          "internalType": "address",
          "name": "current",
          "type": "address"
        }
      ],
      "name": "TokenUpdated",
      "type": "event"
    },
    {
      "inputs": [
        {
          "internalType": "address",
          "name": "_token",
          "type": "address"
        }
      ],
      "name": "addToken",
      "outputs": [],
      "stateMutability": "nonpayable",
      "type": "function"
    },
    {
      "inputs": [],
      "name": "getToken",
      "outputs": [
        {
          "internalType": "address",
          "name": "",
          "type": "address"
        }
      ],
      "stateMutability": "view",
      "type": "function"
    }
  ],
  "bytecode": "0x608060405234801561001057600080fd5b50610202806100206000396000f3fe608060405234801561001057600080fd5b50600436106100365760003560e01c806321df0da71461003b578063d48bfca71461006f575b600080fd5b6100436100b3565b604051808273ffffffffffffffffffffffffffffffffffffffff16815260200191505060405180910390f35b6100b16004803603602081101561008557600080fd5b81019080803573ffffffffffffffffffffffffffffffffffffffff1690602001909291905050506100e6565b005b60006100bd61019f565b60000160009054906101000a900473ffffffffffffffffffffffffffffffffffffffff16905090565b806100ef61019f565b60000160006101000a81548173ffffffffffffffffffffffffffffffffffffffff021916908373ffffffffffffffffffffffffffffffffffffffff1602179055507f0b1186973f810894b87ab0bfbee422fddcaad21b46dc705a561451bbb6bac117600082604051808373ffffffffffffffffffffffffffffffffffffffff1681526020018273ffffffffffffffffffffffffffffffffffffffff1681526020019250505060405180910390a150565b6000807fa716b7cce20ffbe12e5c0af3eb2f57d81251cd975b53428558ae4ad51b4f94259050809150509056fea26469706673582212206332c93ad622d13667acd8f92a6b29f17a0fdfd84af3eea3e53021167bed424264736f6c63430007040033",
  "linkReferences": {},
  "deployedLinkReferences": {}
}