{
  "_format": "hh-sol-artifact-1",
  "contractName": "Token",
  "sourceName": "contracts/contracts/04-Token/Token.sol",
  "abi": [
    {
      "anonymous": false,
      "inputs": [
        {
          "indexed": false,
          "internalType": "address",
          "name": "old",
          "type": "address"
        },
        {
          "indexed": false,
          "internalType": "address",
          "name": "current",
          "type": "address"
        }
      ],
      "name": "RegistryUpdated",
      "type": "event"
    },
    {
      "anonymous": false,
      "inputs": [
        {
          "indexed": false,
          "internalType": "address",
          "name": "old",
          "type": "address"
        },
        {
          "indexed": false,
          "internalType": "address",
          "name": "current",
          "type": "address"
        }
      ],
      "name": "TokenUpdated",
      "type": "event"
    },
    {
      "inputs": [
        {
          "internalType": "address",
          "name": "_token",
          "type": "address"
        }
      ],
      "name": "addToken",
      "outputs": [],
      "stateMutability": "nonpayable",
      "type": "function"
    },
    {
      "inputs": [
        {
          "internalType": "uint256",
          "name": "_amount",
          "type": "uint256"
        }
      ],
      "name": "deposit",
      "outputs": [],
      "stateMutability": "nonpayable",
      "type": "function"
    },
    {
      "inputs": [],
      "name": "getBalance",
      "outputs": [
        {
          "internalType": "uint256",
          "name": "",
          "type": "uint256"
        }
      ],
      "stateMutability": "view",
      "type": "function"
    },
    {
      "inputs": [],
      "name": "getPoolRegistry",
      "outputs": [
        {
          "internalType": "address",
          "name": "",
          "type": "address"
        }
      ],
      "stateMutability": "view",
      "type": "function"
    },
    {
      "inputs": [],
      "name": "getToken",
      "outputs": [
        {
          "internalType": "address",
          "name": "",
          "type": "address"
        }
      ],
      "stateMutability": "view",
      "type": "function"
    },
    {
      "inputs": [
        {
          "internalType": "address",
          "name": "_registry",
          "type": "address"
        }
      ],
      "name": "setPoolRegistry",
      "outputs": [],
      "stateMutability": "nonpayable",
      "type": "function"
    }
  ],
  "bytecode": "0x608060405234801561001057600080fd5b5061105f806100206000396000f3fe608060405234801561001057600080fd5b50600436106100625760003560e01c806312065fe01461006757806321df0da7146100855780637a9bd5e4146100b95780637b77cd6a146100ed578063b6b55f2514610131578063d48bfca71461015f575b600080fd5b61006f6101a3565b6040518082815260200191505060405180910390f35b61008d6101b6565b604051808273ffffffffffffffffffffffffffffffffffffffff16815260200191505060405180910390f35b6100c16101e9565b604051808273ffffffffffffffffffffffffffffffffffffffff16815260200191505060405180910390f35b61012f6004803603602081101561010357600080fd5b81019080803573ffffffffffffffffffffffffffffffffffffffff16906020019092919050505061021c565b005b61015d6004803603602081101561014757600080fd5b81019080803590602001909291905050506102dd565b005b6101a16004803603602081101561017557600080fd5b81019080803573ffffffffffffffffffffffffffffffffffffffff169060200190929190505050610526565b005b60006101ad6106b4565b60010154905090565b60006101c06106b4565b60020160009054906101000a900473ffffffffffffffffffffffffffffffffffffffff16905090565b60006101f36106b4565b60000160009054906101000a900473ffffffffffffffffffffffffffffffffffffffff16905090565b6102246106e1565b8061022d6106b4565b60000160006101000a81548173ffffffffffffffffffffffffffffffffffffffff021916908373ffffffffffffffffffffffffffffffffffffffff1602179055507f482b97c53e48ffa324a976e2738053e9aff6eee04d8aac63b10e19411d869b82600082604051808373ffffffffffffffffffffffffffffffffffffffff1681526020018273ffffffffffffffffffffffffffffffffffffffff1681526020019250505060405180910390a150565b60006102e76106b4565b905060008160000160009054906101000a900473ffffffffffffffffffffffffffffffffffffffff16905060006103c3670de0b6b3a76400006103b58473ffffffffffffffffffffffffffffffffffffffff1663a001ecdd6040518163ffffffff1660e01b8152600401602060405180830381600087803b15801561036b57600080fd5b505af115801561037f573d6000803e3d6000fd5b505050506040513d602081101561039557600080fd5b81019080805190602001909291905050508761077c90919063ffffffff16565b61080290919063ffffffff16565b905060006103da828661084c90919063ffffffff16565b90506104af338473ffffffffffffffffffffffffffffffffffffffff1663c415b95c6040518163ffffffff1660e01b8152600401602060405180830381600087803b15801561042857600080fd5b505af115801561043c573d6000803e3d6000fd5b505050506040513d602081101561045257600080fd5b8101908080519060200190929190505050848760020160009054906101000a900473ffffffffffffffffffffffffffffffffffffffff1673ffffffffffffffffffffffffffffffffffffffff16610896909392919063ffffffff16565b6104c681856001015461095790919063ffffffff16565b846001018190555061051f3330838760020160009054906101000a900473ffffffffffffffffffffffffffffffffffffffff1673ffffffffffffffffffffffffffffffffffffffff16610896909392919063ffffffff16565b5050505050565b61052e6106e1565b600073ffffffffffffffffffffffffffffffffffffffff1661054e6106b4565b60020160009054906101000a900473ffffffffffffffffffffffffffffffffffffffff1673ffffffffffffffffffffffffffffffffffffffff16146105fb576040517f08c379a00000000000000000000000000000000000000000000000000000000081526004018080602001828103825260038152602001807f534554000000000000000000000000000000000000000000000000000000000081525060200191505060405180910390fd5b806106046106b4565b60020160006101000a81548173ffffffffffffffffffffffffffffffffffffffff021916908373ffffffffffffffffffffffffffffffffffffffff1602179055507f0b1186973f810894b87ab0bfbee422fddcaad21b46dc705a561451bbb6bac117600082604051808373ffffffffffffffffffffffffffffffffffffffff1681526020018273ffffffffffffffffffffffffffffffffffffffff1681526020019250505060405180910390a150565b6000807fa716b7cce20ffbe12e5c0af3eb2f57d81251cd975b53428558ae4ad51b4f942590508091505090565b6106e96109df565b60040160009054906101000a900473ffffffffffffffffffffffffffffffffffffffff1673ffffffffffffffffffffffffffffffffffffffff163373ffffffffffffffffffffffffffffffffffffffff161461077a576040517f08c379a000000000000000000000000000000000000000000000000000000000815260040161077190610f87565b60405180910390fd5b565b60008083141561078f57600090506107fc565b60008284029050828482816107a057fe5b04146107f7576040517f08c379a0000000000000000000000000000000000000000000000000000000008152600401808060200182810382526021815260200180610fdf6021913960400191505060405180910390fd5b809150505b92915050565b600061084483836040518060400160405280601a81526020017f536166654d6174683a206469766973696f6e206279207a65726f000000000000815250610a0c565b905092915050565b600061088e83836040518060400160405280601e81526020017f536166654d6174683a207375627472616374696f6e206f766572666c6f770000815250610ad2565b905092915050565b610951846323b872dd60e01b858585604051602401808473ffffffffffffffffffffffffffffffffffffffff1681526020018373ffffffffffffffffffffffffffffffffffffffff1681526020018281526020019350505050604051602081830303815290604052907bffffffffffffffffffffffffffffffffffffffffffffffffffffffff19166020820180517bffffffffffffffffffffffffffffffffffffffffffffffffffffffff8381831617835250505050610b92565b50505050565b6000808284019050838110156109d5576040517f08c379a000000000000000000000000000000000000000000000000000000000815260040180806020018281038252601b8152602001807f536166654d6174683a206164646974696f6e206f766572666c6f77000000000081525060200191505060405180910390fd5b8091505092915050565b6000807fc8fcad8db84d3cc18b4c41d551ea0ee66dd599cde068d998e57d5e09332c131c90508091505090565b60008083118290610ab8576040517f08c379a00000000000000000000000000000000000000000000000000000000081526004018080602001828103825283818151815260200191508051906020019080838360005b83811015610a7d578082015181840152602081019050610a62565b50505050905090810190601f168015610aaa5780820380516001836020036101000a031916815260200191505b509250505060405180910390fd5b506000838581610ac457fe5b049050809150509392505050565b6000838311158290610b7f576040517f08c379a00000000000000000000000000000000000000000000000000000000081526004018080602001828103825283818151815260200191508051906020019080838360005b83811015610b44578082015181840152602081019050610b29565b50505050905090810190601f168015610b715780820380516001836020036101000a031916815260200191505b509250505060405180910390fd5b5060008385039050809150509392505050565b6060610bf4826040518060400160405280602081526020017f5361666545524332303a206c6f772d6c6576656c2063616c6c206661696c65648152508573ffffffffffffffffffffffffffffffffffffffff16610c819092919063ffffffff16565b9050600081511115610c7c57808060200190516020811015610c1557600080fd5b8101908080519060200190929190505050610c7b576040517f08c379a000000000000000000000000000000000000000000000000000000000815260040180806020018281038252602a815260200180611000602a913960400191505060405180910390fd5b5b505050565b6060610c908484600085610c99565b90509392505050565b606082471015610cf4576040517f08c379a0000000000000000000000000000000000000000000000000000000008152600401808060200182810382526026815260200180610fb96026913960400191505060405180910390fd5b610cfd85610e42565b610d6f576040517f08c379a000000000000000000000000000000000000000000000000000000000815260040180806020018281038252601d8152602001807f416464726573733a2063616c6c20746f206e6f6e2d636f6e747261637400000081525060200191505060405180910390fd5b600060608673ffffffffffffffffffffffffffffffffffffffff1685876040518082805190602001908083835b60208310610dbf5780518252602082019150602081019050602083039250610d9c565b6001836020036101000a03801982511681845116808217855250505050505090500191505060006040518083038185875af1925050503d8060008114610e21576040519150601f19603f3d011682016040523d82523d6000602084013e610e26565b606091505b5091509150610e36828286610e55565b92505050949350505050565b600080823b905060008111915050919050565b60608315610e6557829050610f1a565b600083511115610e785782518084602001fd5b816040517f08c379a00000000000000000000000000000000000000000000000000000000081526004018080602001828103825283818151815260200191508051906020019080838360005b83811015610edf578082015181840152602081019050610ec4565b50505050905090810190601f168015610f0c5780820380516001836020036101000a031916815260200191505b509250505060405180910390fd5b9392505050565b6000610f2e602283610fa7565b91507f4c69624469616d6f6e643a204d75737420626520636f6e7472616374206f776e60008301527f65720000000000000000000000000000000000000000000000000000000000006020830152604082019050919050565b60006020820190508181036000830152610fa081610f21565b9050919050565b60008282526020820190509291505056fe416464726573733a20696e73756666696369656e742062616c616e636520666f722063616c6c536166654d6174683a206d756c7469706c69636174696f6e206f766572666c6f775361666545524332303a204552433230206f7065726174696f6e20646964206e6f742073756363656564a26469706673582212202f4b1a9368b93b3d1fdcbc881101f15fae2c0010ea49a76052b9b46c8586cbea64736f6c63430007040033",
  "linkReferences": {},
  "deployedLinkReferences": {}
}