{
  "_format": "hh-sol-artifact-1",
  "contractName": "MockSetup",
  "sourceName": "contracts/contracts/01-AccessControl/MockSetup.sol",
  "abi": [
    {
      "anonymous": false,
      "inputs": [
        {
          "indexed": true,
          "internalType": "bytes32",
          "name": "role",
          "type": "bytes32"
        },
        {
          "indexed": true,
          "internalType": "bytes32",
          "name": "previousAdminRole",
          "type": "bytes32"
        },
        {
          "indexed": true,
          "internalType": "bytes32",
          "name": "newAdminRole",
          "type": "bytes32"
        }
      ],
      "name": "RoleAdminChanged",
      "type": "event"
    },
    {
      "anonymous": false,
      "inputs": [
        {
          "indexed": true,
          "internalType": "bytes32",
          "name": "role",
          "type": "bytes32"
        },
        {
          "indexed": true,
          "internalType": "address",
          "name": "account",
          "type": "address"
        },
        {
          "indexed": true,
          "internalType": "address",
          "name": "sender",
          "type": "address"
        }
      ],
      "name": "RoleGranted",
      "type": "event"
    },
    {
      "anonymous": false,
      "inputs": [
        {
          "indexed": true,
          "internalType": "bytes32",
          "name": "role",
          "type": "bytes32"
        },
        {
          "indexed": true,
          "internalType": "address",
          "name": "account",
          "type": "address"
        },
        {
          "indexed": true,
          "internalType": "address",
          "name": "sender",
          "type": "address"
        }
      ],
      "name": "RoleRevoked",
      "type": "event"
    },
    {
      "inputs": [
        {
          "internalType": "bytes32",
          "name": "role",
          "type": "bytes32"
        }
      ],
      "name": "getRoleAdmin",
      "outputs": [
        {
          "internalType": "bytes32",
          "name": "",
          "type": "bytes32"
        }
      ],
      "stateMutability": "view",
      "type": "function"
    },
    {
      "inputs": [
        {
          "internalType": "bytes32",
          "name": "role",
          "type": "bytes32"
        },
        {
          "internalType": "uint256",
          "name": "index",
          "type": "uint256"
        }
      ],
      "name": "getRoleMember",
      "outputs": [
        {
          "internalType": "address",
          "name": "",
          "type": "address"
        }
      ],
      "stateMutability": "view",
      "type": "function"
    },
    {
      "inputs": [
        {
          "internalType": "bytes32",
          "name": "role",
          "type": "bytes32"
        }
      ],
      "name": "getRoleMemberCount",
      "outputs": [
        {
          "internalType": "uint256",
          "name": "",
          "type": "uint256"
        }
      ],
      "stateMutability": "view",
      "type": "function"
    },
    {
      "inputs": [
        {
          "internalType": "bytes32",
          "name": "role",
          "type": "bytes32"
        },
        {
          "internalType": "address",
          "name": "account",
          "type": "address"
        }
      ],
      "name": "grantRole",
      "outputs": [],
      "stateMutability": "nonpayable",
      "type": "function"
    },
    {
      "inputs": [
        {
          "internalType": "bytes32",
          "name": "role",
          "type": "bytes32"
        },
        {
          "internalType": "address",
          "name": "account",
          "type": "address"
        }
      ],
      "name": "hasRole",
      "outputs": [
        {
          "internalType": "bool",
          "name": "",
          "type": "bool"
        }
      ],
      "stateMutability": "view",
      "type": "function"
    },
    {
      "inputs": [
        {
          "internalType": "bytes32",
          "name": "role",
          "type": "bytes32"
        },
        {
          "internalType": "address",
          "name": "account",
          "type": "address"
        }
      ],
      "name": "renounceRole",
      "outputs": [],
      "stateMutability": "nonpayable",
      "type": "function"
    },
    {
      "inputs": [
        {
          "internalType": "bytes32",
          "name": "role",
          "type": "bytes32"
        },
        {
          "internalType": "address",
          "name": "account",
          "type": "address"
        }
      ],
      "name": "revokeRole",
      "outputs": [],
      "stateMutability": "nonpayable",
      "type": "function"
    },
    {
      "inputs": [
        {
          "internalType": "bytes32[]",
          "name": "roles",
          "type": "bytes32[]"
        },
        {
          "internalType": "address[]",
          "name": "addr",
          "type": "address[]"
        }
      ],
      "name": "setupMockAccess",
      "outputs": [],
      "stateMutability": "nonpayable",
      "type": "function"
    }
  ],
  "bytecode": "0x608060405234801561001057600080fd5b5061098f806100206000396000f3fe608060405234801561001057600080fd5b50600436106100885760003560e01c806391d148541161005b57806391d1485414610155578063ca15c87314610195578063d547741f146101b2578063d6b45c17146101de57610088565b8063248a9ca31461008d5780632f2ff15d146100bc57806336568abe146100ea5780639010d07c14610116575b600080fd5b6100aa600480360360208110156100a357600080fd5b5035610305565b60408051918252519081900360200190f35b6100e8600480360360408110156100d257600080fd5b50803590602001356001600160a01b0316610323565b005b6100e86004803603604081101561010057600080fd5b50803590602001356001600160a01b0316610397565b6101396004803603604081101561012c57600080fd5b50803590602001356103f8565b604080516001600160a01b039092168252519081900360200190f35b6101816004803603604081101561016b57600080fd5b50803590602001356001600160a01b0316610424565b604080519115158252519081900360200190f35b6100aa600480360360208110156101ab57600080fd5b5035610430565b6100e8600480360360408110156101c857600080fd5b50803590602001356001600160a01b0316610451565b6100e8600480360360408110156101f457600080fd5b81019060208101813564010000000081111561020f57600080fd5b82018360208201111561022157600080fd5b8035906020019184602083028401116401000000008311171561024357600080fd5b919080806020026020016040519081016040528093929190818152602001838360200280828437600092019190915250929594936020810193503591505064010000000081111561029357600080fd5b8201836020820111156102a557600080fd5b803590602001918460208302840111640100000000831117156102c757600080fd5b919080806020026020016040519081016040528093929190818152602001838360200280828437600092019190915250929550610497945050505050565b600061030f610536565b600092835260205250604090206002015490565b61034e61032e610536565b6000848152602091909152604090206002015461034961055a565b6105a7565b6103895760405162461bcd60e51b815260040180806020018281038252602f8152602001806108cc602f913960400191505060405180910390fd5b61039382826105d5565b5050565b61039f61055a565b6001600160a01b0316816001600160a01b0316146103ee5760405162461bcd60e51b815260040180806020018281038252602f81526020018061092b602f913960400191505060405180910390fd5b610393828261064c565b600061041b82610406610536565b600086815260209190915260409020906106c3565b90505b92915050565b600061041b83836105a7565b600061041e61043d610536565b6000848152602091909152604090206106cf565b61045c61032e610536565b6103ee5760405162461bcd60e51b81526004018080602001828103825260308152602001806108fb6030913960400191505060405180910390fd5b80518251146104ed576040805162461bcd60e51b815260206004820152600760248201527f554e455155414c00000000000000000000000000000000000000000000000000604482015290519081900360640190fd5b60005b82518110156105315761052983828151811061050857fe5b602002602001015183838151811061051c57fe5b6020026020010151610389565b6001016104f0565b505050565b7f6282190449f76f72a9f692e4d8619a03764b7253394788948e36a7a57ba4a00e90565b600060606000368080601f0160208091040260200160405190810160405280939291908181526020018383808284376000920191909152505050503601516001600160a01b031692915050565b6000806105b2610536565b60008581526020829052604090209091506105cd90846106da565b949350505050565b60006105df610536565b60008481526020829052604090209091506105fa90836106ef565b156105315761060761055a565b6001600160a01b0316826001600160a01b0316847f2f8788117e7eff1d82e926ec794901d17c78024a50270940304540a733656f0d60405160405180910390a4505050565b6000610656610536565b60008481526020829052604090209091506106719083610704565b156105315761067e61055a565b6001600160a01b0316826001600160a01b0316847ff6391f5c32d9c69d2a47ea670b442974b53935d1edc7fd64eb21e047a839171b60405160405180910390a4505050565b600061041b8383610719565b600061041e8261077d565b600061041b836001600160a01b038416610781565b600061041b836001600160a01b038416610799565b600061041b836001600160a01b0384166107e3565b8154600090821061075b5760405162461bcd60e51b81526004018080602001828103825260228152602001806108aa6022913960400191505060405180910390fd5b82600001828154811061076a57fe5b9060005260206000200154905092915050565b5490565b60009081526001919091016020526040902054151590565b60006107a58383610781565b6107db5750815460018181018455600084815260208082209093018490558454848252828601909352604090209190915561041e565b50600061041e565b6000818152600183016020526040812054801561089f578354600019808301919081019060009087908390811061081657fe5b906000526020600020015490508087600001848154811061083357fe5b60009182526020808320909101929092558281526001898101909252604090209084019055865487908061086357fe5b6001900381819060005260206000200160009055905586600101600087815260200190815260200160002060009055600194505050505061041e565b600091505061041e56fe456e756d657261626c655365743a20696e646578206f7574206f6620626f756e6473416363657373436f6e74726f6c3a2073656e646572206d75737420626520616e2061646d696e20746f206772616e74416363657373436f6e74726f6c3a2073656e646572206d75737420626520616e2061646d696e20746f207265766f6b65416363657373436f6e74726f6c3a2063616e206f6e6c792072656e6f756e636520726f6c657320666f722073656c66a2646970667358221220a8f143bcc0b3db819a0c24d6e345ec8322cf9a911b876f3d5ffec2e3baf07d4c64736f6c63430007040033",
  "linkReferences": {},
  "deployedLinkReferences": {}
}