{
  "_format": "hh-sol-artifact-1",
  "contractName": "RewardPollProxy",
  "sourceName": "contracts/contracts/06-Reward/RewardPollProxy.sol",
  "abi": [
    {
      "inputs": [
        {
          "internalType": "uint256",
          "name": "_id",
          "type": "uint256"
        }
      ],
      "name": "rewardPollApprovalState",
      "outputs": [
        {
          "internalType": "bool",
          "name": "",
          "type": "bool"
        }
      ],
      "stateMutability": "view",
      "type": "function"
    },
    {
      "inputs": [
        {
          "internalType": "uint256",
          "name": "_id",
          "type": "uint256"
        }
      ],
      "name": "rewardPollFinalize",
      "outputs": [],
      "stateMutability": "nonpayable",
      "type": "function"
    },
    {
      "inputs": [
        {
          "internalType": "uint256",
          "name": "_id",
          "type": "uint256"
        }
      ],
      "name": "rewardPollRevokeVote",
      "outputs": [],
      "stateMutability": "nonpayable",
      "type": "function"
    },
    {
      "inputs": [
        {
          "internalType": "uint256",
          "name": "_id",
          "type": "uint256"
        },
        {
          "internalType": "bool",
          "name": "_agree",
          "type": "bool"
        }
      ],
      "name": "rewardPollVote",
      "outputs": [],
      "stateMutability": "nonpayable",
      "type": "function"
    }
  ],
  "bytecode": "0x608060405234801561001057600080fd5b5061070a806100206000396000f3fe608060405234801561001057600080fd5b506004361061004c5760003560e01c80631be1596b14610051578063492cd5a414610066578063838792f71461008f578063c6fc0d75146100a2575b600080fd5b61006461005f366004610596565b6100b5565b005b610079610074366004610596565b6101db565b6040516100869190610632565b60405180910390f35b61006461009d3660046105ae565b61030e565b6100646100b0366004610596565b61044c565b60006100c0826104cd565b6040805160048152602481019091526020810180516001600160e01b03167f1f2099ca000000000000000000000000000000000000000000000000000000001790529091507f1f2099caf9ce62511ceb2ad48367717b4d5897d8b22852bbdbf504bcdf7338b49060006060308386610136610519565b604051602001610148939291906105f9565b60408051601f1981840301815290829052610162916105dd565b6000604051808303816000865af19150503d806000811461019f576040519150601f19603f3d011682016040523d82523d6000602084013e6101a4565b606091505b50915091508181906101d25760405162461bcd60e51b81526004016101c9919061063d565b60405180910390fd5b50505050505050565b6000806101e7836104cd565b6040805160048152602481019091526020810180516001600160e01b03167f682eb28e000000000000000000000000000000000000000000000000000000001790529091507f682eb28e4dae9787d6c891afab72bf50896ae06e7893ee7dbebfbcc020fa40ef906000606030838661025d610519565b60405160200161026f939291906105f9565b60408051601f1981840301815290829052610289916105dd565b600060405180830381855afa9150503d80600081146102c4576040519150601f19603f3d011682016040523d82523d6000602084013e6102c9565b606091505b50915091508181906102ee5760405162461bcd60e51b81526004016101c9919061063d565b50808060200190518101906103039190610573565b979650505050505050565b6000610319836104cd565b905060007f703504a14b87dea3f197395f6533a8bcdd1e9db5e8c34b5597a73b7eaf3ae2bd9050606081846040516024016103549190610632565b60408051601f198184030181529190526020810180516001600160e01b03167fffffffff00000000000000000000000000000000000000000000000000000000909316929092179091529050600060603083866103af610519565b6040516020016103c1939291906105f9565b60408051601f19818403018152908290526103db916105dd565b6000604051808303816000865af19150503d8060008114610418576040519150601f19603f3d011682016040523d82523d6000602084013e61041d565b606091505b50915091508181906104425760405162461bcd60e51b81526004016101c9919061063d565b5050505050505050565b6000610457826104cd565b6040805160048152602481019091526020810180516001600160e01b03167fd07d58a2000000000000000000000000000000000000000000000000000000001790529091507fd07d58a280e6204033979b0fc16c5e0f43aa495c7f2b4c96cf67f9442fff09de9060006060308386610136610519565b6000816040516020018080602001838152602001828103825260238152602001806106b26023913960400192505050604051602081830303815290604052805190602001209050919050565b600060606000368080601f01602080910402602001604051908101604052809392919081815260200183838082843760009201919091525050505036015173ffffffffffffffffffffffffffffffffffffffff1692915050565b600060208284031215610584578081fd5b815161058f816106a0565b9392505050565b6000602082840312156105a7578081fd5b5035919050565b600080604083850312156105c0578081fd5b8235915060208301356105d2816106a0565b809150509250929050565b600082516105ef818460208701610670565b9190910192915050565b6000845161060b818460208901610670565b919091019283525060601b6bffffffffffffffffffffffff19166020820152603401919050565b901515815260200190565b600060208252825180602084015261065c816040850160208701610670565b601f01601f19169190910160400192915050565b60005b8381101561068b578181015183820152602001610673565b8381111561069a576000848401525b50505050565b80151581146106ae57600080fd5b5056fe6469616d6f6e642e636f6e74726163742e6173736574706f6f6c2e62617365706f6c6ca2646970667358221220e3c42ee97980edd76fc497d3e4da21eb8585a184e2d7a097402c133af1d9fe7b64736f6c63430007040033",
  "linkReferences": {},
  "deployedLinkReferences": {}
}