{
  "_format": "hh-sol-artifact-1",
  "contractName": "RewardPollProxy",
  "sourceName": "contracts/contracts/06-Reward/RewardPollProxy.sol",
  "abi": [
    {
      "inputs": [
        {
          "internalType": "uint256",
          "name": "_id",
          "type": "uint256"
        }
      ],
      "name": "rewardPollApprovalState",
      "outputs": [
        {
          "internalType": "bool",
          "name": "",
          "type": "bool"
        }
      ],
      "stateMutability": "view",
      "type": "function"
    },
    {
      "inputs": [
        {
          "internalType": "uint256",
          "name": "_id",
          "type": "uint256"
        }
      ],
      "name": "rewardPollFinalize",
      "outputs": [],
      "stateMutability": "nonpayable",
      "type": "function"
    },
    {
      "inputs": [
        {
          "internalType": "uint256",
          "name": "_id",
          "type": "uint256"
        }
      ],
      "name": "rewardPollRevokeVote",
      "outputs": [],
      "stateMutability": "nonpayable",
      "type": "function"
    },
    {
      "inputs": [
        {
          "internalType": "uint256",
          "name": "_id",
          "type": "uint256"
        },
        {
          "internalType": "bool",
          "name": "_agree",
          "type": "bool"
        }
      ],
      "name": "rewardPollVote",
      "outputs": [],
      "stateMutability": "nonpayable",
      "type": "function"
    }
  ],
  "bytecode": "0x608060405234801561001057600080fd5b50610b44806100206000396000f3fe608060405234801561001057600080fd5b506004361061004c5760003560e01c80631be1596b14610051578063492cd5a41461006d578063838792f71461009d578063c6fc0d75146100b9575b600080fd5b61006b60048036038101906100669190610821565b6100d5565b005b61008760048036038101906100829190610821565b610255565b604051610094919061097d565b60405180910390f35b6100b760048036038101906100b2919061084a565b6103ec565b005b6100d360048036038101906100ce9190610821565b610578565b005b60006100e0826106f8565b905060007f1f2099caf9ce62511ceb2ad48367717b4d5897d8b22852bbdbf504bcdf7338b49050606081604051602401604051602081830303815290604052907bffffffffffffffffffffffffffffffffffffffffffffffffffffffff19166020820180517bffffffffffffffffffffffffffffffffffffffffffffffffffffffff83818316178352505050509050600060603073ffffffffffffffffffffffffffffffffffffffff168386610194610744565b6040516020016101a693929190610944565b6040516020818303038152906040526040516101c2919061092d565b6000604051808303816000865af19150503d80600081146101ff576040519150601f19603f3d011682016040523d82523d6000602084013e610204565b606091505b509150915081819061024c576040517f08c379a00000000000000000000000000000000000000000000000000000000081526004016102439190610998565b60405180910390fd5b50505050505050565b600080610261836106f8565b905060007f682eb28e4dae9787d6c891afab72bf50896ae06e7893ee7dbebfbcc020fa40ef9050606081604051602401604051602081830303815290604052907bffffffffffffffffffffffffffffffffffffffffffffffffffffffff19166020820180517bffffffffffffffffffffffffffffffffffffffffffffffffffffffff83818316178352505050509050600060603073ffffffffffffffffffffffffffffffffffffffff168386610315610744565b60405160200161032793929190610944565b604051602081830303815290604052604051610343919061092d565b600060405180830381855afa9150503d806000811461037e576040519150601f19603f3d011682016040523d82523d6000602084013e610383565b606091505b50915091508181906103cb576040517f08c379a00000000000000000000000000000000000000000000000000000000081526004016103c29190610998565b60405180910390fd5b50808060200190518101906103e091906107f8565b95505050505050919050565b60006103f7836106f8565b905060007f703504a14b87dea3f197395f6533a8bcdd1e9db5e8c34b5597a73b7eaf3ae2bd905060608184604051602401610432919061097d565b604051602081830303815290604052907bffffffffffffffffffffffffffffffffffffffffffffffffffffffff19166020820180517bffffffffffffffffffffffffffffffffffffffffffffffffffffffff83818316178352505050509050600060603073ffffffffffffffffffffffffffffffffffffffff1683866104b6610744565b6040516020016104c893929190610944565b6040516020818303038152906040526040516104e4919061092d565b6000604051808303816000865af19150503d8060008114610521576040519150601f19603f3d011682016040523d82523d6000602084013e610526565b606091505b509150915081819061056e576040517f08c379a00000000000000000000000000000000000000000000000000000000081526004016105659190610998565b60405180910390fd5b5050505050505050565b6000610583826106f8565b905060007fd07d58a280e6204033979b0fc16c5e0f43aa495c7f2b4c96cf67f9442fff09de9050606081604051602401604051602081830303815290604052907bffffffffffffffffffffffffffffffffffffffffffffffffffffffff19166020820180517bffffffffffffffffffffffffffffffffffffffffffffffffffffffff83818316178352505050509050600060603073ffffffffffffffffffffffffffffffffffffffff168386610637610744565b60405160200161064993929190610944565b604051602081830303815290604052604051610665919061092d565b6000604051808303816000865af19150503d80600081146106a2576040519150601f19603f3d011682016040523d82523d6000602084013e6106a7565b606091505b50915091508181906106ef576040517f08c379a00000000000000000000000000000000000000000000000000000000081526004016106e69190610998565b60405180910390fd5b50505050505050565b600081604051602001808060200183815260200182810382526023815260200180610aec6023913960400192505050604051602081830303815290604052805190602001209050919050565b600060606000368080601f016020809104026020016040519081016040528093929190818152602001838380828437600081840152601f19601f820116905080830192505050505050509050600080369050905073ffffffffffffffffffffffffffffffffffffffff81830151169250505090565b6000813590506107c881610abd565b92915050565b6000815190506107dd81610abd565b92915050565b6000813590506107f281610ad4565b92915050565b60006020828403121561080a57600080fd5b6000610818848285016107ce565b91505092915050565b60006020828403121561083357600080fd5b6000610841848285016107e3565b91505092915050565b6000806040838503121561085d57600080fd5b600061086b858286016107e3565b925050602061087c858286016107b9565b9150509250929050565b610897610892826109ec565b610a71565b82525050565b6108a6816109fe565b82525050565b6108bd6108b882610a0a565b610a83565b82525050565b60006108ce826109ba565b6108d881856109d0565b93506108e8818560208601610a3e565b80840191505092915050565b60006108ff826109c5565b61090981856109db565b9350610919818560208601610a3e565b61092281610a9f565b840191505092915050565b600061093982846108c3565b915081905092915050565b600061095082866108c3565b915061095c82856108ac565b60208201915061096c8284610886565b601482019150819050949350505050565b6000602082019050610992600083018461089d565b92915050565b600060208201905081810360008301526109b281846108f4565b905092915050565b600081519050919050565b600081519050919050565b600081905092915050565b600082825260208201905092915050565b60006109f782610a14565b9050919050565b60008115159050919050565b6000819050919050565b600073ffffffffffffffffffffffffffffffffffffffff82169050919050565b6000819050919050565b60005b83811015610a5c578082015181840152602081019050610a41565b83811115610a6b576000848401525b50505050565b6000610a7c82610a8d565b9050919050565b6000819050919050565b6000610a9882610ab0565b9050919050565b6000601f19601f8301169050919050565b60008160601b9050919050565b610ac6816109fe565b8114610ad157600080fd5b50565b610add81610a34565b8114610ae857600080fd5b5056fe6469616d6f6e642e636f6e74726163742e6173736574706f6f6c2e62617365706f6c6ca2646970667358221220c1719056bcf41153c30a845ac759290887be730f823ef136806ee07ca7a822c564736f6c63430007040033",
  "linkReferences": {},
  "deployedLinkReferences": {}
}