{
  "_format": "hh-sol-artifact-1",
  "contractName": "AssetPoolFacet",
  "sourceName": "contracts/contracts/facets/AssetPoolFacet/AssetPoolFacet.sol",
  "abi": [
    {
      "anonymous": false,
      "inputs": [
        {
          "indexed": false,
          "internalType": "uint256",
          "name": "id",
          "type": "uint256"
        },
        {
          "indexed": true,
          "internalType": "address",
          "name": "member",
          "type": "address"
        },
        {
          "indexed": false,
          "internalType": "uint256",
          "name": "withdrawID",
          "type": "uint256"
        },
        {
          "indexed": false,
          "internalType": "uint256",
          "name": "proposal",
          "type": "uint256"
        }
      ],
      "name": "RewardPollCreated",
      "type": "event"
    },
    {
      "anonymous": false,
      "inputs": [
        {
          "indexed": false,
          "internalType": "uint256",
          "name": "id",
          "type": "uint256"
        },
        {
          "indexed": true,
          "internalType": "uint256",
          "name": "member",
          "type": "uint256"
        }
      ],
      "name": "WithdrawPollCreated",
      "type": "event"
    },
    {
      "inputs": [
        {
          "internalType": "uint256",
          "name": "_withdrawAmount",
          "type": "uint256"
        },
        {
          "internalType": "uint256",
          "name": "_withdrawDuration",
          "type": "uint256"
        }
      ],
      "name": "addReward",
      "outputs": [],
      "stateMutability": "nonpayable",
      "type": "function"
    },
    {
      "inputs": [
        {
          "internalType": "uint256",
          "name": "_id",
          "type": "uint256"
        }
      ],
      "name": "claimReward",
      "outputs": [],
      "stateMutability": "nonpayable",
      "type": "function"
    },
    {
      "inputs": [
        {
          "internalType": "uint256",
          "name": "_id",
          "type": "uint256"
        },
        {
          "internalType": "address",
          "name": "_beneficiary",
          "type": "address"
        }
      ],
      "name": "claimRewardFor",
      "outputs": [],
      "stateMutability": "nonpayable",
      "type": "function"
    },
    {
      "inputs": [
        {
          "internalType": "address",
          "name": "_tokenAddress",
          "type": "address"
        }
      ],
      "name": "initializeAssetPool",
      "outputs": [],
      "stateMutability": "nonpayable",
      "type": "function"
    },
    {
      "inputs": [
        {
          "internalType": "uint256",
          "name": "_amount",
          "type": "uint256"
        },
        {
          "internalType": "address",
          "name": "_beneficiary",
          "type": "address"
        }
      ],
      "name": "proposeWithdraw",
      "outputs": [],
      "stateMutability": "nonpayable",
      "type": "function"
    },
    {
      "inputs": [
        {
          "internalType": "uint256",
          "name": "_duration",
          "type": "uint256"
        }
      ],
      "name": "setProposeWithdrawPollDuration",
      "outputs": [],
      "stateMutability": "nonpayable",
      "type": "function"
    },
    {
      "inputs": [
        {
          "internalType": "uint256",
          "name": "_duration",
          "type": "uint256"
        }
      ],
      "name": "setRewardPollDuration",
      "outputs": [],
      "stateMutability": "nonpayable",
      "type": "function"
    },
    {
      "inputs": [
        {
          "internalType": "uint256",
          "name": "_id",
          "type": "uint256"
        },
        {
          "internalType": "uint256",
          "name": "_withdrawAmount",
          "type": "uint256"
        },
        {
          "internalType": "uint256",
          "name": "_withdrawDuration",
          "type": "uint256"
        }
      ],
      "name": "updateReward",
      "outputs": [],
      "stateMutability": "nonpayable",
      "type": "function"
    }
  ],
  "bytecode": "0x608060405234801561001057600080fd5b5061172c806100206000396000f3fe608060405234801561001057600080fd5b50600436106100885760003560e01c8063b712851b1161005b578063b712851b14610165578063cd52235f146101a7578063d19f01a2146101f5578063f0854aac1461022357610088565b8063365edf201461008d5780636c6ed9e2146100bb57806375c93bb9146100ff578063ae169a5014610137575b600080fd5b6100b9600480360360208110156100a357600080fd5b8101908080359060200190929190505050610271565b005b6100fd600480360360208110156100d157600080fd5b81019080803573ffffffffffffffffffffffffffffffffffffffff16906020019092919050505061036f565b005b6101356004803603604081101561011557600080fd5b810190808035906020019092919080359060200190929190505050610425565b005b6101636004803603602081101561014d57600080fd5b8101908080359060200190929190505050610762565b005b6101a56004803603606081101561017b57600080fd5b81019080803590602001909291908035906020019092919080359060200190929190505050610776565b005b6101f3600480360360408110156101bd57600080fd5b8101908080359060200190929190803573ffffffffffffffffffffffffffffffffffffffff169060200190929190505050610c02565b005b6102216004803603602081101561020b57600080fd5b8101908080359060200190929190505050610e38565b005b61026f6004803603604081101561023957600080fd5b8101908080359060200190929190803573ffffffffffffffffffffffffffffffffffffffff169060200190929190505050610f36565b005b6102ea7f241ecf16d79d0f8dbfb92cbc07fe17840425976cf0667f022fe9877caa831b0861029d61104e565b60010160006102aa61107b565b73ffffffffffffffffffffffffffffffffffffffff1673ffffffffffffffffffffffffffffffffffffffff168152602001908152602001600020546110f0565b61035c576040517f08c379a000000000000000000000000000000000000000000000000000000000815260040180806020018281038252600b8152602001807f4e4f545f4d414e4147455200000000000000000000000000000000000000000081525060200191505060405180910390fd5b806103656111a1565b6002018190555050565b6103776111ce565b60040160009054906101000a900473ffffffffffffffffffffffffffffffffffffffff1673ffffffffffffffffffffffffffffffffffffffff163373ffffffffffffffffffffffffffffffffffffffff16146103d257600080fd5b60006103dc6111a1565b9050818160000160006101000a81548173ffffffffffffffffffffffffffffffffffffffff021916908373ffffffffffffffffffffffffffffffffffffffff1602179055505050565b61042d61107b565b73ffffffffffffffffffffffffffffffffffffffff1661044b6111fb565b73ffffffffffffffffffffffffffffffffffffffff16146104d4576040517f08c379a00000000000000000000000000000000000000000000000000000000081526004018080602001828103825260098152602001807f4e4f545f4f574e4552000000000000000000000000000000000000000000000081525060200191505060405180910390fd5b600082141561054b576040517f08c379a00000000000000000000000000000000000000000000000000000000081526004018080602001828103825260098152602001807f4e4f545f56414c4944000000000000000000000000000000000000000000000081525060200191505060405180910390fd5b7f04000000000000000000000000000000000000000000000000000000000000008214156105e1576040517f08c379a00000000000000000000000000000000000000000000000000000000081526004018080602001828103825260098152602001807f4e4f545f56414c4944000000000000000000000000000000000000000000000081525060200191505060405180910390fd5b7f0800000000000000000000000000000000000000000000000000000000000000821415610677576040517f08c379a00000000000000000000000000000000000000000000000000000000081526004018080602001828103825260098152602001807f4e4f545f56414c4944000000000000000000000000000000000000000000000081525060200191505060405180910390fd5b61067f61164c565b60016106896111a1565b60040180549050018160000181815250506000816080019060018111156106ac57fe5b908160018111156106b957fe5b815250506106cc8160000151848461122e565b8160600181815250506106dd6111a1565b6004018190806001815401808255809150506001900390600052602060002090600502016000909190919091506000820151816000015560208201518160010155604082015181600201556060820151816003015560808201518160040160006101000a81548160ff0219169083600181111561075657fe5b02179055505050505050565b6107738161076e61107b565b610c02565b50565b61077e61107b565b73ffffffffffffffffffffffffffffffffffffffff1661079c6111fb565b73ffffffffffffffffffffffffffffffffffffffff1614610825576040517f08c379a00000000000000000000000000000000000000000000000000000000081526004018080602001828103825260098152602001807f4e4f545f4f574e4552000000000000000000000000000000000000000000000081525060200191505060405180910390fd5b61083561083061107b565b61132a565b6108a7576040517f08c379a000000000000000000000000000000000000000000000000000000000815260040180806020018281038252600a8152602001807f4e4f545f4d454d4245520000000000000000000000000000000000000000000081525060200191505060405180910390fd5b60006108b16111a1565b60040160018503815481106108c257fe5b90600052602060002090600502019050600081600301541461094c576040517f08c379a00000000000000000000000000000000000000000000000000000000081526004018080602001828103825260108152602001807f49535f4e4f545f46494e414c495a45440000000000000000000000000000000081525060200191505060405180910390fd5b60008314801561095c5750600082145b156109cf576040517f08c379a000000000000000000000000000000000000000000000000000000000815260040180806020018281038252600b8152602001807f4e4f545f414c4c4f57454400000000000000000000000000000000000000000081525060200191505060405180910390fd5b7f040000000000000000000000000000000000000000000000000000000000000083148015610a245750600180811115610a0557fe5b8160040160009054906101000a900460ff166001811115610a2257fe5b145b15610a97576040517f08c379a000000000000000000000000000000000000000000000000000000000815260040180806020018281038252600f8152602001807f414c52454144595f454e41424c4544000000000000000000000000000000000081525060200191505060405180910390fd5b7f080000000000000000000000000000000000000000000000000000000000000083148015610aed575060006001811115610ace57fe5b8160040160009054906101000a900460ff166001811115610aeb57fe5b145b15610b60576040517f08c379a00000000000000000000000000000000000000000000000000000000081526004018080602001828103825260108152602001807f414c52454144595f44495341424c45440000000000000000000000000000000081525060200191505060405180910390fd5b828160010154148015610b765750818160020154145b15610be9576040517f08c379a00000000000000000000000000000000000000000000000000000000081526004018080602001828103825260088152602001807f49535f455155414c00000000000000000000000000000000000000000000000081525060200191505060405180910390fd5b610bf484848461122e565b816003018190555050505050565b610c12610c0d61107b565b61132a565b610c84576040517f08c379a000000000000000000000000000000000000000000000000000000000815260040180806020018281038252600a8152602001807f4e4f545f4d454d4245520000000000000000000000000000000000000000000081525060200191505060405180910390fd5b610c8d8161132a565b610cff576040517f08c379a000000000000000000000000000000000000000000000000000000000815260040180806020018281038252600a8152602001807f4e4f545f4d454d4245520000000000000000000000000000000000000000000081525060200191505060405180910390fd5b610d0761164c565b610d0f6111a1565b6004016001840381548110610d2057fe5b90600052602060002090600502016040518060a0016040529081600082015481526020016001820154815260200160028201548152602001600382015481526020016004820160009054906101000a900460ff166001811115610d7f57fe5b6001811115610d8a57fe5b815250509050600180811115610d9c57fe5b81608001516001811115610dac57fe5b14610e1f576040517f08c379a000000000000000000000000000000000000000000000000000000000815260040180806020018281038252600e8152602001807f49535f4e4f545f454e41424c454400000000000000000000000000000000000081525060200191505060405180910390fd5b610e3281602001518260400151846113db565b50505050565b610eb17f241ecf16d79d0f8dbfb92cbc07fe17840425976cf0667f022fe9877caa831b08610e6461104e565b6001016000610e7161107b565b73ffffffffffffffffffffffffffffffffffffffff1673ffffffffffffffffffffffffffffffffffffffff168152602001908152602001600020546110f0565b610f23576040517f08c379a000000000000000000000000000000000000000000000000000000000815260040180806020018281038252600b8152602001807f4e4f545f4d414e4147455200000000000000000000000000000000000000000081525060200191505060405180910390fd5b80610f2c6111a1565b6001018190555050565b610f46610f4161107b565b61132a565b610fb8576040517f08c379a000000000000000000000000000000000000000000000000000000000815260040180806020018281038252600a8152602001807f4e4f545f4d454d4245520000000000000000000000000000000000000000000081525060200191505060405180910390fd5b610fc18161132a565b611033576040517f08c379a000000000000000000000000000000000000000000000000000000000815260040180806020018281038252600a8152602001807f4e4f545f4d454d4245520000000000000000000000000000000000000000000081525060200191505060405180910390fd5b6110498261103f6111a1565b60010154836113db565b505050565b6000807f6282190449f76f72a9f692e4d8619a03764b7253394788948e36a7a57ba4a00e90508091505090565b600060606000368080601f016020809104026020016040519081016040528093929190818152602001838380828437600081840152601f19601f820116905080830192505050505050509050600080369050905073ffffffffffffffffffffffffffffffffffffffff81830151169250505090565b600080821415611168576040517f08c379a00000000000000000000000000000000000000000000000000000000081526004018080602001828103825260098152602001807f4e4f545f5345545550000000000000000000000000000000000000000000000081525060200191505060405180910390fd5b6111998261117461104e565b60030160008681526020019081526020016000206000016114e690919063ffffffff16565b905092915050565b6000807fd05d8ab03eb42dd030db61fb625331fb04ca5b3f470fcdd3fc8f27498b9c9f0090508091505090565b6000807fc8fcad8db84d3cc18b4c41d551ea0ee66dd599cde068d998e57d5e09332c131c90508091505090565b60006112056111ce565b60040160009054906101000a900473ffffffffffffffffffffffffffffffffffffffff16905090565b6000806112396111a1565b905060018160030154018160030181905550600061125a8260030154611500565b90508160030154816000018190555042816001018190555081600201544201816002018190555060006112908360030154611517565b90506001870381600001819055508581600101819055508481600201819055506112b861107b565b73ffffffffffffffffffffffffffffffffffffffff167fa5de4e0f1266a8772665613fee9f17e6403ad5e6bdd5de0e58a8a85aa34303c38460030154898960405180848152602001838152602001828152602001935050505060405180910390a2816000015493505050509392505050565b60008061133561104e565b60010160008473ffffffffffffffffffffffffffffffffffffffff1673ffffffffffffffffffffffffffffffffffffffff1681526020019081526020016000205490506113a27f829b824e2329e205435d941c9f13baf578548505283d29261236d8e6596d4636826110f0565b806113d357506113d27f241ecf16d79d0f8dbfb92cbc07fe17840425976cf0667f022fe9877caa831b08826110f0565b5b915050919050565b6000806113e66111a1565b90506001816003015401816003018190555060006114078260030154611500565b90508160030154816000018190555042816001018190555084420181600201819055506000611439836003015461152e565b905086816001018190555061144c61104e565b60010160008673ffffffffffffffffffffffffffffffffffffffff1673ffffffffffffffffffffffffffffffffffffffff16815260200190815260200160002054816000018190555080600001547f91aa418bfd26049fe46510fca1b7593f8348efbf8e8e29a3844bb16584ff144884600301546040518082815260200191505060405180910390a2816000015493505050509392505050565b60006114f8836000018360001b611545565b905092915050565b60008061150c83611568565b905080915050919050565b600080611523836115b4565b905080915050919050565b60008061153a83611600565b905080915050919050565b600080836001016000848152602001908152602001600020541415905092915050565b6000816040516020018080602001838152602001828103825260238152602001806116d46023913960400192505050604051602081830303815290604052805190602001209050919050565b6000816040516020018080602001838152602001828103825260258152602001806116af6025913960400192505050604051602081830303815290604052805190602001209050919050565b6000816040516020018080602001838152602001828103825260288152602001806116876028913960400192505050604051602081830303815290604052805190602001209050919050565b6040518060a00160405280600081526020016000815260200160008152602001600081526020016000600181111561168057fe5b8152509056fe6469616d6f6e642e636f6e74726163742e6173736574706f6f6c2e776974686472617764706f6c6c6469616d6f6e642e636f6e74726163742e6173736574706f6f6c2e726577617264706f6c6c6469616d6f6e642e636f6e74726163742e6173736574706f6f6c2e62617365706f6c6ca26469706673582212209e98df3a061c02c6e8b1dbc6966ca615a2f375454c70aac40b596debc745746564736f6c63430007040033",
  "linkReferences": {},
  "deployedLinkReferences": {}
}